:020000022000DC
:106000000000012079630200616302006363020003
:10601000656302006763020069630200000000001C
:106020000000000000000000000000006B630200A0
:106030006D630200000000006F63020071630200E4
:106040006986020073630200F18A02007363020032
:1060500073630200736302007589020073630200B8
:1060600073630200736302007363020073630200D0
:1060700073630200736302007363020073630200C0
:10608000736302007D710200736302007363020098
:106090001972020073630200DDB70200736302002D
:1060A0007363020073630200736302007363020090
:1060B0007363020073630200000000000000000030
:1060C0007363020073630200736302007363020070
:1060D0007363020073630200736302000000000038
:1060E00000000000000000000000000000000000B0
:1060F00000000000000000000000000000000000A0
:10610000000000000000000000000000000000008F
:10611000000000000000000000000000000000007F
:10612000000000000000000000000000000000006F
:10613000000000000000000000000000000000005F
:10614000000000000000000000000000000000004F
:10615000000000000000000000000000000000003F
:10616000000000000000000000000000000000002F
:10617000000000000000000000000000000000001F
:10618000000000000000000000000000000000000F
:1061900000000000000000000000000000000000FF
:1061A00000000000000000000000000000000000EF
:1061B00000000000000000000000000000000000DF
:1061C00000000000000000000000000000000000CF
:1061D00000000000000000000000000000000000BF
:1061E00000000000000000000000000000000000AF
:1061F000000000000000000000000000000000009F
:10620000364937480A1A02D0072291438D4635494C
:1062100035480A1A06D00722914381F309880222E1
:1062200082F3148831483249324A00F045F8324846
:106230003249334A00F040F832483349334A00F0DB
:106240003BF833483349344A00F036F83348344990
:10625000344A00F031F834483449354A00F02CF81B
:1062600034483549354A00F027F835483549002289
:1062700000F02DF834483549002200F028F8344861
:106280003449091A082903DB002202600430016046
:10629000314A90471F482049884205D0026804309F
:1062A00003B4904703BCF7E700208646EC46002085
:1062B00000212A4A9047FEE7884207D0521A05D0AB
:1062C000037801300B700131013AF9D170478842EF
:1062D00002D002700130FAE7704700000000012090
:1062E00000E000200000012000000120B8D50200DD
:1062F000C0490020204A0020D8630200D863020071
:10630000A4C50200B8D50200C0490020C049002041
:1063100098C6020098C6020098C6020098C60200FD
:1063200098C6020098C6020098C6020098C60200ED
:10633000B8D5020018D60200204A0020204A0020CA
:10634000204A0020E85B0020E85B0020E85B00209A
:10635000E85B0020E87B0020A1630200CD9D0200E5
:10636000FEE7FEE7FEE7FEE7FEE7FEE7FEE7FEE705
:10637000FEE7FEE7704700BF1048804710484FF027
:106380000701884385460F4880470F48016841F45C
:1063900070010160BFF34F8FBFF36F8FFFF730BF06
:1063A0000A480B490B4A884207D0521A05D0037895
:1063B00001300B700131013AF9D170477563020069
:1063C000000001208180020088ED00E098C60200F4
:0863D000C0490020C049002073
:1063D8007047000007B5044B0093044A402300F0BF
:1063E80032F803B05DF804FBF9630200214A00208B
:1063F8002DE9F84389461446B2B10F4B0F4E0325D9
:10640800002743F00108224609EB0701002003F0AA
:10641800A5FE0744241A48B933782BB14FF47A40C3
:10642800C047013D02D13570BDE8F88301233370C0
:10643800002CE8D1F8E700BFA0C60200204A0020DF
:10644800704703F0BFBEF0B595B01C461646084627
:106458000D4601F020FD1A9B0D93CDE90864002438
:106468002346082205A928460A948DF82C400C9446
:1064780001F02FFD079B0293BDF81830ADF80C30E2
:10648800BDF81A30ADF80E309DF814308DF8114073
:1064980003F00302012A1DD1BDF81440059EC3F381
:1064A800C203C4F383148DF81030A20008230EA988
:1064B800284601F00EFDC6F3952608AB0093224648
:1064C80002AB0EA9304600F05DFB284601F0E7FC60
:1064D80015B0F0BD022AF8D1BDF81640C3F3C203C7
:1064E800A4098DF810300827082C264628BF08264E
:1064F8003B4632460EA9284601F0EBFCA41B08AB2C
:1065080002AA31460EA8374400F0A0FB002CEBD1BC
:10651800DBE7000008B5FFF794FF0421034800F00B
:106528009FFA034B01225A7108BD00BF88C60200BA
:10653800C0490020037813F0040216D003F00303C7
:10654800012B03D0022B09D0012070470A6800886C
:106558000232C0F3831002440A60F5E70B684288F0
:10656800023303EB92130B60EEE71046704700000E
:106578002DE9F04F89B00546861C08A8484C0192C1
:1065880000230F4600F8113D01F040F923683B60F5
:10659800D4E901231344226801339B1A04F21C47EF
:1065A80004F5836A04F21448B3421AD3019A00230B
:1065B800002A6DD0012262F3010343F0040365F35E
:1065C80089132168A2689DF80F000A4003320E441F
:1065D80044F82230266001F03DF9012009B0BDE8F9
:1065E800F08F0121384601F092F9504601F0A5F9E3
:1065F800404601F0A2F90DF120096068D4F808B00E
:1066080049F8100D00EA0B00033004EB80004946FE
:10661800FFF790FF049BB0B90BEA030204EB820278
:10662800D16805919A1C013303EA0B0B04EB8B0C20
:1066380001F00303012B0492DCF80CB020D0022BEC
:1066480004D083460BE00BEA0300DDE7BDF8163003
:106658009B0903334FEA1B4B02EB93030493404619
:1066680001F06EF908B1049B63605946384601F0A1
:106678004EF9D4E901231344226801339B1A93E7A6
:10668800BDF81430C3F383134FEA1B4B1344E5E7FB
:10669800022262F3010343F0040365F39F5390E77A
:1066A800344B00200B4B0C48FF2210B59A60002297
:1066B800C3F81824C3E90022C3F8142483F820245B
:1066C80001F0A2FB044610B9044801F04BFC204637
:1066D80010BD00BF344B00200CC60200C4C6020027
:1066E80030B50A4C71B10A4A0A49121BD208002374
:1066F8009A4201D1002030BD31F82350854202D0A2
:106708000133F5E7034654F83300F4E720C60200E6
:1067180088C60200C0490020094B013903EBC000BC
:10672800032909D8DFE801F00A02040604207047AB
:106738000079704740797047002070470220704701
:1067480020C60200034BD3E90030C31A584258410F
:10675800704700BF344B00202DE9F04387B0FFF7A6
:10676800F1FF0646002840F0FC807F4DC5F818046C
:10677800BFF34F8F6868AC6806AF47F8100D20402C
:10678800033005EB80003946FFF7D4FE029B18B1B1
:10679800D5F81824002A5FD004EA0302991C0133B3
:1067A80005EB8202234005EB8303D268DB68049380
:1067B80002F00303022B0392029162D1BDF80E305E
:1067C8006A484FEA9318B8F1500FC14628BF4FF0F6
:1067D800500969F38F1309F10801ADF80E3001F083
:1067E8002BFB0746002800F0A78001F054FB03A903
:1067F80000230822384601F061FB029924EA0106C9
:106808000136B600B14535D95FFA89F97EB3F6B2DB
:10681800A9EB0609214003315FFA89F4B146544EC9
:1068280005EB810108234A46384601F047FB36B19B
:1068380009F1080322463146384601F03FFB029B26
:1068480008F1030803EB98030293D5F81834002BDA
:106858004BD1D5F810445BE02A689A4204D86A60A4
:10686800304607B0BDE8F08304EA030088E74049F2
:106878003446D7E72140033108234A4605EB810116
:10688800DAE7012B58D1BDF80C303848C3F383112F
:10689800062928BF062161F3891302318900ADF862
:1068A8000C3001F0C9FA0746002845D001F0F3FA88
:1068B8000023082203A9384601F000FB0026BDF892
:1068C8000C20C2F38312B31C96424FEA8303BCD256
:1068D80002994A1C21400331029205EB81010422EE
:1068E800384601F0EBFA0136E9E7384601F0D7FA05
:1068F800FFF728FF80F00100C6B2B1E7E3685B79D3
:1069080023B1236839461B6820469847E3681C680A
:10691800002CF3D1384601F0C2FA06A800F8114D50
:1069280000F074FFD5F818340BB9029B6B609DF822
:10693800070000F08FFFDBE7D5F8104454B90D4B82
:106948000D480E49C01AC008000440F0020000F0CB
:106958006FF8CDE7236820469B689847E3681C6872
:10696800ECE700267CE700BF344B00200CC6020091
:10697800404B002020C6020048C60200D0C60200D4
:106988002DE9F74F284C80460F46924601A901226F
:1069980018469B46D4F80890FFF7EAFD88B3019D96
:1069A8000026A91C5E4506EB010234D100211F48D0
:1069B80000F082FF80F310006A1C02EA090204EB6F
:1069C8008202000405EA0903033340EA1840D06054
:1069D80014F8232068F3C50204F8232034F8232090
:1069E80066F3891224F8232054F82320012167F341
:1069F8009F2244F8232061F301026FF3820204F816
:106A0800232094F820341BB1FFF7A6FE0028FBD101
:106A180003B0BDE8F08F09EA020204EB82025AF8DB
:106A28002630D3600136BDE7344B0020504F00209C
:106A380000231A46FFF7A4BF13B502AC012344F89C
:106A4800042D2246FFF79CFF02B010BD07B5CDE923
:106A5800002302236A46FFF793FF03B05DF804FBA7
:106A680030B50F49D1F81024002314463CB9C46846
:106A7800237152B9C1F810042260184630BDE46889
:106A880025799D4206D02468F0E7D2681168216014
:106A98001060F2E701330A2BE7D14FF0FF33ECE740
:106AA800344B0020094A38B50123D2F8104482F843
:106AB80020341D4604B938BDE3685D71236820465B
:106AC8005B689847E3681C68F4E700BF344B002014
:106AD800037A052B10B50C460FD0437A23B1084A28
:106AE8000849204600F08DFF0749204600F089FF3D
:106AF8002046BDE8104000F079BF002AF8D0F3E73F
:106B08001BC7020020C702009ECE0200C38873B5CF
:106B180004460D4633B1144A00921449144A2846D3
:106B280000F06FFF217A05291CD0637A4BB1A08849
:106B3800FFF7F2FD0F4B104953F82020284600F0CC
:106B480060FF227A0D4BA08853F822600021FFF7DE
:106B5800C7FD0B4903463246284602B0BDE87040DF
:106B680000F04FBF02B070BD1BC702002BC7020068
:106B780023C70200E8C6020020C7020050C702006F
:106B880043C702002DE9F04385B01F460C9D002342
:106B980006460C46904695F80C902B7329463846C5
:106BA800FFF7B4FFB8F1060F09D8DFE808F00412C0
:106BB800181F283340003146284600F022FF0022E3
:106BC80029463846FFF784FF85F80C9005B0BDE8E4
:106BD800F08322683146284600F013FFEFE7D4E936
:106BE80000233146284600F00CFFE8E7A36800932D
:106BF8003146D4E90023284600F003FFDFE7E368C5
:106C08000193A36800933146D4E90023284600F095
:106C1800F8FED4E723690293E3680193A36800931D
:106C28003146D4E90023284600F0EBFEC7E7636944
:106C3800039323690293E3680193A36800933146A1
:106C4800D4E90023284600F0DCFEB8E708292DE93E
:106C5800F84F80460E4617461C463AD8002593F84A
:106C68000C901D7319461046FFF750FFDFF884A0FB
:106C7800DFF884B0AE422ED918F8052059462046D0
:106C880000F0BFFE0135082DF4D11849DFF86CB0CB
:106C9800204600F0B6FE4FF0000A564520D918F8F5
:106CA8000A507E2D03D8284604F0FAFF00B92E2595
:106CB8002A465946204600F0A4FE0AF1010ABAF114
:106CC800080FEAD1012221463846FFF701FF84F870
:106CD8000C90BDE8F88F5146204600F092FED1E7AF
:106CE8000349204600F08DFEE7E700BF16C7020003
:106CF80014C7020012C702000CC7020018C702001E
:106D08002DE9F04F3B4F89B000263B4B1B78F5B27D
:106D1800AB4202D809B0BDE8F08F384B196811F8BA
:106D280035000124A0F12002C0F1200304FA02F981
:106D380024FA03F349EA0309D7E9002304FA00F81F
:106D4800CDE9042302EA080203EA0903134301EB2D
:106D5800C50B4CD0DDE9042322EA080223EA090323
:106D6800C7E90023079101F0F7FD0799844611F858
:106D78003500A0F12002C0F1200324FA03F304FA3D
:106D880002F21A4304FA00F300931D4B0192DDE965
:106D98000045D3E9002314401D4022462B465FFAE4
:106DA8008CF40025CDE90445049CA0F12005AC40F5
:106DB8000394049CC0F1200124FA01F1039C0C43C4
:106DC8000499039481400291DDE90245AB4208BF72
:106DD800A2420CD19BF801104B1E59425941A1EB1C
:106DE8000C02DBF804305142514103B19847013697
:106DF8008BE700BF20500020F04F002028500020D3
:106E0800185000202DE9F84F0646244800F0DCFB16
:106E1800002841D10123A6F12001C6F1200203FA7E
:106E280001FB23FA02F203FA06FA1D4BD3E900012B
:106E38004BEA020B00EA0A0801EA0B0958EA0902C0
:106E48001F4623D1304601F087FD164BB8B1D3E970
:106E5800000140EA0A0441EA0B05C3E90045D7E905
:106E680000234BEA0305104B0C4819684AEA020450
:106E7800C7E900450022BDE8F84F00F061BBD3E93F
:106E8800000120EA0A0421EA0B05E6E720EA0A04E1
:106E980021EA0B05C3E90045BDE8F88FF84F00204B
:106EA8002050002018500020F44F0020042A2DE91B
:106EB800F34105460C4616463AD901F063FCD8B1B1
:106EC8001C4B1D491D601D4BDFF884801C701C4B3A
:106ED80000221E600023C1E900231A49C1E90023EA
:106EE800013CE4B200260327FF2C0CD1164A1748B0
:106EF800002100F013FB03E001F00EFC0028DFD0B6
:106F080002B0BDE8F08123B205EBC30201A9927873
:106F18008DF8052015F833008DF8066042468DF887
:106F2800047001F039FC013CE4B20028DCD0E7E74A
:106F38000720E5E72850002018500020F04F0020D7
:106F4800F44F002020500020096D0200B0C7020055
:106F58000D6E020070B5084D084E00242B789C4237
:106F680001D3002070BD3368012113F8340001F00B
:106F78008BFC0134F2E700BFF04F002028500020BE
:106F880070B5094D094E00242B789C4204D308485B
:106F9800BDE8704000F018BB336813F8340001F006
:106FA800B9FC0134F0E700BFF04F00202850002062
:106FB800F84F00201FB50021039001AA44F20100F8
:106FC800CDE9011100F004F805B05DF804FB0000FC
:106FD80010B572B6FFF766FDFFF7BEFB0028FBD1C0
:106FE800104B114C1149E41AE408240444F0010040
:106FF800FFF71EFD0E4B1B68DB0700D500BE0D49D1
:1070080044F00200FFF714FDBFF34F8F0A490B4B02
:10701800CA6802F4E0621343CB60BFF34F8F00BF2E
:10702800FDE700BF20C6020048C60200B4C7020040
:10703800F0ED00E0C0C7020000ED00E00400FA0532
:1070480049B152B1531E1A4007D182600160838052
:10705800C260104670470E2070470920704710B56F
:107068008468C2688388121B934208D3C26813409D
:107078000268D154C3680133C360002010BD0420E6
:10708800FCE78268C3689A420AD082688388134002
:107098000268D35C0B7083680133836000207047FB
:1070A80005207047094A537891780133DBB2994239
:1070B80008BF0023117899421FBF03705078182326
:1070C80003FB002014BF0430002070472C50002020
:1070D80073B5054602A8002400F8014D0E4600F0DD
:1070E80095FB0DF10600FFF7DDFF90B106700A4B26
:1070F8009DF8062045605A709DF8070000F0AAFB2D
:1071080024B9064B4FF48012C3F80021204602B080
:1071180070BD0424F0E700BF2C50002000E100E01F
:10712800024B4FF43C6043F001031847D0C70200FC
:1071380038B50C4B0C4C4FF40032C3F880200125B5
:107148004FF48033C4F84833C4F808336560FFF758
:10715800E7FF064BA56000241C60FFF7E1FF044B26
:107168001C7038BD00E100E00010014048510020CB
:1071780039510020F8B51F4B1F491B680025C1F87D
:107188004051C1F84451C1F84851C1F84C51C1F8B7
:107198000051C1F804514BB3D1F8044517490968A7
:1071A800641A24F07F442F461A68A24209D8A41A08
:1071B80015441A7CDE691AB11F74D3E9052090477B
:1071C800AEB90F4B0F4A197813788B4205D10133AA
:1071D800DBB2022B08BF0023137012780A4B43F866
:1071E80022500A4B4FF48012C3F80021F8BD3346F1
:1071F800DAE700BF4C510020001001404851002040
:1072080044510020455100203C51002000E100E09D
:107218002DE9F74F9E4A9F49137809789E4D994268
:107228003CD00133DBB2022B08BF002313709B490B
:1072380012789B4B0F6853F822003B1823F07F43CA
:1072480000220B602B6816461446944613B942B1C7
:107258002B6006E0196881420ED902B12B60091A29
:1072680019604FF001082B68DFF83CA20093002753
:10727800BEB9DFF83CB260E0401A0C44D968C3F8E4
:1072880000C0D3F81CE031B13A1922F07F42C3E9BB
:107298000121DE611E4601227346D7E70026B0466B
:1072A800E1E73446F6697D4A63681268DFF804C28C
:1072B800A068991A21F07F41614500F2A580014438
:1072C8002160012222742A680023C4E90133E361A2
:1072D800002A40F0A2802C60CAE75A1C9BF80210D2
:1072E800D2B291428BF8002004BF00228BF8002014
:1072F800182202FB03B32A6819799C68022974D002
:1073080003297ED0012918D1217CB1B9DA686260DD
:107318001A69A2605A699B69A361624BE2601B7893
:10732800002BC0D06160BEE79C4200F09380994674
:10733800DB69002BF8D1002323749BF800309BF8FD
:1073480001209A42C9D12B682FB9009A934202D1E1
:10735800B8F1000F43D0002B79D0D3F800A0524DDC
:107368004E4BD5F804751C68DFF84C813E1B98F825
:10737800003026F07F4603369BB94FF48033C5F8BA
:107388004433C5F80433494B4FF400324FF0010938
:10739800C3F880211A60C5F80090FFF7C1FE88F88D
:1073A8000090B2452CBF5444A41924F07F44C5F87A
:1073B8004045D5F80435DB1B23F07F43E41B03333A
:1073C80024F07F44A3420AD9D5F80435C5F84035DE
:1073D800FFF7A6FE354B4FF40032C3F80021314BBE
:1073E80000221A7003B0BDE8F08F13469146A0E75B
:1073F8001174D2690123002AFAD1002B9DD02A608A
:107408009BE700231946F6E7D31A23F07F4383420C
:1074180034BFC31A0023236053E7216813689942D5
:1074280013D8591A1160E26155E7091AD8691A4642
:1074380038B1034618688842F7D3401A18601846CE
:1074480013462160E061DC6112E71346F2E7FFF7BB
:107458006FFEC4E74C450DD1D3692B6053B90F4873
:1074680001920121CAF8081003600E4B1970FFF74A
:1074780057FE019AE1692368C9F81C1011B1086820
:1074880003440B602B689A4218BF012753E700BFDB
:1074980044510020455100204C5100204851002003
:1074A8003C510020385100200010014000E100E06C
:1074B8002C500020FEFF7F003951002008B5FFF74F
:1074C80037FE104B00200B2218809A700E4B186064
:1074D8000E4B18700E4B18700E4B4FF48012C021D3
:1074E800C3F8802183F814131A6002F18042A2F5D0
:1074F8006F22C2F8080583F81113074BD2F8042548
:107508001A6008BD2C5000204C5100204451002026
:107518004551002000E100E048510020074B9B78CE
:107528004BB132B128B10368187C20B959745A613B
:107538007047072070470820704700BF2C50002074
:107548002DE9F7431D4FBB7805460E4690469BB381
:1075580090B304292ED9436973B3437C02A800244D
:10756800012B00F8014D0CBF8946A14600F04EF9E9
:107578000DF10600FFF796FDD0B101230370104B03
:107588004560D3F80435C0E90498C0E902369DF88F
:1075980006307B709DF8070000F05CF924B9094BB0
:1075A8004FF48012C3F80021204603B0BDE8F083F1
:1075B8000424EFE70724F7E70824F5E72C50002018
:1075C8000010014000E100E0064A92783AB130B17B
:1075D800426922B1002202740221FFF779BD082016
:1075E800704700BF2C5000200648074A0378074917
:1075F800D35C012213B1043001F0ACBE0C3001F0B1
:1076080095BC00BFC8490020B45100207851002023
:107618000648074A03780749D35C012213B10430AE
:1076280001F048BE0C3001F02BBC00BFC849002057
:10763800B45100207951002037B50578012D04D0C8
:1076480035D3022D28D003B030BD43681F4C1978BC
:107658002046FFF704FD78B11D4B01908DF80050CE
:107668001B6868469847A168E368A2885B1A9A4233
:107678000ED3FFF7B9FFE6E7A268E3689A42F2D0B3
:1076880002AB134A03F8080D126818469047EAE758
:10769800104B01221A70D6E7C36801938DF8005089
:1076A800FFF7A2FF0A4B1B6868469847CBE70A49D1
:1076B8000A48FFF7E6FC10B9FFF7AAFFC3E702A8DC
:1076C800032300F8083D024B1B68EEE754510020E5
:1076D8005051002064510020795100206851002049
:1076E800F0B51F46234B89B006461A600C460029A0
:1076F8003DD08A8820480968FFF7A2FC002834D1C9
:10770800A289A1681D48FFF79BFC00282DD11C4DBC
:107718000FCD6C460FC495E80F0084E80F0073691D
:107728000693337C174A18488DF81C70003318BF2D
:1077380001238DF81430737C002B14BF0E23002313
:107748008DF81530F3680293B36803933368019397
:1077580069467368009300F019FF30B90B4B187035
:107768003368013301D0FFF73FFF09B0F0BD0720B0
:10777800FBE700BF50510020545100206851002001
:10778800D8C7020041760200C84900206451002091
:1077980070B5084C014608482678FFF772FC054684
:1077A80036B100232370FFF71FFF08B1FFF702FC73
:1077B800284670BD645100205451002010B5014680
:1077C8000E48FFF74CFC0446A8B90D480D4A03784B
:1077D800D35C63B1043001F0B1FD60B90A490748D0
:1077E800FFF74FFC38B9BDE81040FFF711BF0C3068
:1077F80001F090FBF1E7204610BD00BF6851002062
:10780800C8490020B45100207951002070B5EFF329
:10781800108672B60C4A946801239CB993600B4B8E
:107828000B4DD3F8801029401160C3F88050D3F86D
:10783800841051604FF0FF32C3F88420047006B9F9
:1078480062B670BD0370FAE77C51002000E100E0E9
:10785800FC06FFBD084B9A6810B55AB150B9EFF352
:10786800108172B6054A1C6814605C6854609860A0
:1078780001B962B610BD00BF7C51002000E100E0F4
:1078880001F01F024B090121914000EB830000F039
:107898001DB801F01F0301229A404B0900EB830039
:1078A800D14300F029B84B0901F01F0150F823001B
:1078B800C84000F00100704750E8002F0B4640E830
:1078C800003C9CF0000FF7D11046704750E8003F8D
:1078D80043EA010240E8002C9CF0000FF6D1104664
:1078E800704750E8002F02EA010340E8003C9CF092
:1078F800000FF6D11046704750E8003F03EA010236
:1079080040E8002C9CF0000FF6D11046704750E874
:10791800003F03EB010240E8002C9CF0000FF6D179
:107928001046704750E8003FA3EB010240E8002CE6
:107938009CF0000FF6D1104670470121FFF7C6BF33
:107948000021FFF7CEBF10B590B1D0E9012301683F
:107958009B1ADBB20A60013BDBB2FF2B026802D143
:107968000020107110BD11684C1C14600B70F2E7F8
:107978000E20F7E737B5054602A8002400F8014DA8
:10798800FFF744FF2A686B68116899420ED9481EB0
:10799800106011F8014CEB68298A01FB0434AB68CC
:1079A80011791B1ADBB2994238BF13719DF8070091
:1079B800FFF750FF204603B030BD37B5054602A893
:1079C800002300F8013D0C46FFF720FF2A681368E2
:1079D800591C1160E968641A298AB4FBF1F41C7017
:1079E8009DF80700FFF736FF03B030BD826810B579
:1079F80004462AB143690168006998470023A360D7
:107A080010BD0EB403B5039929B102AA04AB42F81C
:107A1800043D00F073F802B05DF804EB03B0704762
:107A28000A2938B504460D4602D10D21FFF7F8FFA3
:107A3800A3682268591CA160D554D4E901329A423E
:107A480004D32046BDE83840FFF7D0BF38BD00005A
:107A58002DE9F84F9946DDE90A43174682468846DC
:107A68000A460126BA420FD24E4538BF4E4613F099
:107A7800010B01D164B900240125B9F1010F1AD90C
:107A880009F1FF397D43F8E7B2FBF7F20136E9E780
:107A98009B070ED5B9F1000F0CBF30252025A64253
:107AA800EAD2013C29465046FFF7BAFF002CF6D12E
:107AB800E1E72025F3E7B8FBF5F39F42E2D9DFF8C9
:107AC8003890B8FBF5F3504619F8031005FB1388F6
:107AD800FFF7A6FFB5FBF7F5002DF2D1BBF1000FBC
:107AE80002D00CB1A64201D3BDE8F88F2021504640
:107AF800013CFFF795FFF4E7F8C702002DE9F74FBF
:107B0800054690460E46002900F03A8116F8011BFA
:107B1800002958D0252940F0D180002702E047F0FD
:107B280001071646324612F8013B2D2BF7D0302BB1
:107B380004D02B2B05D147F00407F2E747F00207E2
:107B4800EFE700242A2B06F101021BD1D8F80030F8
:107B5800191D1B68C8F800101C44164633782E2BD4
:107B68001CD101364FF0000A314611F8012BA2F161
:107B78003000092814D80A2303FB0A23A3F1300A8A
:107B88000E46F1E712F8013CA3F130010929E5D8C6
:107B98000A2101FB0434303C1646D3E74FF0000AB3
:107BA800324612F8011B01F0FB0068281646F8D08F
:107BB800692916D054D8582970D00ED825297DD0D7
:107BC8003378002BA2D12B7B002B00F0D9802846DC
:107BD80003B0BDE8F04FFFF709BF632968D06429F7
:107BE800EED1D8F80020D2F80090111D89EAE97288
:107BF800C8F80010A2EBE9724FF0010B092A61DC0A
:107C0800D34538BFD3462CB1B9F1000F01DB790752
:107C180000D5013CBA0702D5BAF1000F04D0FB0722
:107C280002D4002C54D10024B9F1000F58DAC9F15C
:107C380000092D212846FFF7F3FE07F00302022A68
:107C480005D1BAF1000F02D1002C4DD10024CDE9A5
:107C5800004753460A2249462846FFF7F9FEAFE790
:107C6800732954D016D87029AAD1D8F800301A1D13
:107C7800C8F80020302128461C68FFF7D1FE78217B
:107C88002846FFF7CDFE00220823CDE90032214621
:107C98001022E1E775292FD0782991D1D8F8001062
:107CA8000A1DC8F80020CDE90047534610222CE0F1
:107CB800D8F800301A1D1978C8F800202846FFF7B0
:107CC800AFFE7DE70A230BF1010B92FBF3F295E778
:107CD800A345A9D220212846013CFFF7A1FEA0E731
:107CE8007807AAD52B21A5E7A345B0D2302128468D
:107CF800013CFFF795FEA7E7D8F80010CDE900474B
:107D08000A1DC8F8002053460A220968A4E7D8F8D3
:107D180000301A1DC8F80020F907D3F8009012D5D2
:107D28004F46A7EB090B17F8011B41B9A345BFF450
:107D380047AF20212846013CFFF772FEF6E72846A8
:107D4800FFF76EFEEDE7B9F1000F17D0484604F0D3
:107D58005BF80746BC4200D954B909F1FF3919F854
:107D6800011F00293FF42CAF2846FFF759FEF6E71C
:107D780020212846013CFFF753FEEBE74F46E9E791
:107D880003B0BDE8F08F2DE9F047B0F806904479CC
:107D9800D2F800A09DF8208009FB04F4043C0646B4
:107DA8000AEB0300A0420F4688BFA4EB030A191D83
:107DB800C2F800A0B1FBF9F509FB15114DB9A9EB03
:107DC8000104544528BF5446BAF1000F04D1BDE858
:107DD800F0873668013DF1E704317B1970182246B7
:107DE800B8F1000F0ED001461846AAEB040A03F0BA
:107DF8008DFFD145254436684C464FF0000128BF19
:107E08005446E1E71946F0E7FFF79DBDF8B5467916
:107E18000146721E0546002393422D6803D30024B1
:107E2800A64202D8F8BD0133F6E70F682846FFF7E7
:107E3800C4FD01343946F3E72DE9F843068ACD1C21
:107E48000746FFF797FD043E35440446B5FBF6F5B3
:107E5800F0B14FF48073EDB28380C680013D0760B6
:107E680081464FF00008A84512D23846FFF782FD38
:107E7800064648B163790133637108F10108C9F80E
:107E8800000007608146EEE72046FFF7BFFF344653
:107E98002046BDE8F88301210430FFF738BD10B54E
:107EA800012104460430FFF73DFD10F0FF0F04D117
:107EB8002046BDE81040FFF7A9BF10BD1FB504ACB0
:107EC80044F8042D002200922246FFF75CFF04B01C
:107ED80010BD1FB504AC44F8042D012200922246BF
:107EE800FFF751FF04B010BD41DF7047064B10B5D6
:107EF80000241C70054B1C60BFF35F8F04490548C4
:107F080000F039F8204610BD90510020945100200F
:107F180008C802008851002007B502A8002300F80D
:107F2800013DFFF773FCF1EE103A23F09F03E1EEF9
:107F3800103ABFF35F8F0A4B4022C3F884219DF8A3
:107F48000700FFF787FC03F02BFC20B1FFF7CCFFFD
:107F580003B05DF804FB20BF40BF20BFF8E700BFB7
:107F680000E100E0836800225A609A60C3E90422B5
:107F7800DA601A6070470B684A684360934208BF2A
:107F88000023016008BF43607047436843B102683B
:107F9800916852680B449342436004BF00234360D6
:107FA800704700000D4930B5A1F594720225914241
:107FB80001D800200EE08B1ADB1093FBF5F302EBDF
:107FC800C30452F83330834205D802D204F10802C0
:107FD800EDE7606830BD2146E9E700BF58C90200F7
:107FE80008B5FFF7DFFF024B002808BF184608BD99
:107FF8001DC8020010B50446C0B2FFF7DFFB2046DB
:1080080010BD00000C4B1B78062B10D10B4B1B68C6
:108018001A070CD10A4B186800F0F003302B08D06F
:1080280000F0E000A0F1400358425841704700209A
:1080380070470120704700BFE00F00F0E40F00F028
:10804800E80F00F0094B1B78062B0CD1084B1B6876
:108058001A0708D1074B186800F0F000A0F13003A8
:108068005842584170470020704700BFE00F00F0A9
:10807800E40F00F0E80F00F008B5FFF7C3FF28B1E0
:108088007D4B7E4A1B68C3F304231360FFF7DAFFB6
:1080980010B17B4B7B4A1A60FFF7B4FF28B17A4BCB
:1080A8007A4A1B68C3F342331360FFF7CBFF20B152
:1080B800774AD36823F08073D360FFF7A3FF40B1FA
:1080C8004FF080430022C3F80C21C3F81021C3F8F5
:1080D8003825FFF7B7FF10B16E4B03221A60FFF780
:1080E800B1FF40B16C4B05221A6001229A67002249
:1080F8009A603F225A60694B1B78062B50D1684B17
:108108001B6819074CD1674B1B6803F0F003502B11
:1081180046D14FF08052644BD2F80414C3F82015AE
:10812800D2F80814C3F82415D2F80C14C3F828158B
:10813800D2F81014C3F82C15D2F81414C3F830155B
:10814800D2F81814C3F83415D2F81C14C3F8401523
:10815800D2F82014C3F84415D2F82414C3F84815EB
:10816800D2F82814C3F84C15D2F82C14C3F85015BB
:10817800D2F83014C3F85415D2F83414C3F8601583
:10818800D2F83814C3F86415D2F83C14C3F868154B
:10819800D2F84014C3F86C15D2F84424C3F87025FB
:1081A800FFF730FF28B1414B414A1B6803F04F03EA
:1081B8001360FFF727FF48B14FF08043D3F800243E
:1081C800D20744BF6FF00102C3F80024394B1B6883
:1081D800062B08D1384B1B68062B01BF374A13689A
:1081E80043F480631360364AD2F8883043F470034E
:1081F800C2F88830BFF34F8FBFF36F8F4FF0102353
:10820800D3F80022002A03DBD3F80432002B2FDA3C
:108218002C4B0122C3F80425D3F80024002AFBD0F4
:108228004FF010221521C2F80012D3F80024002ABA
:10823800FBD04FF010231522C3F80422214B1A4615
:10824800D3F800140029FBD00021C3F80415D2F894
:108258000034002BFBD0BFF34F8F19491A4BCA6863
:1082680002F4E0621343CB60BFF34F8F00BFFDE71A
:10827800164B174A1A6008BD240300104035014008
:1082880074C007400DF0ADBA440200103C05004030
:10829800F0ED00E0A005004010560040E00F00F0AF
:1082A800E40F00F0E80F00F000C000405802001092
:1082B800E40E004030010010340100103C1700406B
:1082C80000ED00E000E001400400FA05DC49002070
:1082D8000090D003054A4FF0A043105CD3F8043552
:1082E80023FA00F0C04300F00100704716CD0200E9
:1082F800044B1A5C012393404FF0A042C2F80C359E
:10830800704700BF16CD0200044B1A5C012393404E
:108318004FF0A042C2F80835704700BF16CD0200E2
:1083280008B50020FFF7F0FF0120FFF7EDFF02205E
:10833800FFF7EAFF0320BDE80840FFF7E5BF08B5EF
:108348000020FFF7D5FF0120FFF7D2FF0220FFF73B
:10835800CFFF0320BDE80840FFF7CABF074A4FF028
:10836800A041105CD1F804350122824022EA0300C2
:108378001340C1F80805C1F80C35704716CD020046
:10838800054A4FF0A043105CD3F8103523FA00F0EB
:10839800C04300F00100704712CD02000D2809D03B
:1083A8000E2809D00F2809D010280CBF03204FF041
:1083B800FF30704700207047012070470220704747
:1083C800014B185C704700BF12CD0200C20708B508
:1083D80001460CD54FF0A0430322C3F84427C3F845
:1083E8004827C3F84C27C3F85027FFF799FF8B0796
:1083F8000AD54FF0A0430C22C3F83427C3F8382716
:10840800C3F83C27C3F8402708BD000038B5084C1E
:1084180004F108030546002818BF1C4623682BB141
:108428001A6822605B6828469847F7E738BD00BF9E
:10843800A051002020B9054B01225A70FFF7E6BF72
:10844800012802D1014A9070F8E77047985100203E
:1084580020B9034B01225A70FFF7D8BF704700BFFD
:108468009851002038B50B4C237883B90A486360CB
:10847800A3602361E36000F0C7F8054603F090F9B4
:1084880008B900F0CFF801232370284638BD8525A8
:10849800FBE700BF985100203D84020037B502A8D1
:1084A8000023094C00F8013DFFF7B0F9E368013BF0
:1084B800E360E56815B900F0C7F8A5709DF80700F6
:1084C800FFF7C8F903B030BD98510020012813B553
:1084D80009D003D303281BD002B010BD0F4B0122D3
:1084E800C3F88020F8E702A800230D4C00F8013DEE
:1084F800FFF78CF923780BB9FFF7B4FFE3689DF811
:1085080007000133E3600123A370FFF7A3F9E3E752
:1085180000F088F8FFF7C2FFDEE700BF00E100E0E7
:10852800985100201FB503788DF8003043680193F7
:1085380083688DF80830C3680393054A054B68467D
:1085480053F8213052F82110984705B05DF804FB24
:10855800AC510020B05100201FB503788DF80030D1
:108568004368019383688DF80830C3680393054A0C
:10857800054B684653F8213052F82110984705B04A
:108588005DF804FBAC510020B0510020F0B5194B48
:10859800067891F81DE043F82620174B94460A699F
:1085A80043F82620154B03F806E00C4607460FCC87
:1085B80089B06D460FC594E80F0085E80F00049652
:1085C800BEF1000F0AD0BCF1000F0D4A694608BF82
:1085D8000022381D00F0ACFD09B0F0BDBCF1000F61
:1085E800084A694608BF002207F10C0000F08EFB1C
:1085F800F2E700BFB0510020AC510020B451002078
:108608002D85020061850200054A13792BB90121E5
:10861800106011715371184670478520704700BF6C
:10862800B8510020074B1A68D2075FBFC02283F8F1
:10863800002301221A604FF080430122C3F8182555
:10864800704700BF00E100E0044B01221A604FF0C0
:108658008042D2F81834DB03FBD470470C0000408A
:10866800154B07B51A687AB100221A601B68009387
:10867800009B4FF080430122C3F808230F4B587921
:1086880010B95A711B6898470D4B1A6882B10022BD
:108698001A601B680193019B4FF080430222C3F8C4
:1086A8000823064B1B68012003B05DF804EB18474C
:1086B80003B05DF804FB00BF00010040B851002082
:1086C8000401004000F1804000F5C040002382B062
:1086D800036003680193019B02B07047800000F1BA
:1086E800A040D0F8003723F44033C0F80037D0F862
:1086F800003743EA0141C0F800177047054B4FF0B7
:10870800FF32072843F8202084BF1B1883F848202D
:10871800704700BFC051002010B5164C94F858306F
:1087280033BBFF21E2180133202B82F83010F9D136
:108738000021C8B2FFF7E2FF01310C29F9D1042268
:1087480000210D4803F00BFB0C4BC02283F80623D5
:1087580040221A604FF4BE70FFF7B4FF084B4FF089
:108768000042C3F80423012384F85830002010BDC8
:108778000820FCE7C05100201452002000E100E06E
:1087880000600040034B93F85800003018BF0120E8
:10879800704700BFC0510020F0B5394D2C189446E1
:1087A80094F93040002C68DA8E78C6F34006002E23
:1087B80015BF0023082308270C27BB4201D104203A
:1087C800F0BD55F8232001324FEA830441D12F1818
:1087D80045F823C087F8303016B9EA1882F84800FF
:1087E8008A78560716D4D70735D5820002F1A042F9
:1087F800D2F8006726F00206C2F80067214FC608C3
:1088080000F0070C012202FA0CF217F806C042EA3F
:108818000C02BA558A780E7812F0020224D004F1BC
:10882800804303F5C0430002D3F8102522F44732F1
:1088380022F44072C3F810253604D3F8102500F44A
:10884800F85006F4403630431043C3F810050020B2
:10885800B6E70133B1E74E7800F5E0724FF0A04774
:10886800B60047F82260C9E7083B2B4493F850004C
:1088780040EA861683F85060E9E70820A0E700BFC1
:10888800C05100201452002038B5204C251895F905
:108898003020072A18DD224492F848309B09032B20
:1088A8000DD14FF0A043D3F81035C34013F0010F9A
:1088B8000CBF02210321BDE83840FFF70FBF012B91
:1088C80014BF03210221F6E7D3B2072B1CD893006B
:1088D80003F1804303F5C043D3F8100540F00100CD
:1088E800C3F8100502F14000800080B2FFF7EAFEED
:1088F80051B195F9303054F823302BB1012303FAE4
:1089080002F2034BC3F8042338BD00BFC051002056
:10891800006000400E4B034493F93020072A02DD23
:108928000021FFF7DBBED3B2072B10D8930003F169
:10893800804303F5C043D3F8101521F00101C3F8B3
:108948001015012303FA02F2024BC3F808237047FB
:10895800C0510020006000404FF0A043D3F810350C
:1089680023FA00F000F00100704700002DE9FF47EE
:108978000024584A584E594D019401211368A2F514
:10898800C040012B80B206D1D6F804330B4202D086
:10899800FFF798FE0C430432AA424FEA4101EDD199
:1089A8004F4B1B68012B0AD14FF4BE70FFF78AFEAC
:1089B8004FF0A04344F00044D3F81035019314F06D
:1089C800FF0F1AD0474F00250126344210D0AB00C4
:1089D80003F1804303F5C043D3F81005D3F810150D
:1089E80057F82530C0F30420C1F3014103B198477B
:1089F8000135082D4FEA4606E7D1002C66DA002239
:108A08004FF0FF33CDE90223DFF8D8900127002685
:108A180034464FF0A04809EB060393F95020531C45
:108A280045D0D2B222F0C005E90804A8084402F0F3
:108A3800070310F804CC07FA03F31CEA030F36D037
:108A480009EB050C92099CF930C059F82CA0BAF131
:108A5800000F0AD1032A2AD10DF1080E1EF801C011
:108A68004CEA030C0EF801C001E0032AF4D005F526
:108A7800E07110F80C0C58F821101842C1F30141AC
:108A880005D0022913D1032A0BD1114604E003298A
:108A98000DD1032A05D102212846FFF71FFE013414
:108AA800E4B2BAF1000F02D011462846D047013689
:108AB800042EB0D154B14FF0A043019AD3F8103529
:108AC800934203D00193029B0393A0E704B0BDE84F
:108AD800F08700BF00610040006000402061004056
:108AE8007C610040C0510020014B1B68184700BF43
:108AF8001C5200200D4B984237B50D4610D102A8E4
:108B0800002300F8013DFEF781FE094B1C7914B9DA
:108B180001221D601A719DF80700FEF79BFE14B92B
:108B2800002003B030BD1120FBE700BF002000404B
:108B38001C5200200023435082B043580193019BEC
:108B480002B070470A4610B54FF48E71FFF7F2FF76
:108B5800136A9168C95C136A01331362C0F81C1563
:108B680010BD024608B54FF492710068FFF7E2FFA6
:108B78004FF484711068FFF7DDFF136801221A6053
:108B880008BD8B690A4610B54FF4847123B9FFF705
:108B9800D1FFD0F8183510BDFFF7CCFF536AD16864
:108BA800D0F81805C854536A01335362F3E700003C
:108BB8001FB501238DF80030044BCDE90110D3E92E
:108BC80000126846904705B05DF804FB2452002067
:108BD80030B54C4AD2F8043313F4007F85B01546FB
:108BE8004FD0D2F82431002B4BD04FF4927110465D
:108BF800FFF7A0FF4FF40173C2F80833424B93F814
:108C0800291009B9012151603E4902228DF800203E
:108C1800D1F88024C1F8802403929A690292DA6814
:108C280001920022C3E906226846D3E90012904760
:108C38003448D0F81C315BB133490A6A4B699A420F
:108C48000A464BD291F82830002B47D1FFF77AFF1C
:108C58002C4AD2F8443193B14FF4A2711046FFF771
:108C680069FF294B93F8291009B1012111609A690C
:108C78002AB100229A61586AD968FFF799FF05B0AE
:108C880030BDD5F804335B07D2D5D5F80831002BB1
:108C9800CED01D4C1B482146FFF773FF636AA269BB
:108CA8009A422346C4D1E269E1684AB12369E36084
:108CB8000023606AA261E3616362FFF779FFB7E7A7
:108CC80094F829200AB901226A600E4A4FF401700B
:108CD800C2F8080300229A61586AEEE74FF48E71D1
:108CE8000848FFF727FF51690029B1D000230291F6
:108CF80091688DF80030019153616846D2E90013FC
:108D08009847A5E700200040245200202DE9F843A9
:108D1800564F047991462C2202FB0472064692F8BB
:108D28002A200D46002A40F09A8051490068FFF732
:108D3800E1FE8046002840F0958029683368481C89
:108D48000BD04FF0A04001228A40C0F8082501F559
:108D5800E0724FF0030C40F822C06868421C1FBF45
:108D680000F5E0724FF0A04C4FF0000E4CF822E0F6
:108D7800AA6995F814C0C3F824256A7DBCF1010FCF
:108D88004CEA0202C3F86C25C3F81405C3F80C15A5
:108D98001DD1AA68511C1FBF02F5E0714FF0A04019
:108DA8004FF0000C40F821C0E968481C0BD04FF088
:108DB800A04C01208840CCF8080501F5E0704FF080
:108DC800030E4CF820E0C3F80815C3F810252C232F
:108DD8006343FA18C2F804902A69FA50B9F1000FEF
:108DE8002AD04FF48E7130682D7FFFF7A3FE3068CC
:108DF8004FF4A271FFF79EFE32681E4BC2F804338F
:108E0800120B51B20029A8BF01F160404FEA451387
:108E1800BABF194802F00F0500F56140DBB2B4BFD4
:108E2800435580F8003302F01F02012303FA02F2CF
:108E38004909124B43F8212033680422C3F800255E
:108E48002C2303FB04730022C3E9062283F829209C
:108E58005A61012283F82A204046BDE8F8834FF082
:108E68000808F9E74FF01108F6E700BF2452002080
:108E7800D98B02008000020014ED00E000E100E060
:108E88002DE9F843224F06794FF02C0909FB0674A7
:108E980080466569002D37D16261A16025624FF473
:108EA8008E71006884F82850FFF744FED8F8000057
:108EB800012383602146FFF745FE6368A1462BBB6B
:108EC800D8F80050226A63699A4212D3D8F8003061
:108ED800D3F81C21002AFBD00122DA6000202C23C1
:108EE80003FB067600237361BDE8F88394F8283005
:108EF80043B9D5F81C31002BF8D049462846FFF76E
:108F080021FEDFE70F20EAE71120EDE72846EBE72F
:108F1800245200200379044A2C2101FB03235869B9
:108F2800003018BF01207047245200202DE9F84373
:108F3800384E05792C2303FB056307465C6824B18A
:108F480003684FF40170C3F808032C2303FB05637F
:108F5800986950B1D86900283ED024B13B684FF4D5
:108F68000172C3F80423112034E09A61D960586271
:108F7800D8612C2303FB056393F829301BB910B97A
:108F88003846FFF7EEFD4FF02C0909FB05683868F5
:108F9800D8F80430002B34D14FF4A271FFF7CAFD82
:108FA800C1463868D0F82431D0F80821D0F84441B7
:108FB800B2B90CB9002BF4D02C2202FB05650022B3
:108FC800AA611BBB24BB95F829103B680122B1B1EB
:108FD8001A600020BDE8F8831961DA610120C8E74A
:108FE800002BE9D1002CE7D14946FFF7CAFDD8F894
:108FF8002430D8F818209A42D3D82346DCE75A60A0
:10900800E7E74FF40173C0F80433E2E70320E1E730
:109018000F20DFE7245200200023435082B043583A
:109028000193019B02B070471FB501238DF80030F2
:10903800044BCDE90110D3E900126846904705B00A
:109048005DF804FB505200207FB5374AD2F82461FE
:10905800002E48D010464FF49271FFF7DDFF02232F
:109068008DF80030D2F88034C2F880340393D2F8F7
:109078003C3502932D4BDA6801920022C3E906229F
:109088006846D3E900129047274AD2F844317BB1A9
:109098004FF4A2711046FFF7BFFF244B996939B10D
:1090A8000021C3E90611D968D2F83C05FFF7BCFFD7
:1090B8001D4AD2F82031A3B14FF490711046FFF742
:1090C800ABFF1A4B596961B1D2F84C1502910022D5
:1090D80099688DF8002001915A616846D3E9001219
:1090E800904704B070BDD2F81031002BCCD04FF4AB
:1090F80088711046FFF790FF0C4BD2F83C05996930
:109108008842C1D1DC69D96864B1D2F8005225F02F
:109118002005C2F800521A699C61DA60DE61FFF727
:1091280083FFB1E79C61FAE700200040505200201D
:109138002DE9F8435A4F06799146242202FB06721C
:10914800044692F820200D46002A40F0A280554996
:109158000068FFF7CFFC8046002840F09D80296812
:109168002368481C0BD04FF0A04001228A40C0F869
:10917800082501F5E0724FF0030C40F822C068683A
:10918800421C1FBF00F5E0724FF0A04C4FF0000EDC
:109198004CF822E0AA6995F814C0C3F824256A7D22
:1091A800BCF1010F4CEA0202C3F86C25C3F80C1598
:1091B800C3F814051DD1AA68511C1FBF02F5E07140
:1091C8004FF0A0404FF0000C40F821C0E968481C5F
:1091D8000BD04FF0A04C01208840CCF8080501F5D1
:1091E800E0704FF0030E4CF820E0C3F80815C3F800
:1091F800102524237343FA18C2F804902A69FA50F8
:10920800B9F1000F34D04FF4887120682D7FFFF733
:1092180003FF4FF490712068FFF7FEFE4FF4927140
:109228002068FFF7F9FE20684FF4A271FFF7F4FEFB
:1092380022681D4BC2F80433120B51B20029A8BF93
:1092480001F160404FEA4513BABF184802F00F0514
:1092580000F56140DBB2B4BF435580F8003302F03B
:109268001F02012303FA02F24909114B43F8212096
:1092780023680822C3F80025242303FB0673002271
:10928800C3E906225A61012283F820204046BDE83E
:10929800F8834FF00808F9E74FF01108F6E700BF28
:1092A80050520020519002001003020014ED00E01B
:1092B80000E100E001F06043B3F1005F2DE9F04107
:1092C800074632D11C4B0679242505FB06359846FE
:1092D8006C6964BB6A61A96000684FF49071FFF71C
:1092E8009BFE4FF4AC713868FFF796FE3B686A69DD
:1092F800A968C3F84415C3F8482501229A606A682A
:10930800BAB9D3F82011D3F8582149B9002AF8D0AE
:109318000F20242303FB068600237361BDE8F08138
:10932800002A14BF0F200020F3E71020F6E71120D1
:10933800F4E72046F2E700BF505200200379044AC0
:10934800242101FB03235869003018BF012070470E
:1093580050520020F8B501F06043B3F1005F0446B5
:109368000F465ED10379304D242101FB0351486833
:1093780020B121684FF40476C1F80863242101FB69
:1093880003539E6956B1D969002939D020B12368A1
:109398004FF40472C3F80423112030E09A61DF60AF
:1093A800DE614FF488712068FFF736FE4FF4A27132
:1093B8002068FFF731FE2368C3F83475C3F83825F1
:1093C80016BB01221A602279242101FB0251496847
:1093D80009BBD3F81041D3F84411D3F8240114B9C8
:1093E80009B90028F5D0242303FB0255002398422D
:1093F80014BF032018469942AB6118BF0F20F8BD6F
:109408001F61DA610126CCE7D3F8002242F020027E
:10941800C3F80022D7E74FF40472C3F804230020EE
:10942800EDE71020EBE700BF505200200220FEF7C6
:1094380095BF00002DE9F04781460D46FEF7AEFFC7
:109448000328044604D8012D04D024D3022D2FD09C
:10945800BDE8F087194D47003A18A918AE5C4A785C
:1094680052B1DFF86880164842464FF40041FEF7D3
:1094780067F808B988F800903B192B449A78114B83
:109488001A55002EE4D0104B1B68002BE0D0304654
:10949800BDE8F04718470A48FEF796F8074B04EB73
:1094A800440213449E78074B1B5DB342D0D1E8E7D2
:1094B800024B00EB40041C446678E2E7D8520020D7
:1094C80098520020F1520020EC52002074520020E3
:1094D80002210078FFF7AEBF08B5094B1B7853B1DE
:1094E8000020FEF711FF0120FEF70EFF0320BDE864
:1094F8000840FEF709BFBDE80840FEF711BF00BFEE
:1095080075520020F8B57B4C237805461BB1002323
:109518002370FFF7E1FF172D00F28880DFE805F0E0
:109528000C17174354657680888D888D959A9A9A7A
:109538009A9AC4C9D1D9E4E4FFF7CEFF6E48FEF782
:1095480043F86E4B002204461A702046F8BD0020EE
:10955800FEF7C0FEF8B10020FEF7D6FE022D0CBFC4
:109568004FF4E1614FF47A61644B1D704FF4004091
:109578004FF4FA740025E0FB01454FF47A7200239A
:109588002046294602F096FA002201465A48BDE8CC
:10959800F840FDF7D5BFFEF7ABFE022D0CBFC82182
:1095A8004FF4C871E0E70020FEF794FE40B10020B8
:1095B800FEF7AAFE4FF44871504B03221A70D5E704
:1095C800FEF796FEC821F7E70020FEF783FE38B1C4
:1095D8000020FEF799FE4FF47A61484B0422EDE72C
:1095E800FEF786FE4FF4C871F7E70020FEF772FE1B
:1095F80048B10020FEF788FE404B05221A7041F65C
:109608009A110022C2E7FEF773FEF5E70020FEF785
:10961800A5FE3A4B06221A70002240F6CD41B5E766
:109628000020FEF765FE354B07221A7000248CE7F0
:1096380001202070FEF792FEEEE701202070FEF771
:109648008DFE00224FF48041A0E7FEF778FE2B4BF9
:109658000C22EAE72A482B4EFDF7B6FFD5F1110593
:1096680004461CD0D8B9012D13D0C8235D434FF44C
:1096780000474FF4FA7000214FF47A720023C7FBB9
:10968800050102F017FA224601461D48FDF758FF6A
:1096980004460220FEF72CFE0123337055E7022012
:1096A800FEF732FE0023F8E7FFF716FF134B1222EE
:1096B800BBE7FFF711FF0020FEF71AFE0F4B13223E
:1096C800B3E7FFF709FF0120FEF712FE0B4B142248
:1096D800ABE7FFF701FF0020FEF70AFE0120FEF7C7
:1096E80007FE064B1522A0E7FEF729FE034B1D7067
:1096F8009CE700BFE8520020B8520020F05200203A
:109708007852002075520020044B1B68DB0703D5F4
:10971800034B1878FFF7F6BE704700BFE4520020ED
:10972800F0520020032801D8FEF72ABE0020704717
:10973800044B1B6813F0010301D0FFF7E3BE184682
:10974800704700BFE452002038B51C4B18601C4B12
:1097580010F00204054619601AD01A4B1A480E2256
:109768001A700F22DA7010229A7111225A7204218B
:1097780040F26662FDF79AFB044648B9FDF7EAFB3A
:10978800044628B90146114A1148FDF7C7FE0446A8
:10979800EB0711D50120FEF719FE6CB921460D4AD9
:1097A8000D48FDF7BBFE044630B90C4A0C480121B0
:1097B800BDE83840FDF7B2BE204638BDE45200206F
:1097C800EC520020D85200203CCD0200D99402006F
:1097D80060CD02001197020064CD020035940200AA
:1097E8005CCD0200032812D8012A0BD1012908D127
:1097F80000F10E02D2B200EB40000C4B1A540020CC
:10980800704700220129F6D009D3022901D0072088
:109818007047064B00EB400018444270EFE7034BDB
:1098280000EB400018448270E9E700BFD8520020DE
:10983800032808B512D8FEF7C3FD800000F1A04048
:10984800D0F8003723F44033C0F80037D0F8003799
:1098580043F44033C0F80037002008BD0620FCE779
:1098680008B5012202210020FFF7BCFF08B1072834
:1098780010D1072202210120FFF7B4FF08B1072801
:1098880008D100210A220846FFF7ACFF10B10728CB
:1098980008BF002008BD00000388102B10B502D0B7
:1098A800112B1ED010BD1A4C2168B1B901220846EF
:1098B800FFF798FF08B1072824D1072202210120C9
:1098C800FFF790FF08B107281CD1042202210020CD
:1098D800FFF788FF08B1072814D1236801332360F4
:1098E800E0E70B4A1368013B1360002BDAD1FFF75E
:1098F800B7FF0028D6D0074B1B68002BD2D0BDE895
:1099080010401847034B1B68002BE6D09847E4E744
:10991800FC520020F852002008B50020FFF788FF0D
:1099280008B1062806D10120FFF782FF10B10628EA
:1099380008BF002008BD00000D4B10B518600C468C
:1099480029B10120FFF7EEFE40B102232370094B35
:109958001B6853B9BDE81040FFF782BFFFF7E2FE6E
:1099680008B10B23F2E72070F1E7002010BD00BF1B
:10997800F8520020FC52002076DF70477ADF7047EB
:109988007CDF70477FDF70478FDF7047B1DF70473C
:1099980033DF7047FDF70EBB08B50020FFF7C8FEA0
:1099A80008B1FDF707FBFFF7B7FF08B1FDF702FBAA
:1099B800FFF7EEFF18B1BDE80840FDF7FBBA08BD98
:1099C8002DE9F04104468CB001A801F055FA23783E
:1099D800012B41D004D3022B3ED00CB0BDE8F0815E
:1099E8001F4C204D20782844FDF7D2FE2378013300
:1099F800DBB21D44237015F8012C0A2A254605D030
:109A08000D2A03D0184A12889A42E6D8012B02D8A8
:109A180000232B70E1E7134FDFF850800026019AEE
:109A2800F3B29A42F4D90CAA02EB43042B78ADF8AE
:109A380002300DF1020234F8283C3946404601F064
:109A4800F5FD082806D01328F0D0052802D008B163
:109A5800FDF7B0FA0136E2E76068FDF7ABFABCE75C
:109A6800F453002000530020E4490020E849002076
:109A780008B50321044800F0AEFE18B1BDE808405F
:109A8800FDF798BA08BD00BF0C5400202DE9F0413D
:109A98000578064645BB154C154BDFF85880E41A87
:109AA800E408240444F00104B28A95420AD33369D5
:109AB800134413F8013C0D2B16D10A20FDF77EFE46
:109AC8001128F9E73369585DFDF778FE074648B174
:109AD8001128F7D0024641462046FCF7ADFF38462C
:109AE800FDF768FA0135DFE7BDE8F08148C60200F6
:109AF80020C60200DDCE020008B503784BB93B2131
:109B08004FF6FF70FFF738FF18B1BDE80840FDF7C2
:109B180051BA08BD4A884FF6FF739A4214D10A8891
:109B280040F677239A420FD18B88084A084809499A
:109B3800033B9BB21380084A801AC00800041A46E7
:109B480040F00300FCF782BF704700BFE4490020E3
:109B580048C60200DBCD020020C60200072808B56F
:109B680013D00A280DD0042813D113214FF6FF7003
:109B7800FFF702FF30F008030BD0BDE80840FDF7FF
:109B880019BABDE80840FFF707BF024800F067FFB1
:109B9800F0E708BD0C54002008B548B103280BD1E4
:109BA8000220FFF7C5FD38B1BDE80840FDF702BA4D
:109BB800BDE80840FFF7F0BE08BDFDF7FBB900009F
:109BC8002DE9F047124B134CDFF84CA0E41AE408D7
:109BD800240406460F4644F001044FF000085FFADB
:109BE80088F9B14501D3BDE8F08717F80900FDF7FA
:109BF800E5FD054648B11128F7D0024651462046F2
:109C0800FCF71AFF2846FDF7D5F908F10108E6E741
:109C180020C6020048C60200DDCE020070B5044628
:109C28009AB001F017F92388212B00F08D8032D8E3
:109C3800112B3ED0132B00F09380102B29D101F06B
:109C480009F94F4BA2884F4905464F48C01AC0082A
:109C5800000440F00300FCF7EFFE4C4842884FF642
:109C6800FF739A4205D1A18801F06EFB08B1FDF798
:109C7800A1F9FDF76FF908B1FDF79CF90120FEF78E
:109C880037FB012D12D10020FEF73EFB0720FFF71E
:109C98004FFD1AB070BD522B6AD0562B01D03B2B0A
:109CA800F7D11321A088FFF767FE54E0FFF7E0FE25
:109CB800ECE701F0CFF8324BA28835490546324827
:109CC800C01AC0080004237A40F00300FCF7BEFE67
:109CD800304AA1881388994220D14FF6FF73138028
:109CE800538836218DF800102BB301218DF801100F
:109CF800117D8DF805301024081DC0B28DF8034081
:109D08001C0A00238DF802008DF804408DF80630F7
:109D18008B4212D369460330FFF752FF002DB8D1AA
:109D28000120FEF7F1FAFDF72BF908B1FDF742F92A
:109D3800FFF79EFEADE70221D8E7D6180DEB030426
:109D48003679E6710133E3E71AA9002321F8683D63
:109D5800A088FFF719FE00289BD0FDF72BF998E79C
:109D680000231A4685214FF6FF70FFF70BFEF2E736
:109D780000231A4619464FF6FF70FFF707FEEAE779
:109D880020C6020080CD020048C602007C56002092
:109D9800A7CD0200F653002008B50849084801F08D
:109DA800B1F908B1FDF706F9F721054801F0BFF947
:109DB80018B1BDE80840FDF7FDB808BD1D9B0200BD
:109DC8006456002000B54FF40041B1B00020FCF704
:109DD80069FC08B1FDF7EEF8FCF79CFB7F4C804B63
:109DE800804E8149E41AE408240444F00304204620
:109DF800FCF71EFE0FCE05AD0FC596E803007B4BA2
:109E08007B4A01934FF4807385E80300CDE903236F
:109E18000293784A072301A905A8FDF761FC08B158
:109E2800FDF7C8F874492046FCF702FEFDF746FB2B
:109E380008B1FDF7BFF871490320FFF785FC08B1A9
:109E4800FDF7B8F805A90020FFF776FD08B1FDF782
:109E5800B1F8FEF74BF808B1FDF7ACF868492046B1
:109E6800FCF7E6FD01F060FC08B1FDF7A3F800235C
:109E780005A90120059301F0E3FC08B1FDF79AF864
:109E880005A801F0ADFD08B1FDF794F85D4920463D
:109E9800FCF7CEFD11235C488DF8043001F0B4FFC7
:109EA800594982B201A8FFF76BFD08B1FDF782F8A6
:109EB8000822002105A801F052FF544A4FF0C87348
:109EC80005A8CDE90523FFF759FD08B1FDF772F89C
:109ED8004F492046FCF7ACFDFFF75EFF4D49204691
:109EE800FCF7A6FD4C4B4D48059305A901F01AFA5D
:109EF80008B1FDF75FF8042200210DEB020001F024
:109F08002EFF474B4748019301A901F01BFB08B1FD
:109F1800FDF750F844492046FCF78AFDAC220021A1
:109F280005A801F01CFF052202238DF81720012245
:109F38003E498DF81430ADF8602000238DF890204C
:109F480040228DF816301991CDE9272305A9384B01
:109F580038482E9300F0C0FB08B1FDF72BF801211B
:109F6800344800F0B6FB34492046FCF761FD1C225A
:109F7800002105A801F0F3FE00234FF42032CDE9BB
:109F88000532ADF822304FF470228DF824302B4B77
:109F980007920A9303222A4B8DF8202005A80B93D9
:109FA80000F07EFE08B1FDF705F826492046FCF7CB
:109FB8003FFD254801F07AFE24492046FCF738FD8C
:109FC800FFF756FD22492046FCF732FDFCF7C4FB9B
:109FD8000028FBD1FDF7A0FFF8E700BF48C6020044
:109FE80020C6020068CD0200F7CD02008856002086
:109FF80088570020C999020001CE0200659B020023
:10A008000BCE020022CE020032CE020010003C002D
:10A0180040CE020051CE02009D9902007C560020DD
:10A02800959A0200E84900205CCE0200E049002031
:10A03800A19B02000C5400206BCE0200019B020081
:10A04800C39B02007DCE02008FCE0200A1CE02008B
:10A05800CACE02000369C1688B429DBF8268D218CC
:10A0680002F1FF3203F1FF3394BF501A581A7047B8
:10A078002DE9F041D0E902670446F61B4068964294
:10A0880088461546384405D901F040FE3D44E56050
:10A09800BDE8F0813246AD1B01F038FE2A4608EBD8
:10A0A8000601606801F032FEF1E72DE9F843C56862
:10A0B8000646894617464FF000083469B368706849
:10A0C800A54228BFE418013C621B5C1BBC4228BFA8
:10A0D8003C46944228BF144649462844224601F08B
:10A0E80015FEB3682544AB4208BF00253F1BA044BA
:10A0F800A144F560E1D14046BDE8F88310B5114CA4
:10A10800114AA2610223C4E90433104BE361A2643B
:10A118004FF400730E4A2362E264002310220D49B3
:10A12800A362E01D6362E362A3656365E36522657C
:10A1380001F048FE0849204601F044FE2023A3719F
:10A1480010BD00BF8858002008CF02001059002019
:10A158000059002011CF020015CF0200F8B5184CA5
:10A16800182300FB033503FB00402544C46A012C77
:10A178000F46164611D003D3022C1BD000240AE048
:10A188002846FFF767FF864205D8324639462846F3
:10A19800FFF76EFF34462046F8BD2846FFF75AFF02
:10A1A8008642344628BF0446224639462846FFF7E9
:10A1B8005FFFF0E72846BDE8F840FFF776BF00BF2D
:10A1C80088580020FFF79ABF6DDF704779DF704726
:10A1D8007DDF704764DF70472DE9F74F0C9CBDF8B1
:10A1E80034B02788002580468A4691462E46B8F81E
:10A1F8000020B2420BDC35B12288013AD21B92B260
:10A20800FF2A39D8DA55002003B0BDE8F08FD8F816
:10A21800042052F82600019000220DF1030101A844
:10A22800FFF7D8FF0028EFD19DF803204A4521D138
:10A238002288002D14BF0020022002EB09010144EE
:10A24800594519DC3DB9013292B2228003F802A0C7
:10A2580022880132228022880DF103011A4401A8C4
:10A26800FFF7B8FF0028CFD121889DF803200A44C2
:10A27800228001250136BAE70C20C5E72DE9F34114
:10A28800089CBDF824501746CDE900450222064631
:10A29800FFF7A2FF48B9102239463046CDE90845F4
:10A2A80002B0BDE8F041FFF797BF02B0BDE8F0810A
:10A2B8002DE9F04F00231688138090F82D3085B0D3
:10A2C80007460D46144653B3082E01D80C2026E144
:10A2D80002A8FFF779FF002840F02181138808229F
:10A2E800CA54238801339BB21B222380CA54208876
:10A2F800013080B2208006220DF10901284401F0C6
:10A3080005FD23889DF8082006339BB212F0FE0253
:10A3180018BF01222380EA54238801332380BB78A5
:10A32800FBB123880433B342D0D802A8FFF74EFF0D
:10A33800002840F0F48023880322EA54238801335C
:10A348009BB219222380EA542388BDF808200133E0
:10A358009BB2E9182380EA54120A4A702388023310
:10A368002380FA789AB12388D91CB142AED8022149
:10A37800E954238801339BB201212380E9542388BF
:10A388000B449BB22380EA5423880B4423807A68C9
:10A39800AAB12388D91CB14298D8022192F9002089
:10A3A800E954238801339BB20A212380E954238886
:10A3B80001339BB22380EA542388013323803B89ED
:10A3C800002B40F0A0803B8A5BB1CDE900462B46CC
:10A3D8000722032107F11000FFF750FF002840F083
:10A3E8009E803B8B5BB1CDE900462B46152214219C
:10A3F80007F11800FFF742FF002840F090803A6A02
:10A40800002A40F08F80D7F82480B8F1000F30D0B0
:10A41800B8F804302188981C8A1C0244B2423FF6DE
:10A4280055AFFE283FF652AF03336B5423880133F0
:10A438009BB2FF222380EA54238801339BB22380F6
:10A44800B8F80020EA54E918120A4A702088023045
:10A4580080B22080B8F804205AB1D8F80810002932
:10A468006AD0284401F052FC2388B8F80420134429
:10A47800238097F82C30002B40F0998038780028FA
:10A488004DD03B88012B57D021888A1CB2423FF619
:10A498001DAF012805D17B7802330B449E42FFF49F
:10A4A80015AF023E761A04A9B6B221F8086DA818AD
:10A4B800FFF78EFE98BB3978BDF80820022900F016
:10A4C800BB807B78934202D3B24240F2B380012929
:10A4D80040F0B4809BB29E42C0F0B080ADF8083026
:10A4E8000821BDF80830FE2B3FF6F0AE2288013374
:10A4F800AB542288013292B22280A9542288134494
:10A50800238000200BE0CDE900462B4606220221DD
:10A5180007F10800FFF7B2FE00283FF454AF05B07A
:10A52800BDE8F08FB4F800C00CF10603B3423FF663
:10A53800CDAE1188052901D80720F0E76FF4486EE1
:10A5480001EB0E039BB24FF27D3E7345F4D953885D
:10A55800052BF1D96FF44860181880B27045EBD913
:10A568004FF6FF70814203D0834201D09942E3D86D
:10A57800052305F80C30238801339BB21221238070
:10A58800E954238801339BB223801188E954E818E1
:10A59800090A4170238802339BB223805288EA5407
:10A5A800E918120A4A702388023323802BE7BB6A12
:10A5B800002BC1D04FF000094FF00C0A4FF0160BDA
:10A5C80097F82C305FFA89F293427FF657AFB96A51
:10A5D8000AFB02F201EB0208B8F80430981CFE28C6
:10A5E8003FF674AE208803332B54238801339BB283
:10A5F800238005F803B0238801339BB223808A5A4D
:10A60800EA54E918120A4A702088023080B2208081
:10A61800B8F804205AB1D8F8081000298CD028447A
:10A6280001F074FB2388B8F804201344238009F14F
:10A638000109C5E7092154E7B242FBD9ADF8086022
:10A648004EE770B5C0B14AB116880024B44203D3AE
:10A6580005196D789D4208D0A14201D800200BE071
:10A66800055D01352C44A4B2F0E7A142F6D9A31C3C
:10A678001380005D013880B270BD37B502AC00238D
:10A6880024F8023D134622460546FFF7DAFF10B1CB
:10A69800BDF80600284403B030BD72DF704773DF91
:10A6A800704774DF704738B5012204460D46B0F88C
:10A6B8003812D0F83402FFF7E0FF00B1057004F15A
:10A6C8003C0204F50D7104F15400BDE83840FFF771
:10A6D800E4BF80F830107047F8B504460F460029EB
:10A6E80075D0002873D091F87A301BB191F8983062
:10A6F800002B6ED1D7F8A030042B6AD0D7F89C3045
:10A70800042B66D007F178060FCE4FF0000C251DFC
:10A7180084F802C00FC50FCE0FC596E8070085E87C
:10A72800070084F830C0D7F8A4306363D7F8A8309E
:10A73800A3634FF6FF7504F50D73C4F84432A4F80B
:10A7480048520722614604F24A2001F008FB2378A8
:10A758000BB984F8545094F8243004F15501C4F826
:10A76800341283B3EE23A4F8383204F50E72384657
:10A77800FFF79EFD30BB94F8243004F24311C4F86F
:10A788003C1213B3EE23A4F8403204F5107207F11B
:10A798003C00FFF78DFDA8B9A269A4F84820012361
:10A7A8006269206484F850006264014684F851307C
:10A7B80084F83C3004F13C0204F15400FFF76DFFCB
:10A7C80000B92370F8BD1F23CDE71F23DBE70E2058
:10A7D800F8E70720F6E7F8B5077804460D46002F96
:10A7E80000F0058100F24A26A170072200213046B8
:10A7F80001F0B5FAE38813B1A378012B04D0E3790B
:10A808004BB1A378022B06D1636BA3B1012284F864
:10A81800512208209847334604F5147113F8012F84
:10A8280012B99942FAD117466B1E032B53D8DFE8A9
:10A8380003F0050B0F1284F85132ECE7A3791BB132
:10A8480094F8243003B95FB9E3790BB1002F44D1F0
:10A85800237A002B43D1637A002B0CBF00250425F3
:10A86800636BA570002B3CD0033D012D39D862796C
:10A87800002A36D094F85222002A32D184F8542281
:10A88800012284F853220720984704F13C05182236
:10A898000021284601F063FAE36A94F82420012194
:10A8A800581E884288BF0B4684F83C1084F8513003
:10A8B80032B1884296BFA36A84F8521084F85230A5
:10A8C800A178002384F8503004291BD8DFE801F070
:10A8D800770D223559000025C2E70225C0E7032578
:10A8E800BEE7002384F85332CFE7C4F84432C4E902
:10A8F80010630223012284F83C30802384F831203D
:10A90800A4F84830A378002B5CD1636B002B6AD184
:10A91800002067E0022384F8313062B1072384F80D
:10A928003C302369A4F848300023C4F84432E36873
:10A9380026646364E6E70323F1E763696364A36954
:10A94800A4F8483012B1062384F83C306379B3B1D7
:10A9580094F852329BB994F8543283B1022384F8A4
:10A96800503004212046FFF79EFE0028CAD1052357
:10A9780084F8313004F50D73C4F84432C2E7032378
:10A98800F6E7E3696364236AA4F8483012B1062342
:10A9980084F83C30637983B194F852326BB994F8F7
:10A9A800543253B1022384F8503004212046FFF773
:10A9B8007AFE0028A6D10623DAE70423D8E784F82C
:10A9C80031309FE72A46D4F8441204F15400FFF7C7
:10A9D80064FE38B994F8301094F85400FFF75FFE1D
:10A9E800002892D0F8BD94F83100984790E70820E5
:10A9F800F8E70388112B10B50C460AD0262B1FD078
:10AA0800102B05D1C37B012B02D18388A1F84832D2
:10AA180010BD0022838881F85222B1F848229A4258
:10AA2800F6D10B79002BF3D101212046FFF7D3FE95
:10AA38000028EDD0A36B002BEAD0BDE810401847E2
:10AA4800037A013B012BE3D889780523013191FB77
:10AA5800F3F303EB8303C91AC9B2E6E7704738B5C5
:10AA6800044690F85400FFF71CFE012384F8523284
:10AA7800002384F8543284F8503006212046FFF72A
:10AA880012FE054638B9A1782046FFF7A4FE10B19A
:10AA9800A36B03B19847284638BD75DF704776DF4A
:10AAA80070477ADF70477BDF70470000034B1A88D6
:10AAB80082420CBF18460020704700BF2C5B002064
:10AAC800024B9B6903B11847704700BF105B002019
:10AAD80037B585B22846FFF7E9FF034670B1164C33
:10AAE800017A227B91420BD200F10A012846FFF736
:10AAF800D4FFE8B1112801D0FFF7E2FF03B030BD61
:10AB0800237C0022027243B13B212846FFF7C7FF8E
:10AB180030F0080301D0FFF7D3FF6369002BEDD0B5
:10AB280000228DF80420ADF8065001A89847E5E703
:10AB38001A7A01321A72E1E7105B002013B50B464E
:10AB4800497A0F4C024669B9D4E901101C7A002CE5
:10AB580018BF01465868FCF7F3FC08B1FFF7B0FFCF
:10AB680002B010BD002119726369002BF8D00121D1
:10AB7800ADF806008DF8041001A89847F0E700BF6B
:10AB8800105B00208388B3F5FA7F28BF6FF4F97251
:10AB980030B528BF9C1805884A8838BF00249542DC
:10ABA8000CD84088904209D38A88A24206D303F27F
:10ABB800F310904234BF0020012030BD0020FCE794
:10ABC8000388112B70B5014648D002D8102B1ED02F
:10ABD80070BD122B52D0502BFAD12F4BC288DB8973
:10ABE8009A42F5D1038A022BF2D186883046FFF7C4
:10ABF8005DFF05460028EBD001F1120000F097F93F
:10AC080030BB6868FCF7E0FC0028E1D009E0C37BB2
:10AC1800012BDDD14FF6FF70FFF748FF054620B93D
:10AC28000420BDE87040FFF74BBF1C4A8E880680A1
:10AC3800002303721368C5F80A300A30536843606A
:10AC48001031FFF79FFF144B6872DB89002BBFD1CF
:10AC580029463046BDE87040FFF770BF8088FFF78F
:10AC680025FF04460028B3D04068FCF7ADFC08B1C6
:10AC7800FFF726FF4FF6FF732380A9E78688304643
:10AC8800FFF714FF05460028A2D008310A30FFF765
:10AC980079FF6872DCE700BF105B0020405B002092
:10ACA800F8B5064650B305460FCD154F3C460FC4C0
:10ACB80095E8070084E807003068124B3B60B8B19C
:10ACC800FFF7EFFEC8B931680A681A604A685A6027
:10ACD8000D480E4A4FF6FF7303800D4B40F8043FB2
:10ACE8000021FCF71BFC002814BF0320002004E00F
:10ACF8001846FFF7D8FE0028EAD0F8BD0E20FCE77A
:10AD0800105B0020405B00202C5B0020D9AA0200C9
:10AD1800485B002073B50191019C06466CB1002583
:10AD28002C46294601A8FCF7BEFD18B106EB4403E2
:10AD380001349D800135142DF3D13046346002B0C2
:10AD480070BD00002DE9F04303888488112B8DB075
:10AD5800064640D01A2B43D0102B16D1294DAB688C
:10AD68000CA8DB4340F8303D55F8041FFCF7C4FD40
:10AD7800009901A8FFF7CEFF0027019B9F4207D348
:10AD8800132C18D90420FCF715F90DB0BDE8F08391
:10AD980001AB03EB47034FF00008B3F8049005EB51
:10ADA8000800494608F10408FCF773FDB8F1740F70
:10ADB800F5D10137E1E721461348FCF761FD21464B
:10ADC8001248FCF75DFDF37B012BDED010482146CD
:10ADD800FCF756FDD9E70C482146FCF75AFDD4E7A5
:10ADE800057A0C482D09012D214606D9FCF748FDA6
:10ADF800022D21460848F0D0EAE7FCF74AFD214633
:10AE08000548EAE7685B0020705B00206C5B002067
:10AE1800745B0020785B00207C5B002073B502AE79
:10AE2800002446F8040D254621463046FCF73BFD34
:10AE380000B101350134142CF6D1284602B070BD9A
:10AE48001328014602D80248FCF72DBD00207047A0
:10AE58006C5B002007B5074AD36802A8DB4340F8BB
:10AE6800043D9168FCF748FD0198FFF7D7FF03B050
:10AE78005DF804FB685B002013B5084AD3680446F4
:10AE880002A8DB4340F8043D9168FCF735FD2046F5
:10AE98000199FFF73FFF204602B010BD685B002014
:10AEA80010B50446FFF7CCFF002814BF2046142035
:10AEB80010BD70B5054616460AB90E2070BD0023B0
:10AEC80013600028F9D00368002BF6D0C38813F06C
:10AED80003040FD10846FFF7E3FFC0B214280BD0D4
:10AEE8002B7983420AD9EB882A6800FB032030605B
:10AEF8002046E3E70720E1E70520DFE70420DDE758
:10AF0800AADF7047002301380B70042806D8DFE851
:10AF180000F00306080A0C0011230B707047212368
:10AF2800FBE73123F9E71223F7E72223F5E7007857
:10AF380000F001007047F0B58B7891B005460C46DB
:10AF4800164603B9012303228DF80E300021238809
:10AF5800ADF80C30684600F002FF6946607CFFF7E8
:10AF6800D1FF0DF10101A07CFFF7CCFF9DF8023065
:10AF7800E27B62F3C303227C62F30413227B62F355
:10AF88000003227D002A14BF0222012262F3420339
:10AF980000211C2209A88DF8023000F0E0FE637B36
:10AFA80013F0300F15D002AF03220021384600F00D
:10AFB800D6FE0DF10901E07CFFF7A4FF11238DF8FF
:10AFC80008309DF80A300E97012262F342038DF88B
:10AFD8000A30637B8DF824301422A37B8DF825304A
:10AFE800002104A800F0BBFE03AB0493A388ADF8CE
:10AFF8001C30A368CDF814D01BB1E288ADF8182036
:10B008000893A369002B2ED001AF032200213846F4
:10B0180000F0A5FEA3691A88ADF82C205A88187B81
:10B02800ADF82E2039465A680A920D97FFF76AFF45
:10B03800A3690DF10501587BFFF764FFA2699DF82C
:10B048000630917A61F3C303D17A61F30413117A5C
:10B05800927B002A61F3000314BF0222012262F3EB
:10B0680042038DF80630E36903B10C93334604AA12
:10B0780009A92846FFF744FF11B0F0BD90DF7047DB
:10B08800A5DF7047B5DF70477FB50023ADF808101E
:10B09800ADF80A106A4602A9064603930093ADF874
:10B0A8000430FFF7EBFF0546F8B1114B114CE41AD9
:10B0B800E408FCF795FF240444F0010403463246F3
:10B0C8000D492046FBF7C2FCBDF80020BDF8023050
:10B0D80002B91BB109492046FBF7B8FCBDF80420AA
:10B0E8001AB107492046FBF7A7FC284604B070BDF3
:10B0F80020C6020060C602001CCF020066CF020014
:10B10800A5CF020088B14FF0F7130360FB2303714A
:10B11800F723C3801723038141F6FB320023016123
:10B128008372C3728281184670470E20704730B10F
:10B13800A1F11703E02B04D80180002070470E20EE
:10B14800704707207047000013B5034680880C46F7
:10B15800A0B91A88232A00F0AF8011D8102A25D068
:10B16800112A54D0A37A4BB1E1880020FFF788FF59
:10B17800002840F0A7800123A072E37202B010BD3E
:10B188003A2A4ED0552A68D0242AEBD11A7A0B696C
:10B198004A73002BE6D04DF67A21ADF80400ADF8DD
:10B1A8000010ADF802008DF8042081E0DB7B0A79FD
:10B1B8000A73012B13D0022B14D0E18823898B4208
:10B1C80005D20020FFF75CFF70B90123E372217BF1
:10B1D800637B8B42C6D20020FFF756FFC2E70B887D
:10B1E800E380EAE74B88FBE7112802D10123A37229
:10B1F800EDE7FCF7F5FE3C4A3C4B3D499B1ADB0862
:10B208001B04024643F00100FBF716FCDFE7F723B7
:10B21800CB8017230B8141F6FB338872C8728B8170
:10B22800A0E75B89CA88934228BF1346172B0A698F
:10B2380038BF17230B8162B1C97A51B140F6772123
:10B24800ADF80010ADF80200ADF8043069462046AC
:10B2580090470023E372A37284E7DB88C988A07251
:10B26800172B38BF17238B4228BF0B462381FFF7C4
:10B2780009FF60B1FCF7B4FE1B4A1C4B1D499B1A21
:10B28800DB081B04024643F00100FBF7D5FBE27A1A
:10B29800002A7FF467AF2369002B3FF463AF40F6C1
:10B2A8007721ADF802202289ADF80010ADF804200E
:10B2B80069462046984755E7197A237B994228BF63
:10B2C800194689E711283FF459AFFCF789FE064A69
:10B2D800064B07499B1ADB081B04024643F0010092
:10B2E800FBF7AAFB4AE700BF20C6020060C60200BF
:10B2F800FBCF02002CD00200B0DF704766DF70473A
:10B30800034610B500214088FFF7F8FF024608B948
:10B318001A7210BD112801D10122F9E75B68BDE856
:10B328001040184760B159B10378DE2B0AD00B687A
:10B338004360DE2303704FF6FF734380002070479D
:10B348000E2070470820704728B10378DE2B04D1FF
:10B358004180002070470E20704708207047F0B5E4
:10B36800054685B00C46F1B1E8B10B78DE2B1AD151
:10B3780082884B889A4204D10B7A13B10846FFF7AA
:10B38800BFFF2B88112B32D0512B0ED0012B0AD1A5
:10B398002B7A012B07D1A9886288914203D12372A5
:10B3A8002046FFF7ADFF05B0F0BDAE886388B34215
:10B3B800F9D1AF79022FF6D1AD7B2B1F022BF2D832
:10B3C80000211022684600F0CAFC052D14BF4FF476
:10B3D800C0730023694630468DF80070ADF804301C
:10B3E800FFF78AFF0028DED063689847DBE76388A9
:10B3F800AA889A4204BF4FF6FF736380D3E7A8DF99
:10B408007047ADDF7047AEDF704762DF704770B5D9
:10B4180005468AB00C46002963D0002861D003880D
:10B42800502B38D0572B73D0102B5AD10AAA00268C
:10B43800818842F8246D6069FFF73BFD0822314698
:10B448000DEB020000F08BFC022302AA218AA888D7
:10B45800CDF80CD00293FFF7D4FF002841D1A3699F
:10B46800002B3ED00398FFF762FD002839D0019BDE
:10B478000BB101221A701822002104A800F06FFCF9
:10B4880002238DF81030AB88ADF81830019B059475
:10B498000793A36923E08188606902AAFFF709FD81
:10B4A8001822002104A800F05AFCAB88ADF8183027
:10B4B8002189EB88029A05949942079218D12E8A1D
:10B4C800022E15D16AB105F11200FFF730FD029B7B
:10B4D80048B101221A708DF81060A3690BB104A855
:10B4E80098470AB070BD187003238DF81030F4E740
:10B4F800A2899A42F5D1A369002BF2D000228DF8D7
:10B50800102005F1120208922A8AADF82420E6E7F5
:10B518008188606902AAFFF7CCFC01460028E0D1C7
:10B52800029B1B78002BDCD0182204A800F017FC23
:10B5380001238DF81030AB88ADF818300594029BC4
:10B54800A6E70000F0B5374B8FB002AA05460E46B5
:10B5580003F1100C174618685968144603C40833D9
:10B5680063452246F7D1002D59D0002E57D03368B5
:10B57800AB6129463846FFF748FF00284DD12A46D7
:10B588000EA9012412F8023B21F8344D20468DF80B
:10B598000630FFF734FF00283FD10146202206A8D5
:10B5A80000F0DDFB2A460223ADF8183012F80C3BF8
:10B5B8008DF81A309DF825301B4E6888079643F0A1
:10B5C8000C0306A98DF824408DF825308DF8294004
:10B5D8008DF82A40FFF7AFFCF8B90146202206A8EB
:10B5E80000F0BDFB2A460323ADF8183012F8043BDF
:10B5F8008DF81A309DF825306888079643F01003B7
:10B6080006A98DF824408DF825308DF829408DF84D
:10B618002A408DF82B40FFF78EFC0FB0F0BD0E20AE
:10B62800FBE700BF68D00200F4000100F0B50F4648
:10B6380087B016461C46054618B301AA1946406944
:10B64800FFF737FCD8B94FF6FF739C421BD0019B1C
:10B65800CBB11B78CBB13388F42B18D80146102214
:10B6680002A800F07CFBAB88ADF8083002A90123E2
:10B678002046CDE904678DF80A30FFF7C4FE07B00D
:10B68800F0BD0E20FBE70520F9E70820F7E70720C3
:10B69800F5E710DF7047000013B50446094968460E
:10B6A800FCF769FC019808B902B010BDD0E9003177
:10B6B8002046984718B16846FCF767FCF2E7112066
:10B6C800F2E700BF84D0020013B504460749684674
:10B6D800FCF751FC019B0BB902B010BD2046D3E921
:10B6E800002190476846FCF750FCF3E79CD0020025
:10B6F8000B4991F816335A09EC231341DB0706D599
:10B70800084B9A683AB94FF480030B60704742F2CD
:10B718000200FBF74FBC1A6842F480021A607047B7
:10B7280000E100E07C510020F7B5184F3C785CBB85
:10B73800174E012520463570FFF7AEFF112820D09F
:10B748002046FFF7C1FF134B1868019002A800F8C4
:10B75800054DFCF75BF8104901A8FFF79AFF04466E
:10B76800B0FA80F0400938709DF80300FCF772F8D1
:10B778003CB90A4B34701C70FFF7BAFF2846FFF734
:10B78800A3FF204603B0F0BD0824FAE7E15B0020E0
:10B79800E05B002080D00200D96F0200E25B00204D
:10B7A800014B1878704700BFE15B002007B50849D6
:10B7B8006846FCF7E0FB019B13B903B05DF804FB96
:10B7C800D3E9002090476846FCF7DFFBF3E700BFAA
:10B7D80090D00200FFF7EABF60DF704769DF70476B
:10B7E80061DF704730B5114DADF5017D4FF4FA7446
:10B7F8000DF1020103A8ADF80240FFF7F1FF70B99F
:10B80800294601A8FCF7B7FB029B002BF0D003A840
:10B81800D3E90021904701A8FCF7B7FBF4E7052816
:10B8280001D0FBF7C7FB0DF5017D30BD20D3020029
:10B83800024B1B780BB1FFF7D5BF7047E35B0020C5
:10B8480030B5054685B00C46002900F0B5805B4B45
:10B858000B600C22002101A800F081FA01238DF869
:10B86800063022688DF80450062301A92020ADF87F
:10B878000830FFF7B3FF60B1FCF7B2FB504A514BF9
:10B8880051499B1ADB081B04024643F00100FBF7F1
:10B89800D3F80C22002101A800F061FA01238DF8E9
:10B8A80005302268002301A940208DF806308DF864
:10B8B8000730FFF793FF60B1FCF792FB404A414B1A
:10B8C80042499B1ADB081B04024643F00100FBF7C0
:10B8D800B3F80C22002101A800F041FAF7232268EE
:10B8E8008DF8045001A92320ADF80630FFF776FF44
:10B8F80060B1FCF775FB324A324B35499B1ADB08BD
:10B908001B04024643F00100FBF796F80C220021C5
:10B9180001A800F024FA012022688DF8040001A98A
:10B92800FFF75CFF60B1FCF75BFB254A254B294913
:10B938009B1ADB081B04024643F00100FBF77CF866
:10B948000C22002101A800F00AFA4FF4B063226823
:10B95800019301A9A120FFF741FF60B1FCF740FB6B
:10B96800174A184B1C499B1ADB081B04024643F074
:10B978000100FBF761F80C22002101A800F0EFF9A3
:10B988009DF8043022686FF3000301A9A0208DF808
:10B998000430FFF723FF68B1FCF722FB084A094B84
:10B9A8000E499B1ADB081B04024643F00100FBF713
:10B9B80043F8002005B030BD0E20FBE7C049002049
:10B9C80020C6020070C60200B0D00200F6D0020005
:10B9D80042D1020089D10200D5D1020026D202004C
:10B9E800F8B506460768FFF7F7FE3368BB42054619
:10B9F8001DD9194B194C1A49E41AE408240444F0D7
:10BA080002042046FBF714F8336816493A462046E4
:10BA1800FBF71CF84FF080533268D3F80C31124909
:10BA28009B0203F100539A1A2046FBF705F825B943
:10BA38000E4B01221A702846F8BD2846FCF7D0FAAA
:10BA4800054A064B0A499B1ADB081B04024643F0C9
:10BA58000100FAF7F1FFEEE720C6020070C6020007
:10BA680079D20200A8D20200D9D20200E35B0020FA
:10BA780003D302004BDF70471FB50D4C01A8FFF739
:10BA8800F9FF70B9214602A8FCF775FA039B002B51
:10BA9800F4D00198D3E90021904702A8FCF775FA81
:10BAA800F4E7052801D0FBF785FA04B010BD00BF04
:10BAB80038D3020053EA020C61D02DE9F04BB3FAF7
:10BAC80083F51E0007BFB2FA82F502FA05F403FAFD
