:020000022000DC
:106000000000012079630200616302006363020003
:10601000656302006763020069630200000000001C
:106020000000000000000000000000006B630200A0
:106030006D630200000000006F63020071630200E4
:10604000419A020073630200C99E0200736302005A
:1060500073630200736302004D9D020073630200CC
:1060600073630200736302007363020073630200D0
:1060700073630200736302007363020073630200C0
:106080007363020095710200736302007363020080
:106090003172020073630200D1C402007363020014
:1060A0007363020073630200736302007363020090
:1060B0007363020073630200000000000000000030
:1060C0007363020073630200736302007363020070
:1060D0007363020073630200736302000000000038
:1060E00000000000000000000000000000000000B0
:1060F00000000000000000000000000000000000A0
:10610000000000000000000000000000000000008F
:10611000000000000000000000000000000000007F
:10612000000000000000000000000000000000006F
:10613000000000000000000000000000000000005F
:10614000000000000000000000000000000000004F
:10615000000000000000000000000000000000003F
:10616000000000000000000000000000000000002F
:10617000000000000000000000000000000000001F
:10618000000000000000000000000000000000000F
:1061900000000000000000000000000000000000FF
:1061A00000000000000000000000000000000000EF
:1061B00000000000000000000000000000000000DF
:1061C00000000000000000000000000000000000CF
:1061D00000000000000000000000000000000000BF
:1061E00000000000000000000000000000000000AF
:1061F000000000000000000000000000000000009F
:10620000364937480A1A02D0072291438D4635494C
:1062100035480A1A06D00722914381F309880222E1
:1062200082F3148831483249324A00F045F8324846
:106230003249334A00F040F832483349334A00F0DB
:106240003BF833483349344A00F036F83348344990
:10625000344A00F031F834483449354A00F02CF81B
:1062600034483549354A00F027F835483549002289
:1062700000F02DF834483549002200F028F8344861
:106280003449091A082903DB002202600430016046
:10629000314A90471F482049884205D0026804309F
:1062A00003B4904703BCF7E700208646EC46002085
:1062B00000212A4A9047FEE7884207D0521A05D0AB
:1062C000037801300B700131013AF9D170478842EF
:1062D00002D002700130FAE7704700000000012090
:1062E00000E00020000001200000012004ED020079
:1062F000FC6800206C690020D8630200D8630200AB
:10630000DAD8020004ED0200FC680020FC680020DE
:1063100024DA020024DA020024DA020024DA02007D
:1063200024DA020024DA020024DA020024DA02006D
:1063300004ED020074ED02006C6900206C6900201D
:106340006C6900204A8100204C8100204C81002093
:106350004C8100204CA10020A1630200A9D30200BF
:10636000FEE7FEE7FEE7FEE7FEE7FEE7FEE7FEE705
:10637000FEE7FEE7704700BF1048804710484FF027
:106380000701884385460F4880470F48016841F45C
:1063900070010160BFF34F8FBFF36F8FFFF730BF06
:1063A0000A480B490B4A884207D0521A05D0037895
:1063B00001300B700131013AF9D170477563020069
:1063C000000001205994020088ED00E010DA02007C
:0863D000E8680020FC680020D1
:1063D8007047000007B5044B0093044A402300F0BF
:1063E80032F803B05DF804FBF96302006D69002020
:1063F8002DE9F84389461446B2B10F4B0F4E0325D9
:10640800002743F00108224609EB0701002004F0A9
:1064180023FD0744241A48B933782BB14FF47A4046
:10642800C047013D02D13570BDE8F88301233370C0
:10643800002CE8D1F8E700BF30DA02006C690020D0
:10644800704704F03DBDF0B595B01C4616460846A9
:106458000D4601F0EEFD1A9B0D93CDE9086400246A
:106468002346082205A928460A948DF82C400C9446
:1064780001F0FDFD079B0293BDF81830ADF80C3014
:10648800BDF81A30ADF80E309DF814308DF8114073
:1064980003F00302012A1DD1BDF81440059EC3F381
:1064A800C203C4F383148DF81030A20008230EA988
:1064B800284601F0DCFDC6F3952608AB009322467A
:1064C80002AB0EA9304600F069FB284601F0B5FD85
:1064D80015B0F0BD022AF8D1BDF81640C3F3C203C7
:1064E800A4098DF810300827082C264628BF08264E
:1064F8003B4632460EA9284601F0B9FDA41B08AB5D
:1065080002AA31460EA8374400F0ACFB002CEBD1B0
:10651800DBE7000008B5FFF794FF0421034800F00B
:10652800ABFA034B01225A7108BD00BF00DA020022
:10653800FC680020037813F0040216D003F003036C
:10654800012B03D0022B09D0012070470A6800886C
:106558000232C0F3831002440A60F5E70B684288F0
:10656800023303EB92130B60EEE71046704700000E
:106578002DE9F04F89B00546861C08A8484C0192C1
:1065880000230F4600F8113D01F04CF923683B60E9
:10659800D4E901231344226801339B1A04F21C47EF
:1065A80004F5836A04F21448B3421AD3019A00230B
:1065B800002A6DD0012262F3010343F0040365F35E
:1065C80089132168A2689DF80F000A4003320E441F
:1065D80044F82230266001F049F9012009B0BDE8ED
:1065E800F08F0121384601F05EFA504601F074FA46
:1065F800404601F071FA0DF120096068D4F808B03E
:1066080049F8100D00EA0B00033004EB80004946FE
:10661800FFF790FF049BB0B90BEA030204EB820278
:10662800D16805919A1C013303EA0B0B04EB8B0C20
:1066380001F00303012B0492DCF80CB020D0022BEC
:1066480004D083460BE00BEA0300DDE7BDF8163003
:106658009B0903334FEA1B4B02EB93030493404619
:1066680001F03DFA08B1049B63605946384601F0D1
:106678001AFAD4E901231344226801339B1A93E7D9
:10668800BDF81430C3F383134FEA1B4B1344E5E7FB
:10669800022262F3010343F0040365F39F5390E77A
:1066A800806A00200B4B0C48FF2210B59A6000222C
:1066B800C3F81824C3E90022C3F8142483F820245B
:1066C80001F070FC044610B9044801F019FD204699
:1066D80010BD00BF806A00207CD9020054DA020095
:1066E80030B50A4C71B10A4A0A49121BD208002374
:1066F8009A4201D1002030BD31F82350854202D0A2
:106708000133F5E7034654F83300F4E790D9020063
:1067180000DA0200FC680020094B013903EBC000D5
:10672800032909D8DFE801F00A02040604207047AB
:106738000079704740797047002070470220704701
:1067480090D90200034BD3E90030C31A584258418C
:10675800704700BF806A00202DE9F04387B0FFF73B
:10676800F1FF0646002840F0FC807F4DC5F818046C
:10677800BFF34F8F6868AC6806AF47F8100D20402C
:10678800033005EB80003946FFF7D4FE029B18B1B1
:10679800D5F81824002A5FD004EA0302991C0133B3
:1067A80005EB8202234005EB8303D268DB68049380
:1067B80002F00303022B0392029162D1BDF80E305E
:1067C8006A484FEA9318B8F1500FC14628BF4FF0F6
:1067D800500969F38F1309F10801ADF80E3001F083
:1067E800F9FB0746002800F0A78001F022FC03A966
:1067F80000230822384601F02FFC029924EA0106FA
:106808000136B600B14535D95FFA89F97EB3F6B2DB
:10681800A9EB0609214003315FFA89F4B146544EC9
:1068280005EB810108234A46384601F015FC36B1CC
:1068380009F1080322463146384601F00DFC029B57
:1068480008F1030803EB98030293D5F81834002BDA
:106858004BD1D5F810445BE02A689A4204D86A60A4
:10686800304607B0BDE8F08304EA030088E74049F2
:106878003446D7E72140033108234A4605EB810116
:10688800DAE7012B58D1BDF80C303848C3F383112F
:10689800062928BF062161F3891302318900ADF862
:1068A8000C3001F097FB0746002845D001F0C1FBEA
:1068B8000023082203A9384601F0CEFB0026BDF8C4
:1068C8000C20C2F38312B31C96424FEA8303BCD256
:1068D80002994A1C21400331029205EB81010422EE
:1068E800384601F0B9FB0136E9E7384601F0A5FB67
:1068F800FFF728FF80F00100C6B2B1E7E3685B79D3
:1069080023B1236839461B6820469847E3681C680A
:10691800002CF3D1384601F090FB06A800F8114D81
:1069280000F080FFD5F818340BB9029B6B609DF816
:10693800070000F09BFFDBE7D5F8104454B90D4B76
:106948000D480E49C01AC008000440F0020000F0CB
:106958006FF8CDE7236820469B689847E3681C6872
:10696800ECE700267CE700BF806A00207CD90200A3
:106978008C6A002090D90200B8D9020060DA0200BF
:106988002DE9F74F284C80460F46924601A901226F
:1069980018469B46D4F80890FFF7EAFD88B3019D96
:1069A8000026A91C5E4506EB010234D100211F48D0
:1069B80001F038F880F310006A1C02EA090204EBBF
:1069C8008202000405EA0903033340EA1840D06054
:1069D80014F8232068F3C50204F8232034F8232090
:1069E80066F3891224F8232054F82320012167F341
:1069F8009F2244F8232061F301026FF3820204F816
:106A0800232094F820341BB1FFF7A6FE0028FBD101
:106A180003B0BDE8F08F09EA020204EB82025AF8DB
:106A28002630D3600136BDE7806A00209C6E0020C6
:106A380000231A46FFF7A4BF13B502AC012344F89C
:106A4800042D2246FFF79CFF02B010BD07B5CDE923
:106A5800002302236A46FFF793FF03B05DF804FBA7
:106A68001FB5CDE90123069B039301AA0323FFF772
:106A780087FF05B05DF804FB30B50F49D1F8102445
:106A8800002314463CB9C468237152B9C1F81004F4
:106A98002260184630BDE46825799D4206D02468F6
:106AA800F0E7D268116821601060F2E701330A2B21
:106AB800E7D14FF0FF33ECE7806A0020094A38B588
:106AC8000123D2F8104482F820341D4604B938BD99
:106AD800E3685D71236820465B689847E3681C6833
:106AE800F4E700BF806A0020037A052B10B50C4636
:106AF8000FD0437A23B1084A0849204601F050F8DC
:106B08000749204601F04CF82046BDE8104001F046
:106B18003CB8002AF8D0F3E7A7DA0200ACDA0200A2
:106B2800CCDA0200C38873B504460D4633B1144A63
:106B380000921449144A284601F032F8217A0529AE
:106B48001CD0637A4BB1A088FFF7E6FD0F4B1049C4
:106B580053F82020284601F023F8227A0D4BA0880C
:106B680053F822600021FFF7BBFD0B49034632466C
:106B7800284602B0BDE8704001F012B802B070BDFE
:106B8800A7DA0200B7DA0200AFDA020074DA02000C
:106B9800ACDA0200DCDA0200CFDA02002DE9F043B9
:106BA80085B01F460C9D002306460C46904695F876
:106BB8000C902B7329463846FFF7B4FFB8F1060F3F
:106BC80009D8DFE808F00412181F283340003146BE
:106BD800284600F0E5FF002229463846FFF784FFE3
:106BE80085F80C9005B0BDE8F08322683146284648
:106BF80000F0D6FFEFE7D4E900233146284600F03D
:106C0800CFFFE8E7A36800933146D4E9002328467C
:106C180000F0C6FFDFE7E3680193A36800933146FD
:106C2800D4E90023284600F0BBFFD4E72369029388
:106C3800E3680193A36800933146D4E9002328460A
:106C480000F0AEFFC7E76369039323690293E36823
:106C58000193A36800933146D4E90023284600F045
:106C68009FFFB8E708292DE9F84F80460E461746DA
:106C78001C463AD8002593F80C901D731946104607
:106C8800FFF750FFDFF884A0DFF884B0AE422ED9BA
:106C980018F805205946204600F082FF0135082DD6
:106CA800F4D11849DFF86CB0204600F079FF4FF0B6
:106CB800000A564520D918F80A507E2D03D82846D0
:106CC80006F054FD00B92E252A465946204600F004
:106CD80067FF0AF1010ABAF1080FEAD10122214639
:106CE8003846FFF701FF84F80C90BDE8F88F51464D
:106CF800204600F055FFD1E70349204600F050FF39
:106D0800E7E700BFA2DA0200A0DA02009EDA02007A
:106D180098DA0200A4DA02002DE9F04F3B4F89B05F
:106D280000263B4B1B78F5B2AB4202D809B0BDE850
:106D3800F08F384B196811F835000124A0F12002B2
:106D4800C0F1200304FA02F924FA03F349EA03091B
:106D5800D7E9002304FA00F8CDE9042302EA08027F
:106D680003EA0903134301EBC50B4CD0DDE9042307
:106D780022EA080223EA0903C7E90023079102F07F
:106D8800D7FF0799844611F83500A0F12002C0F119
:106D9800200324FA03F304FA02F21A4304FA00F374
:106DA80000931D4B0192DDE90045D3E9002314400F
:106DB8001D4022462B465FFA8CF40025CDE9044598
:106DC800049CA0F12005AC400394049CC0F1200170
:106DD80024FA01F1039C0C43049903948140029125
:106DE800DDE90245AB4208BFA2420CD19BF8011075
:106DF8004B1E59425941A1EB0C02DBF804305142B9
:106E0800514103B1984701368BE700BF706F0020EE
:106E18003C6F0020786F0020686F00202DE9F84F44
:106E28000646244800F0DCFB002841D10123A6F1E6
:106E38002001C6F1200203FA01FB23FA02F203FA49
:106E480006FA1D4BD3E900014BEA020B00EA0A08D7
:106E580001EA0B0958EA09021F4623D1304602F01D
:106E680067FF164BB8B1D3E9000140EA0A0441EACA
:106E78000B05C3E90045D7E900234BEA0305104B8E
:106E88000C4819684AEA0204C7E900450022BDE82F
:106E9800F84F00F061BBD3E9000120EA0A0421EAB7
:106EA8000B05E6E720EA0A0421EA0B05C3E90045D9
:106EB800BDE8F88F446F0020706F0020686F0020D5
:106EC800406F0020042A2DE9F34105460C4616467A
:106ED8003AD902F043FED8B11C4B1D491D601D4B29
:106EE800DFF884801C701C4B00221E600023C1E95F
:106EF80000231A49C1E90023013CE4B20026032714
:106F0800FF2C0CD1164A1748002100F013FB03E0B0
:106F180002F0EEFD0028DFD002B0BDE8F08123B218
:106F280005EBC30201A992788DF8052015F8330006
:106F38008DF8066042468DF8047002F019FE013C97
:106F4800E4B20028DCD0E7E70720E5E7786F002007
:106F5800686F00203C6F0020406F0020706F002099
:106F6800216D02003CDB0200256E020070B5084D61
:106F7800084E00242B789C4201D3002070BD336852
:106F8800012113F8340002F06BFE0134F2E700BF70
:106F98003C6F0020786F002070B5094D094E002421
:106FA8002B789C4204D30848BDE8704000F018BB19
:106FB800336813F8340002F099FE0134F0E700BF9B
:106FC8003C6F0020786F0020446F00201FB500211F
:106FD800039001AA44F20100CDE9011100F004F880
:106FE80005B05DF804FB000010B572B6FFF766FD4A
:106FF800FFF7B2FB0028FBD1104B114C1149E41AE2
:10700800E408240444F00100FFF712FD0E4B1B684E
:10701800DB0700D500BE0D4944F00200FFF708FD6C
:10702800BFF34F8F0A490B4BCA6802F4E06213435F
:10703800CB60BFF34F8F00BFFDE700BF90D90200C0
:10704800B8D9020040DB0200F0ED00E04CDB0200A2
:1070580000ED00E00400FA0549B152B1531E1A4090
:1070680007D1826001608380C260104670470E209D
:1070780070470920704710B58468C2688388121B5E
:10708800934208D3C26813400268D154C3680133DD
:10709800C360002010BD0420FCE78268C3689A42E0
:1070A8000AD08268838813400268D35C0B708368B7
:1070B800013383600020704705207047094A5378E0
:1070C80091780133DBB2994208BF002311789942C5
:1070D8001FBF03705078182303FB002014BF04302F
:1070E800002070477C6F002073B5054602A8002475
:1070F80000F8014D0E4600F095FB0DF10600FFF774
:10710800DDFF90B106700A4B9DF8062045605A7065
:107118009DF8070000F0AAFB24B9064B4FF4801233
:10712800C3F80021204602B070BD0424F0E700BF78
:107138007C6F002000E100E0024B4FF43C6043F01C
:107148000103184760DB020038B50C4B0C4C4FF4B8
:107158000032C3F8802001254FF48033C4F8483347
:10716800C4F808336560FFF7E7FF064BA560002405
:107178001C60FFF7E1FF044B1C7038BD00E100E024
:10718800001001406873002059730020F8B51F4BA8
:107198001F491B680025C1F84051C1F84451C1F886
:1071A8004851C1F84C51C1F80051C1F804514BB3D2
:1071B800D1F8044517490968641A24F07F442F461A
:1071C8001A68A24209D8A41A15441A7CDE691AB1B1
:1071D8001F74D3E905209047AEB90F4B0F4A1978B1
:1071E80013788B4205D10133DBB2022B08BF002391
:1071F800137012780A4B43F822500A4B4FF480124E
:10720800C3F80021F8BD3346DAE700BF6C730020ED
:10721800001001406873002064730020657300202B
:107228005C73002000E100E02DE9F74F9E4A9F497A
:10723800137809789E4D99423CD00133DBB2022B7A
:1072480008BF002313709B4912789B4B0F6853F8B3
:1072580022003B1823F07F4300220B602B68164660
:107268001446944613B942B12B6006E0196881426E
:107278000ED902B12B60091A19604FF001082B686A
:10728800DFF83CA200930027BEB9DFF83CB260E00B
:10729800401A0C44D968C3F800C0D3F81CE031B1D7
:1072A8003A1922F07F42C3E90121DE611E4601221C
:1072B8007346D7E70026B046E1E73446F6697D4ACB
:1072C80063681268DFF804C2A068991A21F07F4148
:1072D800614500F2A58001442160012222742A68D8
:1072E8000023C4E90133E361002A40F0A2802C6046
:1072F800CAE75A1C9BF80210D2B291428BF80020C0
:1073080004BF00228BF80020182202FB03B32A686E
:1073180019799C68022974D003297ED0012918D1D3
:10732800217CB1B9DA6862601A69A2605A699B69FE
:10733800A361624BE2601B78002BC0D06160BEE79E
:107348009C4200F093809946DB69002BF8D100231A
:1073580023749BF800309BF801209A42C9D12B680E
:107368002FB9009A934202D1B8F1000F43D0002BF5
:1073780079D0D3F800A0524D4E4BD5F804751C684F
:10738800DFF84C813E1B98F8003026F07F46033624
:107398009BB94FF48033C5F84433C5F80433494BDF
:1073A8004FF400324FF00109C3F880211A60C5F884
:1073B8000090FFF7C1FE88F80090B2452CBF5444F6
:1073C800A41924F07F44C5F84045D5F80435DB1BE3
:1073D80023F07F43E41B033324F07F44A3420AD9FC
:1073E800D5F80435C5F84035FFF7A6FE354B4FF400
:1073F8000032C3F80021314B00221A7003B0BDE8F7
:10740800F08F13469146A0E71174D2690123002A30
:10741800FAD1002B9DD02A609BE700231946F6E796
:10742800D31A23F07F43834234BFC31A0023236057
:1074380053E721681368994213D8591A1160E26119
:1074480055E7091AD8691A4638B1034618688842B8
:10745800F7D3401A1860184613462160E061DC61D2
:1074680012E71346F2E7FFF76FFEC4E74C450DD16C
:10747800D3692B6053B90F4801920121CAF808104B
:1074880003600E4B1970FFF757FE019AE1692368F4
:10749800C9F81C1011B1086803440B602B689A42A4
:1074A80018BF012753E700BF6473002065730020ED
:1074B8006C730020687300205C73002058730020F0
:1074C8000010014000E100E07C6F0020FEFF7F001B
:1074D8005973002008B5FFF737FE104B002029220A
:1074E80018809A700E4B18600E4B18700E4B18705F
:1074F8000E4B4FF48012C021C3F8802183F8141377
:107508001A6002F18042A2F56F22C2F8080583F8DA
:107518001113074BD2F804251A6008BD7C6F0020B0
:107528006C730020647300206573002000E100E0A4
:1075380068730020074B9B784BB132B128B10368C0
:10754800187C20B959745A61704707207047082081
:10755800704700BF7C6F00202DE9F7431D4FBB78B3
:1075680005460E4690469BB390B304292ED943692D
:1075780073B3437C02A80024012B00F8014D0CBF13
:107588008946A14600F04EF90DF10600FFF796FD79
:10759800D0B101230370104B4560D3F80435C0E91E
:1075A8000498C0E902369DF806307B709DF8070004
:1075B80000F05CF924B9094B4FF48012C3F800219C
:1075C800204603B0BDE8F0830424EFE70724F7E77B
:1075D8000824F5E77C6F00200010014000E100E07E
:1075E800064A92783AB130B1426922B10022027457
:1075F8000221FFF779BD0820704700BF7C6F00208B
:107608000648074A03780749D35C012213B10430BE
:1076180003F08CB80C3002F075BE00BF046900207E
:10762800AC750020987300200648074A037807497C
:10763800D35C012213B1043003F028B80C3002F0F7
:107648000BBE00BF04690020AC75002099730020B0
:1076580037B50578012D04D035D3022D28D003B0D5
:1076680030BD43681F4C19782046FFF704FD78B1F8
:107678001D4B01908DF800501B6868469847A1681B
:10768800E368A2885B1A9A420ED3FFF7B9FFE6E7D0
:10769800A268E3689A42F2D002AB134A03F8080DD5
:1076A800126818469047EAE7104B01221A70D6E78D
:1076B800C36801938DF80050FFF7A2FF0A4B1B68BF
:1076C80068469847CBE70A490A48FFF7E6FC10B92D
:1076D800FFF7AAFFC3E702A8032300F8083D024BFF
:1076E8001B68EEE774730020707300208473002019
:1076F8009973002088730020F0B51F46234B89B08A
:1077080006461A600C4600293DD08A882048096838
:10771800FFF7A2FC002834D1A289A1681D48FFF711
:107728009BFC00282DD11C4D0FCD6C460FC495E84D
:107738000F0084E80F0073690693337C174A1848D2
:107748008DF81C70003318BF01238DF81430737C3A
:10775800002B14BF0E2300238DF81530F368029315
:10776800B36803933368019369467368009302F022
:10777800F9F830B90B4B18703368013301D0FFF7B3
:107788003FFF09B0F0BD0720FBE700BF7073002082
:10779800747300208873002068DB020059760200A9
:1077A800046900208473002070B5084C014608481D
:1077B8002678FFF772FC054636B100232370FFF7E1
:1077C8001FFF08B1FFF702FC284670BD8473002034
:1077D8007473002010B501460E48FFF74CFC0446B0
:1077E800A8B90D480D4A0378D35C63B1043002F0A0
:1077F80091FF60B90A490748FFF74FFC38B9BDE85F
:107808001040FFF711BF0C3002F070FDF1E7204681
:1078180010BD00BF8873002004690020AC750020EB
:107828009973002070B5EFF3108672B60C4A94680D
:1078380001239CB993600B4B0B4DD3F88010294062
:107848001160C3F88050D3F8841051604FF0FF32B4
:10785800C3F88420047006B962B670BD0370FAE7F5
:107868009C73002000E100E0FC06FFBD084B9A680D
:1078780010B55AB150B9EFF3108172B6054A1C68B9
:1078880014605C685460986001B962B610BD00BFAE
:107898009C73002000E100E010B561B1B2FBF3F485
:1078A80003FB1424A4B244B9C0E9001484608281A3
:1078B800C381204610BD0E20FCE70920FAE782B0FC
:1078C80050E8022FC188B2EB324F4FF0000317BFC8
:1078D80092B241EA014142EA014104E04268B2EB56
:1078E800324F08BF012340E80212002AE8D18DF880
:1078F80007309DF80730002B0CBF1120002002B084
:10790800704737B550E8013F9DB2C4892544848942
:10791800A54228BF2D1B0489A54202BFBFF32F8FA4
:10792800002207E0C5EA030540E80154002CE9D12C
:107938004FF001028DF803200193019B9DF803206D
:107948000B6002F0FF0322B10B880068184403B0F3
:1079580030BD1846FBE70A884B889A4209D150E89F
:10796800012FC2EA024240E80123002BF7D101208F
:1079780070470020704737B550E8023F1FFAA3F55B
:10798800C488A54202BFBFF32F8F00220DE0C4892F
:1079980025448489A54228BF2D1BC3EA054540E834
:1079A8000254002CE8D14FF001028DF80320019316
:1079B800019B9DF803200B6002F0FF0322B14B8866
:1079C8000068184403B030BD1846FBE70A884B88A6
:1079D8009A4209D150E8022FC2EA224240E8022323
:1079E800002BF7D1012070470020704701F01F02DB
:1079F8004B090121914000EB830000F028B801F009
:107A08001F0301229A404B0900EB8300D14300F089
:107A180034B84B0901F01F0150F82300C84000F0AA
:107A28000100704750E8002F0B4640E8003C9CF0EE
:107A3800000FF7D11046704750E8002F42EA0103C3
:107A480040E8003C9CF0000FF6D11046704750E823
:107A5800003F43EA010240E8002C9CF0000FF6D1F9
:107A68001046704750E8002F02EA010340E8003C46
:107A78009CF0000FF6D11046704750E8003F03EA2B
:107A8800010240E8002C9CF0000FF6D11046704728
:107A980050E8002F02EB010340E8003C9CF0000F87
:107AA800F6D11046704750E8003F03EB010240E86A
:107AB800002C9CF0000FF6D11046704750E8003FAC
:107AC800A3EB010240E8002C9CF0000FF6D1104611
:107AD80070470121FFF7B0BF0121FFF7B8BF0021B0
:107AE800FFF7C0BF10B590B1D0E9012301689B1A18
:107AF800DBB20A60013BDBB2FF2B026802D1002037
:107B0800107110BD11684C1C14600B70F2E70E2048
:107B1800F7E737B5054602A8002400F8014DFFF73E
:107B280081FE2A686B68116899420ED9481E106058
:107B380011F8014CEB68298A01FB0434AB68117910
:107B48001B1ADBB2994238BF13719DF80700FFF783
:107B58008DFE204603B030BD37B5054602A8002388
:107B680000F8013D0C46FFF75DFE2A681368591CB2
:107B78001160E968641A298AB4FBF1F41C709DF855
:107B88000700FFF773FE03B030BD826810B50446E6
:107B98002AB143690168006998470023A36010BDB2
:107BA8000EB403B5039929B102AA04AB42F8043D07
:107BB80000F072F802B05DF804EB03B070470A29D0
:107BC80038B504460D4602D10D21FFF7F8FFA3682A
:107BD8002268591CA160D554D4E901329A4204D3D1
:107BE8002046BDE83840FFF7D0BF38BD2DE9F84F33
:107BF8009946DDE90A431746824688460A46012621
:107C0800BA420FD24E4538BF4E4613F0010B01D190
:107C180064B900240125B9F1010F1AD909F1FF3916
:107C28007D43F8E7B2FBF7F20136E9E79B070ED58B
:107C3800B9F1000F0CBF30252025A642EAD2013C3D
:107C480029465046FFF7BBFF002CF6D1E1E7202577
:107C5800F3E7B8FBF5F39F42E2D9DFF83890B8FBB9
:107C6800F5F3504619F8031005FB1388FFF7A7FF33
:107C7800B5FBF7F5002DF2D1BBF1000F02D00CB126
:107C8800A64201D3BDE8F88F20215046013CFFF7FA
:107C980096FFF4E788DB02002DE9F74F054690468A
:107CA8000E46002900F03A8116F8011B002958D029
:107CB800252940F0D180002702E047F00107164649
:107CC800324612F8013B2D2BF7D0302B04D02B2B4A
:107CD80005D147F00407F2E747F00207EFE7002471
:107CE8002A2B06F101021BD1D8F80030191D1B6898
:107CF800C8F800101C44164633782E2B1CD10136C8
:107D08004FF0000A314611F8012BA2F13000092882
:107D180014D80A2303FB0A23A3F1300A0E46F1E71D
:107D280012F8013CA3F130010929E5D80A2101FB29
:107D38000434303C1646D3E74FF0000A324612F8B6
:107D4800011B01F0FB0068281646F8D0692916D0F7
:107D580054D8582970D00ED825297DD03378002BD7
:107D6800A2D12B7B002B00F0D980284603B0BDE8B8
:107D7800F04FFFF70ABF632968D06429EED1D8F81D
:107D88000020D2F80090111D89EAE972C8F80010A5
:107D9800A2EBE9724FF0010B092A61DCD34538BF29
:107DA800D3462CB1B9F1000F01DB790700D5013CAE
:107DB800BA0702D5BAF1000F04D0FB0702D4002C91
:107DC80054D10024B9F1000F58DAC9F100092D2166
:107DD8002846FFF7F4FE07F00302022A05D1BAF19C
:107DE800000F02D1002C4DD10024CDE900475346A5
:107DF8000A2249462846FFF7F9FEAFE7732954D00F
:107E080016D87029AAD1D8F800301A1DC8F8002051
:107E1800302128461C68FFF7D2FE78212846FFF754
:107E2800CEFE00220823CDE9003221461022E1E7E8
:107E380075292FD0782991D1D8F800100A1DC8F8D3
:107E48000020CDE90047534610222CE0D8F8003036
:107E58001A1D1978C8F800202846FFF7B0FE7DE7FC
:107E68000A230BF1010B92FBF3F295E7A345A9D284
:107E780020212846013CFFF7A2FEA0E77807AAD5F3
:107E88002B21A5E7A345B0D230212846013CFFF7B6
:107E980096FEA7E7D8F80010CDE900470A1DC8F8F4
:107EA800002053460A220968A4E7D8F800301A1DB2
:107EB800C8F80020F907D3F8009012D54F46A7EB71
:107EC800090B17F8011B41B9A345BFF447AF20219F
:107ED8002846013CFFF773FEF6E72846FFF76FFEDA
:107EE800EDE7B9F1000F17D0484605F0C2FC074688
:107EF800BC4200D954B909F1FF3919F8011F00290A
:107F08003FF42CAF2846FFF75AFEF6E72021284613
:107F1800013CFFF754FEEBE74F46E9E703B0BDE845
:107F2800F08F2DE9F047B0F806904479D2F800A018
:107F38009DF8208009FB04F4043C06460AEB030084
:107F4800A0420F4688BFA4EB030A191DC2F800A07F
:107F5800B1FBF9F509FB15114DB9A9EB010454451D
:107F680028BF5446BAF1000F04D1BDE8F08736683F
:107F7800013DF1E704317B1970182246B8F1000F72
:107F88000ED001461846AAEB040A05F0F4FBD145C9
:107F9800254436684C464FF0000128BF5446E1E7B7
:107FA8001946F0E7FFF79EBDF8B546790146721EFF
:107FB8000546002393422D6803D30024A64202D825
:107FC800F8BD0133F6E70F682846FFF7C5FD013411
:107FD8003946F3E72DE9F843068ACD1C0746FFF733
:107FE80098FD043E35440446B5FBF6F5F0B14FF470
:107FF8008073EDB28380C680013D076081464FF0F3
:108008000008A84512D23846FFF783FD064648B156
:1080180063790133637108F10108C9F8000007604A
:108028008146EEE72046FFF7BFFF34462046BDE80D
:10803800F88301210430FFF736BD10B5012104464D
:108048000430FFF73BFD10F0FF0F04D12046BDE8D8
:108058001040FFF7A9BF10BD1FB504AC44F8042DAC
:10806800002200922246FFF75CFF04B010BD1FB546
:1080780004AC44F8042D012200922246FFF751FF78
:1080880004B010BD41DF7047064B10B500241C70CA
:10809800054B1C60BFF35F8F0449054800F039F8B1
:1080A800204610BDB0730020B473002098DB020096
:1080B800A873002007B502A8002300F8013DFFF7C8
:1080C800B1FBF1EE103A23F09F03E1EE103ABFF353
:1080D8005F8F0A4B4022C3F884219DF80700FFF701
:1080E800C5FB04F0D7F920B1FFF7CCFF03B05DF86A
:1080F80004FB20BF40BF20BFF8E700BF00E100E05D
:10810800836800225A609A60C3E90422DA601A6020
:1081180070470B684A684360934208BF00230160B8
:1081280008BF43607047436843B10268916852686A
:108138000B449342436004BF002343607047000030
:108148000D4930B5A1F594720225914201D800205D
:108158000EE08B1ADB1093FBF5F302EBC30452F825
:108168003330834205D802D204F10802EDE7606893
:1081780030BD2146E9E700BFE8DC020008B5FFF79B
:10818800DFFF024B002808BF184608BDADDB020020
:1081980070B5064E0546002456F824300BB1284623
:1081A80098470134042CF7D170BD00BFC473002078
:1081B800033080B240F2FD33984230B51FD8124BDD
:1081C8001A783AB91C895D892C440444A4B2B4F5E0
:1081D800806F0AD31A7DA2B99A8BDC8B22440244A1
:1081E80092B2B2F5806F0CD201220A801446142292
:1081F80002FB04335A8910445881002030BD0920FD
:10820800FCE70720FAE700BFF87300200B4A0C4B85
:108218005188142000FB0131CB6833B90420496828
:1082280010700122074801F06FB805230649137042
:1082380002238B80012200230968F3E7DC73002006
:10824800F8730020E8680020C074002007B50023F8
:1082580005490093054A09680548082300F0BEFF50
:1082680003B05DF804FB00BFC0740020B0E002005A
:10827800E868002007B50023009301460823034A55
:10828800034800F0ABFF03B05DF804FBA8E0020070
:10829800E868002013B500230C4600930146042328
:1082A800074A084800F09AFF38B9074B142202FB26
:1082B80004340123237402B010BD0E20FBE700BF75
:1082C800A4E00200E8680020F873002037B50A48E7
:1082D8000A4B42689C881968538803250333057044
:1082E8009BB2002000909B0001EB8401044800F041
:1082F80075FF03B030BD00BFDC730020C0740020E0
:10830800E868002010B501460448FFF7FAFA1C2275
:108318000446002105F058FA204610BDAC74002030
:108328004388033300EB8303994209D382884FF6CD
:10833800FF739A4206D00088B0FA80F0400970476F
:1083480002207047012070472DE9F8430223DFF827
:1083580060800B800D46174600F5805600F1080432
:108368004FF00109B4420FD2236801330CD03146D3
:108378002046FFF7D5FF48B10FB187F800900228D3
:108388000BD14FF480632B80BDE8F883A368D8F83D
:108398000020934201D9C8F800302B886288033343
:1083A80013442B806388033304EB8304DAE700BFAC
:1083B800F0730020144A142303FB002070B50B68E7
:1083C80044680D4604F580569BB15C88033403EB82
:1083D8008404B4420BD22368013308D031462046C6
:1083E800FFF79EFF012809D005D30228F1D100200C
:1083F80003E00834EDE72C60012070BD6388033387
:1084080004EB8304E5E700BFF8730020436873B505
:1084180005460C466BB3254AD1688B4229D31269AD
:10842800934226D813F0030223D1214900890989F0
:1084380088421ED12868996888421AD11D4948681F
:10844800834203D900F5805083420ED38A69934250
:108458000DD902F58052934209D2012323800020CE
:10846800B0FA80F0400902B070BD1346F6E70A2062
:10847800F6E7002323801E462388012B01D900201C
:10848800F1E7019601A92088FFF794FF18B923881E
:1084980001332380F0E7019B2A6899689142F1D162
:1084A8006B60034B1B892B81DDE700BFE868002068
:1084B800DC730020F87300202DE9F8431C461E4B9E
:1084C8001B7806460F461546002B30D0002A30D0C0
:1084D8007CB3DFF86C804FF01409A388012B01D915
:1084E8000A201AE009FB03F318F80330BBB1A3888C
:1084F8000133A380F1E723681EB19988328891423D
:108508000DD11FB119883A88914208D19A68C5E9F6
:1085180000230A4B1B892B810020BDE8F8832146E4
:10852800A088FFF747FF0028E5D12060DFE7022099
:10853800F3E70520F1E700BFD4730020DC730020C7
:10854800F873002008B5074B191D5888FFF732FF4C
:1085580018B1BDE80840FFF7B9BEBDE80840FFF70D
:1085680055BE00BFDC7300202DE9F04FA04FDFF8A7
:10857800A49289B00646B8463B6823B949469D4847
:10858800FFF7F9F93860D8F8005029784B1E052B09
:1085980000F21281DFE813F006007600760006018B
:1085A80006015D0126B1944B00225A60012424E0A3
:1085B8002B79032B1DD8DFE803F01502424D8F49B4
:1085C8000B78022B084631D00B7D022B4FF00103AC
:1085D8002ED114225343C2180020C8545068FFF704
:1085E80049FE03E001232B71FFF730FE002800F05D
:1085F800D380814B00225A600E241422002103A844
:1086080005F0E2F841F61D539C4208BF0024D8F853
:10861800003004941A78023A042A00F2D381DFE881
:1086280012F0B401C001E301EB01F2010023D0E72D
:10863800714A13700023536041F61D54DDE77049F9
:108648007048002302222B718A800122096800F0F9
:108658005BFECBE76A4C00262E712068674DFFF75A
:1086680009FE694BD4F800C05A8814235343EA180A
:10867800EE5451682160A188C2F804C01181022219
:10868800A280B3E7B5F814A0AA7DDFF870B1AEB147
:10869800022AEB8806D9142101FB0AB1DA1C0889E1
:1086A80002440A81142202FB0ABAC3F57F43BAF8CE
:1086B8000A20FD331344AAF80A3077E7142303FB92
:1086C8000AB318895C6804EB8004062A05D8DFE839
:1086D80002F0264C34421C5866000F24AA7DEB8811
:1086E800022A06D9142101FB0AB1DA1C08890244BE
:1086F8000A81142202FB0ABAC3F57F43BAF80A209A
:10870800FD331344AAF80A3077E74048404900236C
:108718004360AB690360FFF779FE00285AD0022353
:10872800AB75002300930423EA182146354800F06E
:1087380055FD002830D00E24D0E72B69002B0CBF44
:1087480001230323AB750023009305F10C020423D6
:1087580004F10801EAE70123AB750022EB880092D7
:108768009B002A6904F10C01E0E7032914BF0623E2
:108778000523AB7500230093042305F10802E118D3
:10878800D4E70623AB75224B1988204B5868FFF7AE
:1087980081FD04460028A1D109B0BDE8F08F41F65B
:1087A8001D549BE7002E7FF401AF2B79012B33D0AA
:1087B80004D3022B3FF440AF0F241EE702232B7192
:1087C8000DF10A01EB68039303A8CDE90466FFF7EE
:1087D8001DFE08B90A2410E70498BDF80A1083881A
:1087E800EB8003882B81FFF755FD044627E000BF87
:1087F800F4730020AC740020D4730020F8730020B8
:10880800C0740020E8680020DC730020B8730020E2
:10881800CC740020EC730020DFF808A203AA5346AA
:108828003146A81DFFF748FE044660B9BAF804109F
:108838000498FFF72FFD04460A2C3FF4FDAE002CE8
:108848007FF4DBAEA8E708223146504604F0BCFFAF
:10885800F2E7002E7FF4AAAE6D4B1A7BB2B11E73FD
:108868001A78013A062AA7D801A151F822F000BFC8
:108878001F89020045890200638902006989020094
:10888800C18702006F890200858902001A78072AC9
:10889800E6D801A151F822F0C188020069880200D7
:1088A80069880200E7880200FB8802001B89020031
:1088B8001B890200E38802001A89564901321A818D
:1088C80000225A801A730A78B2FA82F252099A720E
:1088D8000A7DB2FA82F25209DA72012207E04E49A1
:1088E80058688A884088033202448A8002221A70B3
:1088F800B6E7484C5A884849142505FB02420868DF
:10890800546850608888108102228A800C60062290
:10891800EDE70722EBE79A7A32B9DA7A8AB90022C8
:108928001A705A805A6087E63A4900229A72CA68D1
:10893800002AF2D1097C0029EFD05A80FFF702FE05
:1089480053E70022DA72334A116A0029E7D192F814
:108958002420002AE3D00122EFE7FFF7B7FC44E721
:10896800FFF754FC41E706221A702A4A5B88142153
:1089780001FB03235868FFF77DFC36E707221A70CE
:1089880000225A60FFF762FC2FE701228DF80C20C5
:108998001A89ADF818209A88DB68ADF81A20059373
:1089A80010E002228DF80C201A89ADF818209A8858
:1089B800ADF81A20DA689B7D05929A1F53425341FD
:1089C8008DF81C3003A8FFF7E3FB0026494613483F
:1089D800C8F80060FEF7FAFF01211148FFF76EF8AA
:1089E80000287FF4C9ADD7E603228DF80C20DA8879
:1089F800ADF818201A89CFE70422DB888DF80C20FF
:108A0800ADF81830DEE705238DF80C30DAE700BF43
:108A1800DC730020F8730020C0740020AC740020C0
:108A2800BC740020D07400204068FFF79DBD000092
:108A380008B501210448FFF72BF818B9BDE808402C
:108A4800FFF792BD08BD00BFBC7400202DE9F341BB
:108A58009846354B1B7806460D46002B5BD00029FF
:108A68005BD009884FF6FF73994258D06B88002B6A
:108A780055D06B689B0754D14AB92F890DF1020173
:108A88003846FFF795FB30B102B0BDE8F081138896
:108A98005788ADF8023001A8FFF734FC044658B9EE
:108AA800BDF80230214A142101FB032358890338F9
:108AB800C01B58810820E7E700238375BDF8023002
:108AC80083826B68036180F8008001211848FEF7F3
:108AD800EAFF2B882381B8F1030F6B88A38004BFBA
:108AE8000423A3754FF0000508BF3368E06008BF92
:108AF800A361E780658101A90E48FEF72CFF36B116
:108B0800E36833600C4B75601B89B5723381FFF7DE
:108B18008FFF0020B8E70220B6E70520B4E704205D
:108B2800B2E70320B0E700BFD4730020F873002039
:108B3800F0730020AC740020DC73002008B5084BEB
:108B48001A68042A09D01968064A42F82100012146
:108B58001846FEF7A8FF002008BD0C20FCE700BF60
:108B6800C8740020C47300202DE9F04F89B0142286
:108B7800002103A804F028FE7D4A137803F0FF01C2
:108B8800009190463BB103A8FFF702FB0026304650
:108B980009B0BDE8F08F101DFEF79BFF05460028C1
:108BA800F4D140F6F8734FF080521B68DFF8ECA15F
:108BB8005C1C04BF6F4B1B6811695269581C08BFC5
:108BC80002FB01F3CAF810300022A3F540536A49AA
:108BD800CAF80C30504600F0CDFA06460028D6D127
:108BE8001C238C2265496648FEF756FE3746B34675
:108BF8004FF003093446CDF804A0019BD9680BEB6C
:108C0800010002465BF80110002835D05D4B9942FF
:108C180032D141685C4B994215D0013399422BD12E
:108C2800009BDFF870A1002B59D100225749CAF8E0
:108C38000000FFF789FBBAF80420022A14BF0822B3
:108C4800042217433AE052494FF0140C0CFB04FC81
:108C580001EB0C024FF0000E01F80CE050600CF133
:108C680010020CF1080C0A446144FFF76DFB47F051
:108C780002070134A4B221E000F5805C11680131DB
:108C880067D104329445F9D1424A116829B90221C1
:108C980001231060918000930EE0142262433C4B44
:108CA8004FF0020E991803F802E03B4A48605480DE
:108CB8000134A1F808E0A4B247F001070BF5805B86
:108CC800BBF5405F99D1B9F1010F88BF3D46EDB2C0
:108CD800022D02D0062D12D0DDB90B2657E72C4BFA
:108CE8001422624399184FF0020C03F802C00134B1
:108CF800DAF800204A60A1F808C0A4B295E7012379
:108D080088F8003003A80023C8F80430FFF740FAB9
:108D18003DE702A8FFF7F6FAC8B10123013D037049
:108D28000A2D09D8DFE805F006080608070807082D
:108D38000F110F000023037102A91148FEF70BFE63
:108D4800FFF776FE23E70323F5E70223F3E7082678
:108D58001DE70F491422624301EB020C09F1FF39A8
:108D6800CCF8040003201FFA89F9885481E700BF72
:108D7800D473002014100010C4E0020020740020F6
:108D8800AC740020DEC0ADDEFE011EF1C47400200C
:108D9800F8730020C0740020DC730020E86800200D
:108DA80073B50D460446C8B1C1B10DF10601FFF710
:108DB8002DFBA8B10B4BBDF806006668142202FB18
:108DC800003001210C30FEF76EFE63682E600C3314
:108DD8006B600123A372002002B070BD0520FBE781
:108DE8000A20F9E7F873002013B50446A8B10DF17D
:108DF8000601FFF70BFB90B10B4ABDF806301421B2
:108E080001FB0323DA6862B1A27A52B1DA68002062
:108E1800013ADA60A07202B010BD0520FBE70A2013
:108E2800F9E70620F7E700BFF873002002230022C5
:108E3800FFF70CBE18B103230022FFF707BE052079
:108E4800704707B5ADF8060002A820F8041D0146D2
:108E58000DF10600FFF730FB03B05DF804FB29DFD6
:108E6800704728DF704770B503689D6886B0044670
:108E78000E466DB114220021684604F0A5FCA368D3
:108E88000593237901962BB1012B0DD06846A8478D
:108E980006B070BD01238DF8003023690293E368A2
:108EA800039363690493F1E702238DF80030E368C4
:108EB8001B030293F5E7084670470020704700003F
:108EC800024B187A003018BF0120704774750020D3
:108ED800034B187A0122B0FA80F05A74400970479F
:108EE8007475002008B510461A4604F044FC0020AA
:108EF80008BD000008B514220021044804F064FCF1
:108F08000348FEF7DCFC002008BD00BF7475002094
:108F18006475002010B5094C094B43602046FEF7E4
:108F2800D8FD40B903F0B6FA1C2320748C220549F9
:108F38000548FEF7B1FC002010BD00BF7475002085
:108F4800B8E00200D87400206475002070B5244D84
:108F5800244E2B7A2C463BB923492448FEF70BFDB7
:108F6800306008B9686070BD0223237233681A79CB
:108F780072B1012A24D018460321FFF774FF002399
:108F88002372636018491948BDE87040FEF71EBD9A
:108F9800D3E90520121AB2F5805F28BF4FF480523A
:108FA800D3E903159208012A014438BF0122284455
:108FB800FFF755FF50B11128DDD101232372D2E705
:108FC800D3E903021044FFF74CFFF3E7237C002B9F
:108FD800C9D10146BDE87040022000F009B800BFC1
:108FE800747500208C750020887500206475002039
:108FF80038B5831E012B45D8234C237A002B41D04A
:10900800022B09D1032830D0204B1B680022E260D4
:109018001A793AB1012A22D0637C7BBBBDE838407B
:10902800FFF794BFD3E905128D1AB5F5805F94BF99
:10903800521902F580529A619142EDD102284FF0FF
:10904800000308BF19462372104B18BF0D2118687A
:10905800FFF709FF0E490F48FEF7B8FCDCE71A696D
:1090680001321A615B699A42E7E7E3680133082B2A
:1090780001D8E360D0E70023E360DFE7BDE83840CC
:1090880003F0F8B938BD00BF747500208C75002056
:10909800887500206475002000F0FD03012B08D1BD
:1090A800044B00225A74421E504250411874FFF774
:1090B8004DBF70477475002010B5064C201DFEF793
:1090C80008FD28B9637C1BB9BDE81040FFF73EBF17
:1090D80010BD00BF747500202DE9F34180460D4690
:1090E8000F4801A916461F46FEF70BFC0446A8B117
:1090F8001C22002104F068FB2D0B0123237101A918
:10910800C4F80080A760E56066610548FEF723FCA7
:10911800FFF7D2FF002002B0BDE8F0810420FAE793
:10912800647500202DE9F74381468846104801A957
:1091380017461E46FEF7E5FB0446B0B11C22002187
:1091480004F042FB00250A9BA36001A92571C4F81D
:109158000090C4E9037866610548FEF7FCFBFFF759
:10916800ABFF284603B0BDE8F0830420FAE700BF50
:109178006475002007B50B4688B9124B1248134A8C
:10918800C01A0E23C0080093114B0004114940F087
:109198000100FDF765FC0E2003B05DF804FB4BB938
:1091A800084B09480C4AC01AC0080E230093000453
:1091B800074BEBE703601B68114603B05DF804EB4F
:1091C800184700BF90D90200D8D9020091E10200E7
:1091D800E4E0020096E102000DE202002DE9F3410D
:1091E80088B93D4B3D483E4AC01AC0080E243D4B45
:1091F800009400043C4940F00100FDF731FC204692
:1092080002B0BDE8F0814AB9334B3448374AC01A36
:10921800C0080E2400040094324BEBE7D0F800C0DD
:10922800BCF1000F09D12C4B2C48314AC01AC00898
:109238000824000400942B4BDCE74BB9264B274845
:109248002C4AC01AC008092400040094254BD1E711
:109258004768D7F80480B3FBF8F708FB17374FB116
:109268001D4B1E48244AC01AC00809240004009453
:109278001C4BBFE78F0709D0174B18481F4AC01A65
:10928800C008102400040094164BB3E712F0030F33
:1092980009D0114B11481A4AC01AC00810240004FA
:1092A8000094104BA6E7C768B9420BD34C1E05695A
:1092B8001C44AC4206D8DCF80C40A44602B0BDE819
:1092C800F0416047044B05480E4AC01AC0081024F4
:1092D80000040094034B8DE790D90200D8D902000E
:1092E80091E10200F6E0020096E1020013E20200BA
:1092F80007E20200C6E1020019E2020043E20200AE
:109308005BE202007EE20200F7B580B92A4B2B48E7
:109318002B4AC01AC0080E242A4B009400042A497C
:1093280040F00100FDF79CFB204603B0F0BDD0F8EB
:1093380000C0BCF1000F09D11F4B2048234AC01AB6
:10934800C0080824000400941E4BE8E74AB91A4BE9
:109358001A481F4AC01AC008092400040094194B6F
:10936800DDE74768D7F800E00EF1FF370F4209D074
:10937800114B1248174AC01AC00810240004009460
:10938800104BCCE7C768B9420CD34C1E05690EFBDD
:109398000244AC4206D8DCF81040A44603B0BDE84D
:1093A800F0406047044B05480B4AC01AC008102417
:1093B80000040094034BB2E790D90200D8D9020008
:1093C80091E1020009E1020096E1020007E20200D1
:1093D800C6E102001CE1020042E102000C4B1B78CE
:1093E800062B10D10B4B1B681A070CD10A4B1868B7
:1093F80000F0F003302B08D000F0E000A0F14003AB
:10940800584258417047002070470120704700BFFC
:10941800E00F00F0E40F00F0E80F00F0094B1B78B4
:10942800062B0CD1084B1B681A0708D1074B186884
:1094380000F0F000A0F13003584258417047002076
:10944800704700BFE00F00F0E40F00F0E80F00F0F5
:1094580008B5FFF7C3FF28B17D4B7E4A1B68C3F3ED
:1094680004231360FFF7DAFF10B17B4B7B4A1A60C5
:10947800FFF7B4FF28B17A4B7A4A1B68C3F342332B
:109488001360FFF7CBFF20B1774AD36823F08073CE
:10949800D360FFF7A3FF40B14FF080430022C3F829
:1094A8000C21C3F81021C3F83825FFF7B7FF10B116
:1094B8006E4B03221A60FFF7B1FF40B16C4B0522D7
:1094C8001A6001229A6700229A603F225A60694B0B
:1094D8001B78062B50D1684B1B6819074CD1674B7A
:1094E8001B6803F0F003502B46D14FF08052644BB9
:1094F800D2F80414C3F82015D2F80814C3F82415B8
:10950800D2F80C14C3F82815D2F81014C3F82C1587
:10951800D2F81414C3F83015D2F81814C3F8341557
:10952800D2F81C14C3F84015D2F82014C3F8441517
:10953800D2F82414C3F84815D2F82814C3F84C15E7
:10954800D2F82C14C3F85015D2F83014C3F85415B7
:10955800D2F83414C3F86015D2F83814C3F8641577
:10956800D2F83C14C3F86815D2F84014C3F86C1547
:10957800D2F84424C3F87025FFF730FF28B1414BD7
:10958800414A1B6803F04F031360FFF727FF48B1F8
:109598004FF08043D3F80024D20744BF6FF0010294
:1095A800C3F80024394B1B68062B08D1384B1B68BD
:1095B800062B01BF374A136843F480631360364AA9
:1095C800D2F8883043F47003C2F88830BFF34F8F65
:1095D800BFF36F8F4FF01023D3F80022002A03DB6C
:1095E800D3F80432002B2FDA2C4B0122C3F80425C0
:1095F800D3F80024002AFBD04FF010221521C2F81E
:109608000012D3F80024002AFBD04FF010231522B3
:10961800C3F80422214B1A46D3F800140029FBD0C2
:109628000021C3F80415D2F80034002BFBD0BFF397
:109638004F8F19491A4BCA6802F4E0621343CB6092
:10964800BFF34F8F00BFFDE7164B174A1A6008BDDE
:10965800240300104035014074C007400DF0ADBA36
:10966800440200103C050040F0ED00E0A005004079
:1096780010560040E00F00F0E40F00F0E80F00F093
:1096880000C0004058020010E40E004030010010F5
:10969800340100103C17004000ED00E000E00140FC
:1096A8000400FA05186900200090D003054A4FF01D
:1096B800A043105CD3F8043523FA00F0C04300F04F
:1096C80001007047B6E20200044B1A5C0123934084
:1096D8004FF0A042C2F80C35704700BFB6E2020056
:1096E800044B1A5C012393404FF0A042C2F808359E
:1096F800704700BFB6E2020008B50020FFF7F0FF90
:109708000120FFF7EDFF0220FFF7EAFF0320BDE885
:109718000840FFF7E5BF08B50020FFF7D5FF012097
:10972800FFF7D2FF0220FFF7CFFF0320BDE8084074
:10973800FFF7CABF074A4FF0A041105CD1F80435C3
:109748000122824022EA03001340C1F80805C1F84B
:109758000C357047B6E20200054A4FF0A043105C92
:10976800D3F8103523FA00F0C04300F00100704729
:10977800B2E202000D2809D00E2809D00F2809D01E
:1097880010280CBF03204FF0FF30704700207047AF
:109798000120704702207047014B185C704700BFDA
:1097A800B2E20200C20708B501460CD54FF0A0434B
:1097B8000322C3F84427C3F84827C3F84C27C3F843
:1097C8005027FFF799FF8B070AD54FF0A0430C22CB
:1097D800C3F83427C3F83827C3F83C27C3F8402711
:1097E80008BD000038B5084C04F1080305460028F8
:1097F80018BF1C4623682BB11A6822605B6828468C
:109808009847F7E738BD00BF9875002020B9054B89
:1098180001225A70FFF7E6BF012802D1014A907071
:10982800F8E770479075002020B9034B01225A7061
:10983800FFF7D8BF704700BF9075002038B50B4CB4
:10984800237883B90A486360A3602361E36000F06A
:10985800C7F8054602F01EFE08B900F0CFF801234C
:109868002370284638BD8525FBE700BF907500208A
:109878001598020037B502A80023094C00F8013DED
:10988800FDF7D0FFE368013BE360E56815B900F038
:10989800C7F8A5709DF80700FDF7E8FF03B030BDD5
:1098A80090750020012813B509D003D303281BD0D5
:1098B80002B010BD0F4B0122C3F88020F8E702A8C0
:1098C80000230D4C00F8013DFDF7ACFF23780BB9E0
:1098D800FFF7B4FFE3689DF807000133E360012355
:1098E800A370FDF7C3FFE3E700F088F8FFF7C2FFB6
:1098F800DEE700BF00E100E0907500201FB50378A7
:109908008DF800304368019383688DF80830C36888
:109918000393054A054B684653F8213052F8211045
:10992800984705B05DF804FBA4750020A8750020D1
:109938001FB503788DF800304368019383688DF86C
:109948000830C3680393054A054B684653F821302D
:1099580052F82110984705B05DF804FBA475002063
:10996800A8750020F0B5194B067891F81DE043F86A
:109978002620174B94460A6943F82620154B03F80E
:1099880006E00C4607460FCC89B06D460FC594E833
:109998000F0085E80F000496BEF1000F0AD0BCF155
:1099A800000F0D4A694608BF0022381D00F0ACFDC3
:1099B80009B0F0BDBCF1000F084A694608BF002293
:1099C80007F10C0000F08EFBF2E700BFA87500203D
:1099D800A4750020AC750020059902003999020091
:1099E800054A13792BB9012110601171537118467A
:1099F80070478520704700BFB0750020074B1A6874
:109A0800D2075FBFC02283F8002301221A604FF0FB
:109A180080430122C3F81825704700BF00E100E029
:109A2800044B01221A604FF08042D2F81834DB034D
:109A3800FBD470470C000040154B07B51A687AB183
:109A480000221A601B680093009B4FF0804301229C
:109A5800C3F808230F4B587910B95A711B689847F7
:109A68000D4B1A6882B100221A601B680193019B92
:109A78004FF080430222C3F80823064B1B680120DD
:109A880003B05DF804EB184703B05DF804FB00BFB2
:109A980000010040B07500200401004000F1804042
:109AA80000F5C040002382B0036003680193019B66
:109AB80002B07047800000F1A040D0F8003723F4CE
:109AC8004033C0F80037D0F8003743EA0141C0F806
:109AD80000177047054B4FF0FF32072843F8202046
:109AE80084BF1B1883F84820704700BFB875002052
:109AF80010B5164C94F8583033BBFF21E2180133E7
:109B0800202B82F83010F9D10021C8B2FFF7E2FF0C
:109B180001310C29F9D1042200210D4803F054FE2B
:109B28000C4BC02283F8062340221A604FF4BE7003
:109B3800FFF7B4FF084B4FF00042C3F8042301239A
:109B480084F85830002010BD0820FCE7B8750020C4
:109B58000C76002000E100E000600040034B93F821
:109B68005800003018BF0120704700BFB8750020AA
:109B7800F0B5394D2C18944694F93040002C68DA29
:109B88008E78C6F34006002E15BF00230823082749
:109B98000C27BB4201D10420F0BD55F82320013227
:109BA8004FEA830441D12F1845F823C087F8303095
:109BB80016B9EA1882F848008A78560716D4D707E3
:109BC80035D5820002F1A042D2F8006726F00206DD
:109BD800C2F80067214FC60800F0070C012202FAFC
:109BE8000CF217F806C042EA0C02BA558A780E78C9
:109BF80012F0020224D004F1804303F5C0430002AE
:109C0800D3F8102522F4473222F44072C3F8102505
:109C18003604D3F8102500F4F85006F440363043E3
:109C28001043C3F810050020B6E70133B1E74E78BA
:109C380000F5E0724FF0A047B60047F82260C9E788
:109C4800083B2B4493F8500040EA861683F850608E
:109C5800E9E70820A0E700BFB87500200C760020CF
:109C680038B5204C251895F93020072A18DD2244EC
:109C780092F848309B09032B0DD14FF0A043D3F83D
:109C88001035C34013F0010F0CBF02210321BDE8BA
:109C98003840FFF70FBF012B14BF03210221F6E75D
:109CA800D3B2072B1CD8930003F1804303F5C043BC
:109CB800D3F8100540F00100C3F8100502F1400088
:109CC800800080B2FFF7EAFE51B195F9303054F8C0
:109CD80023302BB1012303FA02F2034BC3F8042308
:109CE80038BD00BFB8750020006000400E4B03442B
:109CF80093F93020072A02DD0021FFF7DBBED3B23B
:109D0800072B10D8930003F1804303F5C043D3F821
:109D1800101521F00101C3F81015012303FA02F20E
:109D2800024BC3F808237047B87500200060004054
:109D38004FF0A043D3F8103523FA00F000F00100EB
:109D4800704700002DE9FF470024584A584E594DE6
:109D5800019401211368A2F5C040012B80B206D1FD
:109D6800D6F804330B4202D0FFF798FE0C430432B6
:109D7800AA424FEA4101EDD14F4B1B68012B0AD192
:109D88004FF4BE70FFF78AFE4FF0A04344F0004442
:109D9800D3F81035019314F0FF0F1AD0474F002560
:109DA8000126344210D0AB0003F1804303F5C043D1
:109DB800D3F81005D3F8101557F82530C0F3042050
:109DC800C1F3014103B198470135082D4FEA460612
:109DD800E7D1002C66DA00224FF0FF33CDE90223E9
:109DE800DFF8D8900127002634464FF0A04809EB49
:109DF800060393F95020531C45D0D2B222F0C00577
:109E0800E90804A8084402F0070310F804CC07FA8C
:109E180003F31CEA030F36D009EB050C92099CF9F1
:109E280030C059F82CA0BAF1000F0AD1032A2AD160
:109E38000DF1080E1EF801C04CEA030C0EF801C023
:109E480001E0032AF4D005F5E07110F80C0C58F87D
:109E580021101842C1F3014105D0022913D1032A68
:109E68000BD1114604E003290DD1032A05D10221A3
:109E78002846FFF71FFE0134E4B2BAF1000F02D002
:109E880011462846D0470136042EB0D154B14FF0C0
:109E9800A043019AD3F81035934203D00193029B53
:109EA8000393A0E704B0BDE8F08700BF006100405D
:109EB80000600040206100407C610040B8750020CF
:109EC800014B1B68184700BF147600200D4B9842C1
:109ED80037B50D4610D102A8002300F8013DFDF763
:109EE800A1FC094B1C7914B901221D601A719DF857
:109EF8000700FDF7BBFC14B9002003B030BD1120EA
:109F0800FBE700BF002000401476002000234350E8
:109F180082B043580193019B02B070470A4610B5BE
:109F28004FF48E71FFF7F2FF136A9168C95C136AE8
:109F380001331362C0F81C1510BD024608B54FF472
:109F480092710068FFF7E2FF4FF484711068FFF721
:109F5800DDFF136801221A6008BD8B690A4610B537
:109F68004FF4847123B9FFF7D1FFD0F8183510BD2D
:109F7800FFF7CCFF536AD168D0F81805C854536A64
:109F880001335362F3E700001FB501238DF8003059
:109F9800044BCDE90110D3E900126846904705B09B
:109FA8005DF804FB1C76002030B54C4AD2F8043327
:109FB80013F4007F85B015464FD0D2F82431002B1A
:109FC8004BD04FF492711046FFF7A0FF4FF4017386
:109FD800C2F80833424B93F8291009B9012151609E
:109FE8003E4902228DF80020D1F88024C1F880244F
:109FF80003929A690292DA6801920022C3E9062262
:10A008006846D3E9001290473448D0F81C315BB158
:10A0180033490A6A4B699A420A464BD291F828306A
:10A02800002B47D1FFF77AFF2C4AD2F8443193B17D
:10A038004FF4A2711046FFF769FF294B93F82910D6
:10A0480009B1012111609A692AB100229A61586AFE
:10A05800D968FFF799FF05B030BDD5F804335B0721
:10A06800D2D5D5F80831002BCED01D4C1B4821463F
:10A07800FFF773FF636AA2699A422346C4D1E26973
:10A08800E1684AB12369E3600023606AA261E36181
:10A098006362FFF779FFB7E794F829200AB901222C
:10A0A8006A600E4A4FF40170C2F8080300229A61F0
:10A0B800586AEEE74FF48E710848FFF727FF516999
:10A0C8000029B1D00023029191688DF800300191E8
:10A0D80053616846D2E900139847A5E7002000407D
:10A0E8001C7600202DE9F843564F047991462C221E
:10A0F80002FB0472064692F82A200D46002A40F018
:10A108009A8051490068FFF7E1FE8046002840F038
:10A11800958029683368481C0BD04FF0A040012275
:10A128008A40C0F8082501F5E0724FF0030C40F8AA
:10A1380022C06868421C1FBF00F5E0724FF0A04CB7
:10A148004FF0000E4CF822E0AA6995F814C0C3F845
:10A1580024256A7DBCF1010F4CEA0202C3F86C2584
:10A16800C3F81405C3F80C151DD1AA68511C1FBFEC
:10A1780002F5E0714FF0A0404FF0000C40F821C00C
:10A18800E968481C0BD04FF0A04C01208840CCF85F
:10A19800080501F5E0704FF0030E4CF820E0C3F815
:10A1A8000815C3F810252C236343FA18C2F8049045
:10A1B8002A69FA50B9F1000F2AD04FF48E7130682D
:10A1C8002D7FFFF7A3FE30684FF4A271FFF79EFEC4
:10A1D80032681E4BC2F80433120B51B20029A8BFD3
:10A1E80001F160404FEA4513BABF194802F00F0564
:10A1F80000F56140DBB2B4BF435580F8003302F08C
:10A208001F02012303FA02F24909124B43F82120E5
:10A2180033680422C3F800252C2303FB04730022AF
:10A22800C3E9062283F829205A61012283F82A20EB
:10A238004046BDE8F8834FF00808F9E74FF01108E9
:10A24800F6E700BF1C760020B19F020080000200E4
:10A2580014ED00E000E100E02DE9F843224F067913
:10A268004FF02C0909FB067480466569002D37D12B
:10A278006261A16025624FF48E71006884F82850ED
:10A28800FFF744FED8F80000012383602146FFF75A
:10A2980045FE6368A1462BBBD8F80050226A636963
:10A2A8009A4212D3D8F80030D3F81C21002AFBD0E8
:10A2B8000122DA6000202C2303FB06760023736159
:10A2C800BDE8F88394F8283043B9D5F81C31002B41
:10A2D800F8D049462846FFF721FEDFE70F20EAE7D6
:10A2E8001120EDE72846EBE71C7600200379044AA5
:10A2F8002C2101FB03235869003018BF0120704747
:10A308001C7600202DE9F843384E05792C2303FBF1
:10A31800056307465C6824B103684FF40170C3F80D
:10A3280008032C2303FB0563986950B1D8690028FA
:10A338003ED024B13B684FF40172C3F804231120C6
:10A3480034E09A61D9605862D8612C2303FB056315
:10A3580093F829301BB910B93846FFF7EEFD4FF0D6
:10A368002C0909FB05683868D8F80430002B34D16B
:10A378004FF4A271FFF7CAFDC1463868D0F82431FE
:10A38800D0F80821D0F84441B2B90CB9002BF4D068
:10A398002C2202FB05650022AA611BBB24BB95F891
:10A3A80029103B680122B1B11A600020BDE8F8838A
:10A3B8001961DA610120C8E7002BE9D1002CE7D147
:10A3C8004946FFF7CAFDD8F82430D8F818209A4231
:10A3D800D3D82346DCE75A60E7E74FF40173C0F8A7
:10A3E8000433E2E70320E1E70F20DFE71C760020D3
:10A3F8000023435082B043580193019B02B0704739
:10A408001FB501238DF80030044BCDE90110D3E9C5
:10A4180000126846904705B05DF804FB48760020B6
:10A428007FB5374AD2F82461002E48D010464FF441
:10A438009271FFF7DDFF02238DF80030D2F88034E7
:10A44800C2F880340393D2F83C3502932D4BDA6876
:10A4580001920022C3E906226846D3E90012904718
:10A46800274AD2F844317BB14FF4A2711046FFF766
:10A47800BFFF244B996939B10021C3E90611D96896
:10A48800D2F83C05FFF7BCFF1D4AD2F82031A3B132
:10A498004FF490711046FFF7ABFF1A4B596961B141
:10A4A800D2F84C150291002299688DF8002001918C
:10A4B8005A616846D3E90012904704B070BDD2F8DB
:10A4C8001031002BCCD04FF488711046FFF790FF65
:10A4D8000C4BD2F83C0599698842C1D1DC69D9682E
:10A4E80064B1D2F8005225F02005C2F800521A696A
:10A4F8009C61DA60DE61FFF783FFB1E79C61FAE7F0
:10A5080000200040487600202DE9F8435A4F06798C
:10A518009146242202FB0672044692F820200D463A
:10A52800002A40F0A28055490068FFF7CFFC80461A
:10A53800002840F09D8029682368481C0BD04FF004
:10A54800A04001228A40C0F8082501F5E0724FF0CA
:10A55800030C40F822C06868421C1FBF00F5E07277
:10A568004FF0A04C4FF0000E4CF822E0AA6995F885
:10A5780014C0C3F824256A7DBCF1010F4CEA02021D
:10A58800C3F86C25C3F80C15C3F814051DD1AA68C7
:10A59800511C1FBF02F5E0714FF0A0404FF0000CB6
:10A5A80040F821C0E968481C0BD04FF0A04C0120AE
:10A5B8008840CCF8080501F5E0704FF0030E4CF820
:10A5C80020E0C3F80815C3F8102524237343FA18AC
:10A5D800C2F804902A69FA50B9F1000F34D04FF448
:10A5E800887120682D7FFFF703FF4FF49071206872
:10A5F800FFF7FEFE4FF492712068FFF7F9FE20681E
:10A608004FF4A271FFF7F4FE22681D4BC2F8043321
:10A61800120B51B20029A8BF01F160404FEA45135F
:10A62800BABF184802F00F0500F56140DBB2B4BFAD
:10A63800435580F8003302F01F02012303FA02F2A7
:10A648004909114B43F8212023680822C3F8002543
:10A65800242303FB06730022C3E906225A61012260
:10A6680083F820204046BDE8F8834FF00808F9E752
:10A678004FF01108F6E700BF4876002029A4020031
:10A688001003020014ED00E000E100E001F0604377
:10A69800B3F1005F2DE9F041074632D11C4B067932
:10A6A800242505FB063598466C6964BB6A61A96078
:10A6B80000684FF49071FFF79BFE4FF4AC71386857
:10A6C800FFF796FE3B686A69A968C3F84415C3F8A2
:10A6D800482501229A606A68BAB9D3F82011D3F8DC
:10A6E800582149B9002AF8D00F20242303FB0686F5
:10A6F80000237361BDE8F081002A14BF0F200020F9
:10A70800F3E71020F6E71120F4E72046F2E700BF50
:10A71800487600200379044A242101FB0323586961
:10A72800003018BF0120704748760020F8B501F0C6
:10A738006043B3F1005F04460F465ED10379304DA4
:10A74800242101FB0351486820B121684FF40476A5
:10A75800C1F80863242101FB03539E6956B1D969E6
:10A76800002939D020B123684FF40472C3F80423B8
:10A77800112030E09A61DF60DE614FF48871206853
:10A78800FFF736FE4FF4A2712068FFF731FE236809
:10A79800C3F83475C3F8382516BB01221A6022792C
:10A7A800242101FB0251496809BBD3F81041D3F8B1
:10A7B8004411D3F8240114B909B90028F5D0242389
:10A7C80003FB02550023984214BF03201846994200
:10A7D800AB6118BF0F20F8BD1F61DA610126CCE715
:10A7E800D3F8002242F02002C3F80022D7E74FF442
:10A7F8000472C3F804230020EDE71020EBE700BF44
:10A80800487600200220FEF795BF00002DE9F047AA
:10A8180081460D46FEF7AEFF0328044604D8012DF5
:10A8280004D024D3022D2FD0BDE8F087194D47005E
:10A838003A18A918AE5C4A7852B1DFF86880164811
:10A8480042464FF40041FCF787FE08B988F80090AB
:10A858003B192B449A78114B1A55002EE4D0104B13
:10A868001B68002BE0D03046BDE8F04718470A487F
:10A87800FCF7B6FE074B04EB440213449E78074BE3
:10A888001B5DB342D0D1E8E7024B00EB40041C4407
:10A898006678E2E7D076002090760020E9760020FE
:10A8A800E47600206C76002002210078FFF7AEBF26
:10A8B80008B5094B1B7853B10020FEF711FF0120A2
:10A8C800FEF70EFF0320BDE80840FEF709BFBDE80C
:10A8D8000840FEF711BF00BF6D760020F8B57B4C2D
:10A8E800237805461BB100232370FFF7E1FF172DDE
:10A8F80000F28880DFE805F00C171743546576806E
:10A90800888D888D959A9A9A9A9AC4C9D1D9E4E47F
:10A91800FFF7CEFF6E48FCF763FE6E4B002204463D
:10A928001A702046F8BD0020FEF7C0FEF8B10020DE
:10A93800FEF7D6FE022D0CBF4FF4E1614FF47A61A9
:10A94800644B1D704FF400404FF4FA740025E0FB8F
:10A9580001454FF47A7200232046294602F046FE4C
:10A96800002201465A48BDE8F840FCF7F5BDFEF75D
:10A97800ABFE022D0CBFC8214FF4C871E0E70020E0
:10A98800FEF794FE40B10020FEF7AAFE4FF448718E
:10A99800504B03221A70D5E7FEF796FEC821F7E759
:10A9A8000020FEF783FE38B10020FEF799FE4FF431
:10A9B8007A61484B0422EDE7FEF786FE4FF4C87132
:10A9C800F7E70020FEF772FE48B10020FEF788FE88
:10A9D800404B05221A7041F69A110022C2E7FEF791
:10A9E80073FEF5E70020FEF7A5FE3A4B06221A7023
:10A9F800002240F6CD41B5E70020FEF765FE354B55
:10AA080007221A7000248CE701202070FEF792FEBE
:10AA1800EEE701202070FEF78DFE00224FF4804102
:10AA2800A0E7FEF778FE2B4B0C22EAE72A482B4ECC
:10AA3800FCF7D6FDD5F1110504461CD0D8B9012D77
:10AA480013D0C8235D434FF400474FF4FA70002138
:10AA58004FF47A720023C7FB050102F0C7FD2246B6
:10AA680001461D48FCF778FD04460220FEF72CFE3F
:10AA78000123337055E70220FEF732FE0023F8E782
:10AA8800FFF716FF134B1222BBE7FFF711FF002059
:10AA9800FEF71AFE0F4B1322B3E7FFF709FF012059
:10AAA800FEF712FE0B4B1422ABE7FFF701FF002065
:10AAB800FEF70AFE0120FEF707FE064B1522A0E767
:10AAC800FEF729FE034B1D709CE700BFE0760020CF
:10AAD800B0760020E8760020707600206D760020A1
:10AAE800044B1B68DB0703D5034B1878FFF7F6BE4A
:10AAF800704700BFDC760020E8760020032801D8E4
:10AB0800FEF72ABE00207047044B1B6813F00103B0
:10AB180001D0FFF7E3BE1846704700BFDC7600207F
:10AB280038B51C4B18601C4B10F002040546196020
:10AB38001AD01A4B1A480E221A700F22DA701022F5
:10AB48009A7111225A72042140F26662FCF7BAF92E
:10AB5800044648B9FCF70AFA044628B90146114ADE
:10AB68001148FCF7E7FC0446EB0711D50120FEF776
:10AB780019FE6CB921460D4A0D48FCF7DBFC04466A
:10AB880030B90C4A0C480121BDE83840FCF7D2BC6A
:10AB9800204638BDDC760020E4760020D076002000
:10ABA800DCE20200B1A8020000E30200E9AA020008
:10ABB80004E302000DA80200FCE20200032812D8F8
:10ABC800012A0BD1012908D100F10E02D2B200EB03
:10ABD80040000C4B1A540020704700220129F6D07F
:10ABE80009D3022901D007207047064B00EB40002B
:10ABF80018444270EFE7034B00EB400018448270A2
:10AC0800E9E700BFD0760020032808B512D8FEF780
:10AC1800C3FD800000F1A040D0F8003723F4403392
:10AC2800C0F80037D0F8003743F44033C0F8003795
:10AC3800002008BD0620FCE708B5012202210020FB
:10AC4800FFF7BCFF08B1072810D107220221012015
:10AC5800FFF7B4FF08B1072808D100210A220846E7
:10AC6800FFF7ACFF10B1072808BF002008BD00009F
:10AC78000388102B10B502D0112B1ED010BD1A4C12
:10AC88002168B1B901220846FFF798FF08B10728E3
:10AC980024D1072202210120FFF790FF08B10728DD
:10ACA8001CD1042202210020FFF788FF08B10728E1
:10ACB80014D1236801332360E0E70B4A1368013B92
:10ACC8001360002BDAD1FFF7B7FF0028D6D0074B67
:10ACD8001B68002BD2D0BDE810401847034B1B68F7
:10ACE800002BE6D09847E4E7F4760020F0760020C1
:10ACF80008B50020FFF788FF08B1062806D1012013
:10AD0800FFF782FF10B1062808BF002008BD000029
:10AD18000D4B10B518600C4629B10120FFF7EEFE67
:10AD280040B102232370094B1B6853B9BDE810409A
:10AD3800FFF782BFFFF7E2FE08B10B23F2E72070AE
:10AD4800F1E7002010BD00BFF0760020F476002067
:10AD58000369C1688B429DBF8268D21802F1FF3235
:10AD680003F1FF3394BF501A581A70472DE9F04188
:10AD7800D0E902670446F61B4068964288461546A5
:10AD8800384405D902F0F7FC3D44E560BDE8F081A0
:10AD98003246AD1B02F0EFFC2A4608EB060160685C
:10ADA80002F0E9FCF1E72DE9F843C5680646894653
:10ADB80017464FF000083469B3687068A54228BF89
:10ADC800E418013C621B5C1BBC4228BF3C46944211
:10ADD80028BF144649462844224602F0CCFCB368F2
:10ADE8002544AB4208BF00253F1BA044A144F560A1
:10ADF800E1D14046BDE8F88310B5114C114AA26173
:10AE08000223C4E90433104BE361A2644FF40073D6
:10AE18000E4A2362E264002310220D49A362E01D5A
:10AE28006362E362A3656365E365226502F0FFFC84
:10AE38000849204602F0FBFC2023A37110BD00BF87
:10AE4800F876002008E30200807700207077002061
:10AE580011E3020015E30200F8B5184C182300FBB3
:10AE6800033503FB00402544C46A012C0F461646EF
:10AE780011D003D3022C1BD000240AE02846FFF788
:10AE880067FF864205D8324639462846FFF76EFFE7
:10AE980034462046F8BD2846FFF75AFF8642344616
:10AEA80028BF0446224639462846FFF75FFFF0E7E9
:10AEB8002846BDE8F840FFF776BF00BFF8760020C7
:10AEC800FFF79ABF6DDF704779DF70477DDF704706
:10AED80064DF70472DE9F74F0C9CBDF834B0278824
:10AEE800002580468A4691462E46B8F80020B24290
:10AEF8000BDC35B12288013AD21B92B2FF2A39D82D
:10AF0800DA55002003B0BDE8F08FD8F8042052F8D5
:10AF18002600019000220DF1030101A8FFF7D8FFD8
:10AF28000028EFD19DF803204A4521D12288002D21
:10AF380014BF0020022002EB09010144594519DC25
:10AF48003DB9013292B2228003F802A02288013270
:10AF5800228022880DF103011A4401A8FFF7B8FFE7
:10AF68000028CFD121889DF803200A44228001259A
:10AF78000136BAE70C20C5E72DE9F341089CBDF876
:10AF880024501746CDE9004502220646FFF7A2FFE6
:10AF980048B9102239463046CDE9084502B0BDE827
:10AFA800F041FFF797BF02B0BDE8F0812DE9F04FFF
:10AFB80000231688138090F82D3085B007460D467B
:10AFC800144653B3082E01D80C2026E102A8FFF737
:10AFD80079FF002840F0218113880822CA54238869
:10AFE80001339BB21B222380CA542088013080B2CF
:10AFF800208006220DF10901284402F0BCFB2388B9
:10B008009DF8082006339BB212F0FE0218BF0122F9
:10B018002380EA54238801332380BB78FBB123883B
:10B028000433B342D0D802A8FFF74EFF002840F0FF
:10B03800F48023880322EA54238801339BB219221F
:10B048002380EA542388BDF8082001339BB2E9180D
:10B058002380EA54120A4A70238802332380FA783C
:10B068009AB12388D91CB142AED80221E954238869
:10B0780001339BB201212380E95423880B449BB2FE
:10B088002380EA5423880B4423807A68AAB1238852
:10B09800D91CB14298D8022192F90020E95423889A
:10B0A80001339BB20A212380E954238801339BB2E0
:10B0B8002380EA542388013323803B89002B40F006
:10B0C800A0803B8A5BB1CDE900462B4607220321CD
:10B0D80007F11000FFF750FF002840F09E803B8BDF
:10B0E8005BB1CDE900462B461522142107F1180063
:10B0F800FFF742FF002840F090803A6A002A40F0AB
:10B108008F80D7F82480B8F1000F30D0B8F8043019
:10B118002188981C8A1C0244B2423FF655AFFE288B
:10B128003FF652AF03336B54238801339BB2FF229F
:10B138002380EA54238801339BB22380B8F8002087
:10B14800EA54E918120A4A702088023080B2208036
:10B15800B8F804205AB1D8F8081000296AD0284451
:10B1680002F009FB2388B8F804201344238097F8D9
:10B178002C30002B40F09980387800284DD03B883F
:10B18800012B57D021888A1CB2423FF61DAF0128F7
:10B1980005D17B7802330B449E42FFF415AF023E83
:10B1A800761A04A9B6B221F8086DA818FFF78EFE22
:10B1B80098BB3978BDF80820022900F0BB807B785D
:10B1C800934202D3B24240F2B380012940F0B480E6
:10B1D8009BB29E42C0F0B080ADF808300821BDF89F
:10B1E8000830FE2B3FF6F0AE22880133AB5422889C
:10B1F800013292B22280A95422881344238000206D
:10B208000BE0CDE900462B460622022107F1080093
:10B21800FFF7B2FE00283FF454AF05B0BDE8F08F49
:10B22800B4F800C00CF10603B3423FF6CDAE118866
:10B23800052901D80720F0E76FF4486E01EB0E03EB
:10B248009BB24FF27D3E7345F4D95388052BF1D953
:10B258006FF44860181880B27045EBD94FF6FF704C
:10B26800814203D0834201D09942E3D8052305F8EF
:10B278000C30238801339BB212212380E9542388A0
:10B2880001339BB223801188E954E818090A4170F8
:10B29800238802339BB223805288EA54E918120AA1
:10B2A8004A702388023323802BE7BB6A002BC1D066
:10B2B8004FF000094FF00C0A4FF0160B97F82C309E
:10B2C8005FFA89F293427FF657AFB96A0AFB02F236
:10B2D80001EB0208B8F80430981CFE283FF674AE5B
:10B2E800208803332B54238801339BB2238005F82D
:10B2F80003B0238801339BB223808A5AEA54E918A1
:10B30800120A4A702088023080B22080B8F80420DF
:10B318005AB1D8F8081000298CD0284402F02BFA2A
:10B328002388B8F804201344238009F10109C5E7EC
:10B33800092154E7B242FBD9ADF808604EE770B571
:10B34800C0B14AB116880024B44203D305196D78F8
:10B358009D4208D0A14201D800200BE0055D0135CF
:10B368002C44A4B2F0E7A142F6D9A31C1380005DD7
:10B37800013880B270BD37B502AC002324F8023D15
:10B38800134622460546FFF7DAFF10B1BDF806005E
:10B39800284403B030BD72DF704773DF704774DF35
:10B3A800704738B5012204460D46B0F83812D0F877
:10B3B8003402FFF7E0FF00B1057004F13C0204F528
:10B3C8000D7104F15400BDE83840FFF7E4BFF8B54B
:10B3D800077804460D46002F00F0058100F24A2642
:10B3E800A17007220021304602F0EEF9E38813B17C
:10B3F800A378012B04D0E3794BB1A378022B06D1B3
:10B40800636BA3B1012284F8512208209847334680
:10B4180004F5147113F8012F12B99942FAD117469D
:10B428006B1E032B53D8DFE803F0050B0F1284F8CB
:10B438005132ECE7A3791BB194F8243003B95FB912
:10B44800E3790BB1002F44D1237A002B43D1637ADF
:10B45800002B0CBF00250425636BA570002B3CD086
:10B46800033D012D39D86279002A36D094F852224A
:10B47800002A32D184F85422012284F8532207206A
:10B48800984704F13C0518220021284602F09CF94F
:10B49800E36A94F824200121581E884288BF0B468D
:10B4A80084F83C1084F8513032B1884296BFA36AC0
:10B4B80084F8521084F85230A178002384F8503070
:10B4C80004291BD8DFE801F0770D22355900002543
:10B4D800C2E70225C0E70325BEE7002384F85332FC
:10B4E800CFE7C4F84432C4E910630223012284F888
:10B4F8003C30802384F83120A4F84830A378002B0E
:10B508005CD1636B002B6AD1002067E0022384F8CA
:10B51800313062B1072384F83C302369A4F84830FD
:10B528000023C4F84432E36826646364E6E703232F
:10B53800F1E763696364A369A4F8483012B106238C
:10B5480084F83C306379B3B194F852329BB994F8DB
:10B55800543283B1022384F8503004212046FFF787
:10B5680020FF0028CAD1052384F8313004F50D7373
:10B57800C4F84432C2E70323F6E7E3696364236A45
:10B58800A4F8483012B1062384F83C30637983B1BB
:10B5980094F852326BB994F8543253B1022384F8B8
:10B5A800503004212046FFF7FCFE0028A6D10623D0
:10B5B800DAE70423D8E784F831309FE72A46D4F83D
:10B5C800441204F15400FFF7E6FE38B994F830103D
:10B5D80094F85400FFF7E1FE002892D0F8BD94F8E3
:10B5E8003100984790E70820F8E70388112B10B539
:10B5F8000C460AD0262B1FD0102B05D1C37B012B5C
:10B6080002D18388A1F8483210BD0022838881F8CE
:10B618005222B1F848229A42F6D10B79002BF3D185
:10B6280001212046FFF7D3FE0028EDD0A36B002BA5
:10B63800EAD0BDE810401847037A013B012BE3D854
:10B6480089780523013191FBF3F303EB8303C91ACE
:10B65800C9B2E6E7704738B5044690F85400FFF7DA
:10B668009EFE012384F85232002384F8543284F871
:10B67800503006212046FFF794FE054638B9A178D8
:10B688002046FFF7A4FE10B1A36B03B198472846E4
:10B6980038BD75DF704776DF70477ADF70477BDF2C
:10B6A80070470000074B30B50022142404FB02F158
:10B6B800CD5A854201D1581830BD0132052AF5D13D
:10B6C8000020F9E79C790020024B9B6903B11847D9
:10B6D800704700BF8079002037B585B22846FFF74C
:10B6E800E1FF034670B1164C017A227B91420BD2DE
:10B6F80000F10A012846FFF7CCFFE8B1112801D074
:10B70800FFF7E2FF03B030BD237C0022027243B191
:10B718003B212846FFF7BFFF30F0080301D0FFF7B1
:10B72800D3FF6369002BEDD000228DF80420ADF81B
:10B73800065001A89847E5E71A7A01321A72E1E73C
:10B748008079002013B50B46497A0F4C024669B937
:10B75800D4E901101C7A002C18BF01465868FBF781
:10B76800FBFE08B1FFF7B0FF02B010BD002119724F
:10B778006369002BF8D00121ADF806008DF804109C
:10B7880001A89847F0E700BF807900208388B3F5C7
:10B79800FA7F28BF6FF4F97230B528BF9C18058866
:10B7A8004A8838BF002495420CD84088904209D373
:10B7B8008A88A24206D303F2F310904234BF0020D5
:10B7C800012030BD0020FCE70388112B70B504462A
:10B7D80049D002D8102B1ED070BD122B53D0502B3D
:10B7E800FAD1304BC288DB899A42F5D1038A022B01
:10B7F800F2D186883046FFF755FF05460028EBD082
:10B8080004F1120000F0A5F938BB6868FBF7E8FE00
:10B818000028E1D009E0C37B012BDDD14FF6FF7092
:10B82800FFF740FF054620B90420BDE87040FFF748
:10B838004BBF1D4AA6880680002303721368C5F80B
:10B848000A300A305368436004F11001FFF79EFF85
:10B85800144B6872DB89002BBED129463046BDE8FF
:10B868007040FFF76FBF8088FFF71CFF0446002871
:10B87800B2D04068FBF7B4FE08B1FFF725FF4FF6DA
:10B88800FF732380A8E786883046FFF70BFF05463D
:10B898000028A1D004F108010A30FFF777FF687289
:10B8A800DBE700BF80790020007A00202DE9F04115
:10B8B800064698B305460FCD1A4F3C460FC495E887
:10B8C800070084E807003068174B3B60F8B1FFF7C2
:10B8D800E4FE08BB31680A681A604A685A60134C6B
:10B8E800134FDFF8508000254FF6FF7607EB45131E
:10B8F80024F8046C2360424600212046FBF71AFE18
:10B9080070B90135052D04F11404EFD104E018468F
:10B91800FFF7C5FE0028E2D0BDE8F0810E20FBE766
:10B928000320F9E780790020007A0020A079002020
:10B93800087A0020E1B6020073B50191019C064621
:10B948006CB100252C46294601A8FCF762F818B10D
:10B9580006EB440301349D800135142DF3D13046A4
:10B96800346002B070BD00002DE9F043038884887C
:10B97800112B8DB0064640D01A2B43D0102B16D170
:10B98800294DAB680CA8DB4340F8303D55F8041F3F
:10B99800FCF773F8009901A8FFF7CEFF0027019B79
:10B9A8009F4207D3132C18D90420FBF70FFB0DB0C7
:10B9B800BDE8F08301AB03EB47034FF00008B3F891
:10B9C800049005EB0800494608F10408FCF717F84D
:10B9D800B8F1740FF5D10137E1E721461348FCF7B8
:10B9E80005F821461248FCF701F8F37B012BDED05D
:10B9F80010482146FBF7FAFFD9E70C482146FBF728
:10BA0800FEFFD4E7057A0C482D09012D214606D9F9
:10BA1800FBF7ECFF022D21460848F0D0EAE7FBF7D8
:10BA2800EEFF21460548EAE7A87A0020B07A002010
:10BA3800AC7A0020B47A0020B87A0020BC7A0020C2
:10BA480073B502AE002446F8040D2546214630465B
:10BA5800FBF7DFFF00B101350134142CF6D128467D
:10BA680002B070BD1328014602D80248FBF7D1BFC7
:10BA780000207047AC7A002007B5074AD36802A8AF
:10BA8800DB4340F8043D9168FBF7F7FF0198FFF7A7
:10BA9800D7FF03B05DF804FBA87A002013B5084A65
:10BAA800D368044602A8DB4340F8043D9168FBF7DD
:10BAB800E4FF20460199FFF73FFF204602B010BD82
:10BAC800A87A002010B50446FFF7CCFF002814BF61
