:020000022000DC
:10600000000001203D6202009562020097620200DA
:10601000996202009B6202009D6202000000000083
:106020000000000000000000000000009F6202006D
:10603000A162020000000000A3620200A56202004B
:10604000599B0200AB6202000D9E0200AF6202008B
:10605000B1620200B3620200B5620200B7620200E0
:10606000B9620200BB620200BD620200BF620200B0
:10607000C1620200C3620200C5620200C762020080
:10608000C962020099700200CD620200CF62020074
:1060900035710200D36202007DFA0200D76202006D
:1060A000D9620200DB620200DD620200DF620200F0
:1060B000E1620200E3620200A7620200A76202003E
:1060C000E5620200E7620200E9620200EB620200A0
:0C60D000ED620200EF620200F1620200CB
:1060DC00364937480A1A02D0072291438D46354972
:1060EC0035480A1A06D00722914381F30988022207
:1060FC0082F3148831483249324A00F045F832486C
:10610C003249334A00F040F832483349334A00F000
:10611C003BF833483349344A00F036F833483449B5
:10612C00344A00F031F834483449354A00F02CF840
:10613C0034483549354A00F027F8354835490022AE
:10614C0000F02DF834483549002200F028F8344886
:10615C003449091A082903DB00220260043001606B
:10616C00314A90471F482049884205D002680430C4
:10617C0003B4904703BCF7E700208646EC460020AA
:10618C0000212A4A9047FEE7884207D0521A05D0D0
:10619C00037801300B700131013AF9D17047884214
:1061AC0002D002700130FAE77047000000000120B5
:1061BC0000E0002000000120000001207813030003
:1061CC00C02D002014340020F4620200F46202009E
:1061DC001600030078130300C02D0020C02D0020F2
:1061EC00F0010300F0010300F0010300F0010300D3
:1061FC00F0010300F0010300F0010300F0010300C3
:10620C0078130300CC19030014340020143400203C
:10621C0014340020E4480020E4480020E448002026
:10622C00E4480020E448002061620200DDB2020074
:10623C000F484FF00701884385460E4880470E48AB
:10624C00016841F470010160BFF34F8FBFF36F8F92
:10625C00FFF73EBF09480A490A4A884207D0521A3A
:10626C0005D0037801300B700131013AF9D1704738
:10627C00000001206595020088ED00E08801030014
:10628C00582D0020C02D0020FEE7FEE7FEE7FEE7BC
:10629C00FEE7FEE7FEE7FEE7FEE7FEE7FEE7FEE7CA
:1062AC00FEE7FEE7FEE7FEE7FEE7FEE7FEE7FEE7BA
:1062BC00FEE7FEE7FEE7FEE7FEE7FEE7FEE7FEE7AA
:1062CC00FEE7FEE7FEE7FEE7FEE7FEE7FEE7FEE79A
:1062DC00FEE7FEE7FEE7FEE7FEE7FEE7FEE7FEE78A
:0862EC00FEE7FEE7FEE700BF3C
:1062F400F0B595B01C46164608460D4602F0D1FE90
:106304001A9B0D93CDE9086400242346082205A9AD
:1063140028460A948DF82C400C9402F0FEFE079B4C
:106324000293BDF81830ADF80C30BDF81A30ADF852
:106334000E309DF814308DF8114003F00302012A49
:106344001DD1BDF81440059EC3F3C203C4F38314E6
:106354008DF81030A20008230EA9284602F0DDFEB5
:10636400C6F3952608AB0093224602AB0EA930462D
:1063740000F0EAFB284602F098FE15B0F0BD022AB0
:10638400F8D1BDF81640C3F3C203A4098DF8103048
:106394000827082C264628BF08263B4632460EA965
:1063A400284602F0BAFEA41B08AB02AA31460EA886
:1063B400374400F02DFC002CEBD1DBE7014B01222C
:1063C4001A707047553400207047000070B50E4DA8
:1063D40006460FCD88B06C460FC495E80F0084E8DC
:1063E4000F0008A9002E4FF00603084A41F8203D8B
:1063F40008BF0022064803F037FB08B100F09EFDF9
:10640400044B1E7008B070BDF0010300C1630200AC
:10641400C02D00201434002007B5044B0093044A17
:106424004023FFF765FF03B05DF804FB3964020005
:106434001534002038B50D4B0D4D002018700D4853
:1064440004782D5DD2B21C4665B1043004F0A6F97F
:1064540008B100F073FD084B1A7812B12378002BB1
:10646400FBD038BD0C3003F011FFF1E755340020A8
:10647400CC3C0020C02D00201434002008B508486E
:10648400084A0378D35C3BB1043004F023F90020BC
:10649400BDE80840FFF79ABF0C3003F093FEF6E71F
:1064A400C02D0020CC3C00200120FFF78FBF00004E
:1064B40010B5054CFFF7F8FF0421204600F0B4FAAC
:1064C4000123637210BD00BFD42D0020037813F0A4
:1064D400030F03F0040202D012B910467047B2B1A0
:1064E40003F00303012B03D0022B09D001207047D2
:1064F4000A6800880232C0F3831002440A60F5E798
:106504000B684288023303EB92130B60EEE70B68CF
:106514004288013303EB92130288F4E72DE9F04F2C
:1065240089B00546861C08A8484C019200230F46F2
:1065340000F8113D00F0E8FF23683B60D4E9012333
:106544001344226801339B1A04F21C4704F5836A3E
:1065540004F21448B3421AD3019A0023002A6DD0DE
:10656400012262F3010343F0040365F389132168F4
:10657400A2689DF80F000A4003320E4444F822300A
:10658400266000F0E5FF012009B0BDE8F08F01218D
:10659400384602F047F8504602F05DF8404602F0F3
:1065A4005AF80DF120096068D4F808B049F8100DC4
:1065B40000EA0B00033004EB80004946FFF786FF36
:1065C400049BB0B90BEA030204EB8202D168059183
:1065D4009A1C013303EA0B0B04EB8B0C01F003034D
:1065E400012B0492DCF80CB020D0022B04D083469B
:1065F4000BE00BEA0300DDE7BDF816309B0903331B
:106604004FEA1B4B02EB93030493404602F026F837
:1066140008B1049B63605946384602F003F8D4E994
:1066240001231344226801339B1A93E7BDF8143005
:10663400C3F383134FEA1B4B1344E5E7022262F3CF
:10664400010343F0040365F39F5390E728350020CA
:1066540008B50E4B0E48FF229A600022C3F8182496
:10666400C3E90022C3F8142483F8202402F0D2FCE6
:1066740038B9084A084B09499B1ADB0802469A4272
:1066840000D108BD21F822200132F8E72835002086
:1066940048010300A000030048010300582D002016
:1066A40030B50B4C79B10B4A0B49121BD2080023AD
:1066B4009A4201D1002030BD01EB83056D888542EB
:1066C40002D00133F4E7034654F83300F3E700BF84
:1066D400A000030048010300582D0020094B013994
:1066E40003EBC000032909D8DFE801F00A0204061D
:1066F4000420704700797047407970470020704744
:1067040002207047A0000300034BD3E90030C31AF2
:1067140058425841704700BF283500202DE9F04306
:1067240087B0FFF7F1FF0746002840F0F5807B4D66
:10673400C5F81804BFF34F8F6868AC680DF11808EA
:1067440048F8100D2040033005EB80004146FFF768
:10675400BDFE029B064600285FD104EA0302991C91
:10676400013305EB8202234005EB8303D268DB6827
:10677400049302F00303022B0392029162D1BDF849
:106784000E3067484FEA9318B8F1500FC14628BF3E
:106794004FF0500969F38F1309F10801ADF80E3079
:1067A40002F050FC0746002800F0A48002F079FCB7
:1067B400334603A90822384602F086FC029924EAEB
:1067C40001060136B600B14535D95FFA89F97EB3C1
:1067D400F6B2A9EB0609214003315FFA89F4B14608
:1067E400504E05EB810108234A46384602F06CFC02
:1067F40036B109F1080322463146384602F064FCFA
:10680400029B08F1030803EB98030293D5F81834AC
:10681400002B4AD1D5F8104458E02A689A4204D88B
:106824006A60384607B0BDE8F08304EA03008AE7EB
:106834003C493446D7E72140033108234A4605EB57
:106844008101DAE7012B55D1BDF80C303448C3F38C
:106854008311062928BF062161F3891302318900B7
:10686400ADF80C3002F0EEFB0746002842D002F0EF
:1068740018FC3346082203A9384602F025FCBDF86B
:106884000C20C2F38312B31C96424FEA8303BDD299
:1068940002994A1C21400331029205EB8101042232
:1068A400384602F011FC0136E9E7384602F0FDFBF8
:1068B400FFF72AFF80F00100C7B2B2E7637A23B181
:1068C400236839461B68204698476468002CF5D134
:1068D400384602F0EAFB06A800F8114D00F014FE59
:1068E400D5F818340BB9029B6B609DF8070000F0D3
:1068F4002FFEDDE7D5F8104444B90B4B0B4918883B
:10690400000440F0020000F06BF8D1E72368204651
:106914009B6898476468EFE7002782E728350020E2
:1069240048010300343500206C2D00201C020300B4
:106934002DE9F74F284C80460F46924601A90122C3
:1069440018469B46D4F80890FFF7E8FD88B3019DEC
:106954000026A91C5E4506EB010234D100211F4824
:1069640001F01FFE80F310006A1C02EA090204EB26
:106974008202000405EA0903033340EA1840D060A8
:1069840014F8232068F3C50204F8232034F82320E4
:1069940066F3891224F8232054F82320012167F395
:1069A4009F2244F8232061F301026FF3820204F86A
:1069B400232094F820341BB1FFF7B0FE0028FBD14C
:1069C40003B0BDE8F08F09EA020204EB82025AF830
:1069D4002630D3600136BDE7283500204439002035
:1069E40000231A46FFF7A4BF13B502AC012344F8F1
:1069F400042D2246FFF79CFF02B010BD07B5CDE978
:106A0400002302236A46FFF793FF03B05DF804FBFB
:106A14001FB5CDE90123069B039301AA0323FFF7C6
:106A240087FF05B05DF804FB0F4A30B5D2F8104477
:106A34000023214641B90372D2F810444CB9C2F87C
:106A440010044160184630BD0D7A9D4205D0496856
:106A5400F0E7626842606060F4E701330A2BE8D132
:106A64004FF0FF33EEE700BF28350020084A38B561
:106A74000123D2F8104482F820341D4604B938BDED
:106A84002368657220465B6898476468F6E700BF30
:106A940028350020037A052B10B50C460FD0437A15
:106AA40023B1084A0849204601F039FE0749204627
:106AB40001F035FE2046BDE8104001F025BE002A55
:106AC400F8D0F3E7770203007C0203009C02030082
:106AD400C38873B504460D4633B1144A0092144971
:106AE400144A284601F01BFE217A05291CD0637A3A
:106AF4004BB1A088FFF7F2FD0F4B104953F820204B
:106B0400284601F00CFE227A0D4BA08853F822602F
:106B14000021FFF7C5FD0B4903463246284602B063
:106B2400BDE8704001F0FBBD02B070BD7702030008
:106B3400870203007F020300440203007C02030077
:106B4400AC0203009F0203002DE9F04385B01F4609
:106B54000C9D002306460C46904695F80C902B732A
:106B640029463846FFF7B4FFB8F1060F09D8DFE825
:106B740008F00412181F283340003146284601F05B
:106B8400CEFD002229463846FFF784FF85F80C9095
:106B940005B0BDE8F08322683146284601F0BFFD08
:106BA400EFE7D4E900233146284601F0B8FDE8E7D1
:106BB400A36800933146D4E90023284601F0AFFDD1
:106BC400DFE7E3680193A36800933146D4E9002327
:106BD400284601F0A4FDD4E723690293E3680193F6
:106BE400A36800933146D4E90023284601F097FDB9
:106BF400C7E76369039323690293E3680193A36876
:106C040000933146D4E90023284601F088FDB8E713
:106C140008292DE9F84F80460E4617461C4636D8FB
:106C2400002593F80C901D7319461046FFF750FF8A
:106C3400DFF87CA0DFF87CB0AE422AD918F8052032
:106C44005946204601F06BFD0135082DF4D1164953
:106C5400DFF864B0204601F062FD0025AE421DD984
:106C640018F805A0504609F00DF9002814BF524643
:106C74002E225946204601F052FD0135082DEDD152
:106C8400012221463846FFF705FF84F80C90BDE841
:106C9400F88F5146204601F042FDD5E703492046CE
:106CA40001F03DFDE9E700BF72020300700203003A
:106CB4006E02030068020300740203002DE9F04F22
:106CC4003B4F89B000263B4B1B78F5B2AB4202D850
:106CD40009B0BDE8F08F384B196811F8350001246C
:106CE400A0F12002C0F1200304FA02F924FA03F30C
:106CF40049EA0309D7E9002304FA00F8CDE904239B
:106D040002EA080203EA0903134301EBC50B4CD062
:106D1400DDE9042322EA080223EA0903C7E9002380
:106D2400079103F067F80799844611F83500A0F13C
:106D34002002C0F1200324FA03F304FA02F21A43F6
:106D440004FA00F300931D4B0192DDE90045D3E9F9
:106D5400002314401D4022462B465FFA8CF4002584
:106D6400CDE90445049CA0F12005AC400394049CA7
:106D7400C0F1200124FA01F1039C0C43049903940B
:106D840081400291DDE90245AB4208BFA2420CD129
:106D94009BF801104B1E59425941A1EB0C02DBF840
:106DA40004305142514103B1984701368BE700BF8B
:106DB400803900204C39002088390020783900209F
:106DC4002DE9F84F0646244800F08EFB002841D1F7
:106DD4000123A6F12001C6F1200203FA01FB23FAE4
:106DE40002F203FA06FA1D4BD3E900014BEA020B47
:106DF40000EA0A0801EA0B0958EA09021F4623D1EE
:106E0400304602F0F7FF164BB8B1D3E9000140EA6F
:106E14000A0441EA0B05C3E90045D7E900234BEA1C
:106E24000305104B0C4819684AEA0204C7E90045F7
:106E34000022BDE8F84F00F013BBD3E9000120EABB
:106E44000A0421EA0B05E6E720EA0A0421EA0B0515
:106E5400C3E90045BDE8F88F54390020803900208B
:106E64007839002050390020042A2DE9F3410546E1
:106E74000C4616463AD902F0E3FED8B11C4B1D4924
:106E84001D601D4BDFF884801C701C4B00221E60AB
:106E94000023C1E900231A49C1E90023013CE4B2FB
:106EA40000260327FF2C0CD1164A1748002100F0B6
:106EB400C5FA03E002F088FE0028DFD002B0BDE886
:106EC400F08123B205EBC30201A992788DF8052065
:106ED40015F833008DF8066042468DF8047002F010
:106EE400B9FE013CE4B20028DCD0E7E70720E5E77F
:106EF40088390020783900204C390020503900208E
:106F040080390020C16C02000C030300C56D02002F
:106F140070B5084D084E00242B789C4201D3002004
:106F240070BD3368012113F8340002F00BFF013403
:106F3400F2E700BF4C390020883900201FB500213A
:106F4400039001AA44F20100CDE9011100F004F814
:106F540005B05DF804FB000010B572B6FFF786FDBE
:106F6400FFF7DCFB0028FBD1104C114920880004FA
:106F740040F00100FFF734FD0E4B1B68DB0700D522
:106F840000BE20880C49000440F00200FFF728FDF1
:106F9400BFF34F8F09490A4BCA6802F4E0621343F6
:106FA400CB60BFF34F8F00BFFDE700BF6C2D002007
:106FB40010030300F0ED00E01C03030000ED00E00B
:106FC4000400FA05094A537891780133DBB29942F7
:106FD40008BF0023117899421FBF0370507818230B
:106FE40003FB002014BF0430002070478C390020BC
:106FF40073B5054602A8002400F8014D0E4600F0C2
:1070040083FA0DF10600FFF7DDFF90B106700A4B1D
:107014009DF8062045605A709DF8070000F098FA24
:1070240024B9064B4FF48012C3F80021204602B065
:1070340070BD0424F0E700BF8C39002000E100E0BB
:10704400024B4FF43C6043F0010318473003030044
:1070540038B50C4B0C4C4FF40032C3F8802001259A
:107064004FF48033C4F84833C4F808336560FFF73D
:10707400E7FF064BA56000241C60FFF7E1FF044B0B
:107084001C7038BD00E100E000100140A83A002067
:10709400993A0020F8B51F4B1F491B680025C1F819
:1070A4004051C1F84451C1F84851C1F84C51C1F89C
:1070B4000051C1F804514BB3D1F80445174909688C
:1070C400641A24F07F442F461A68A24209D8A41AED
:1070D40015441A7CDE691AB11F74D3E90520904760
:1070E400AEB90F4B0F4A197813788B4205D101338F
:1070F400DBB2022B08BF0023137012780A4B43F84B
:1071040022500A4B4FF48012C3F80021F8BD3346D5
:10711400DAE700BFAC3A002000100140A83A002092
:10712400A43A0020A53A00209C3A002000E100E0A7
:107134002DE9F74F9E4A9F49137809789E4D99424D
:107144003CD00133DBB2022B08BF002313709B49F0
:1071540012789B4B0F6853F822003B1823F07F43AF
:1071640000220B602B6816461446944613B942B1AC
:107174002B6006E0196881420ED902B12B60091A0E
:1071840019604FF001082B68DFF83CA20093002738
:10719400BEB9DFF83CB260E0401A0C44D968C3F8C9
:1071A40000C0D3F81CE031B13A1922F07F42C3E9A0
:1071B4000121DE611E4601227346D7E70026B04650
:1071C400E1E73446F6697D4A63681268DFF804C271
:1071D400A068991A21F07F41614500F2A58001441D
:1071E4002160012222742A680023C4E90133E36187
:1071F400002A40F0A2802C60CAE75A1C9BF80210B7
:10720400D2B291428BF8002004BF00228BF80020F8
:10721400182202FB03B32A6819799C68022974D0E6
:1072240003297ED0012918D1217CB1B9DA686260C2
:107234001A69A2605A699B69A361624BE2601B7878
:10724400002BC0D06160BEE79C4200F09380994659
:10725400DB69002BF8D1002323749BF800309BF8E2
:1072640001209A42C9D12B682FB9009A934202D1C6
:10727400B8F1000F43D0002B79D0D3F800A0524DC1
:107284004E4BD5F804751C68DFF84C813E1B98F80A
:10729400003026F07F4603369BB94FF48033C5F89F
:1072A4004433C5F80433494B4FF400324FF001091D
:1072B400C3F880211A60C5F80090FFF7C1FE88F872
:1072C4000090B2452CBF5444A41924F07F44C5F85F
:1072D4004045D5F80435DB1B23F07F43E41B03331F
:1072E40024F07F44A3420AD9D5F80435C5F84035C3
:1072F400FFF7A6FE354B4FF40032C3F80021314BA3
:1073040000221A7003B0BDE8F08F13469146A0E73F
:107314001174D2690123002AFAD1002B9DD02A606E
:107324009BE700231946F6E7D31A23F07F438342F1
:1073340034BFC31A0023236053E7216813689942BA
:1073440013D8591A1160E26155E7091AD8691A4627
:1073540038B1034618688842F7D3401A18601846B3
:1073640013462160E061DC6112E71346F2E7FFF7A0
:107374006FFEC4E74C450DD1D3692B6053B90F4858
:1073840001920121CAF8081003600E4B1970FFF72F
:1073940057FE019AE1692368C9F81C1011B1086805
:1073A40003440B602B689A4218BF012753E700BFC0
:1073B400A43A0020A53A0020AC3A0020A83A0020C4
:1073C4009C3A0020983A00200010014000E100E0BF
:1073D4008C390020FEFF7F00993A002008B5FFF7A2
:1073E40037FE104B00200B2218809A700E4B186049
:1073F4000E4B18700E4B18700E4B4FF48012E02198
:10740400C3F8802183F814131A6002F18042A2F5B4
:107414006F22C2F8080583F81113074BD2F804252C
:107424001A6008BD8C390020AC3A0020A43A002030
:10743400A53A002000E100E0A83A0020074B9B7821
:107444004BB132B128B10368187C20B959745A6120
:107454007047072070470820704700BF8C39002010
:107464002DE9F7431D4FBB7805460E4690469BB366
:1074740090B304292ED9436973B3437C02A8002432
:10748400012B00F8014D0CBF8946A14600F03CF8E1
:107494000DF10600FFF796FDD0B101230370104BE8
:1074A4004560D3F80435C0E90498C0E902369DF874
:1074B40006307B709DF8070000F04AF824B9094BA8
:1074C4004FF48012C3F80021204603B0BDE8F083D6
:1074D4000424EFE70724F7E70824F5E78C390020B4
:1074E4000010014000E100E0064A92783AB130B160
:1074F400426922B1002202740221FFF779BD0820FB
:10750400704700BF8C39002070B5EFF3108672B657
:107514000C4A946801239CB993600B4B0B4DD3F830
:10752400801029401160C3F88050D3F88410516052
:107534004FF0FF32C3F88420047006B962B670BD00
:107544000370FAE7B03A002000E100E0FC06FFBD5A
:10755400084B9A6810B55AB150B9EFF3108172B65E
:10756400054A1C6814605C685460986001B962B68E
:1075740010BD00BFB03A002000E100E070B5064E37
:107584000546002456F824300BB1284698470134A8
:10759400042CF7D170BD00BFC83A0020033080B27C
:1075A40040F2FD33984230B51FD8124B1A783AB9DD
:1075B4001C895D892C440444A4B2B4F5806F0AD3B9
:1075C4001A7DA2B99A8BDC8B2244024492B2B2F5A2
:1075D400806F0CD201220A801446142202FB043369
:1075E4005A8910445881002030BD0920FCE7072047
:1075F400FAE700BFFC3A00200B4A0C4B51881420D8
:1076040000FB0131CB6833B90420496810700122B2
:10761400074801F0F1BA05230649137002238B8051
:10762400012200230968F3E7E03A0020FC3A002035
:10763400AC2D0020B43B002007B50023054900937E
:10764400054A09680548082301F052FA03B05DF8B9
:1076540004FB00BFB43B002044030300AC2D002016
:1076640007B50023009301460823034A034801F0A9
:107674003FFA03B05DF804FB3C030300AC2D00208B
:1076840013B500230C46009301460423074A084817
:1076940001F02EFA38B9074B142202FB04340123FB
:1076A400237402B010BD0E20FBE700BF38030300B3
:1076B400AC2D0020FC3A002037B50A480A4B42683A
:1076C4009C88196853880325033305709BB20020F6
:1076D40000909B0001EB8401044801F009FA03B017
:1076E40030BD00BFE03A0020B43B0020AC2D0020A8
:1076F40010B50146044800F088FE1C22044600210F
:1077040008F024FC204610BDE02D002043880333FC
:1077140000EB8303994209D382884FF6FF739A42A0
:1077240006D00088B0FA80F0400970470220704704
:10773400012070472DE9F8430223DFF860800B80B5
:107744000D46174600F5805600F108044FF0010974
:10775400B4420FD2236801330CD031462046FFF7E0
:10776400D5FF48B10FB187F8009002280BD14FF430
:1077740080632B80BDE8F883A368D8F80020934287
:1077840001D9C8F800302B886288033313442B8056
:107794006388033304EB8304DAE700BFF43A002080
:1077A400144A142303FB002070B50B6844680D468B
:1077B40004F580569BB15C88033403EB8404B44223
:1077C4000BD22368013308D031462046FFF79EFFD1
:1077D400012809D005D30228F1D1002003E00834A0
:1077E400EDE72C60012070BD6388033304EB830450
:1077F400E5E700BFFC3A0020436873B505460C4634
:107804006BB3254AD1688B4229D31269934226D897
:1078140013F0030223D121490089098988421ED12A
:107824002868996888421AD11D494868834203D957
:1078340000F5805083420ED38A6993420DD902F534
:107844008052934209D2012323800020B0FA80F0B1
:10785400400902B070BD1346F6E70A20F6E700239C
:1078640023801E462388012B01D90020F1E70196CD
:1078740001A92088FFF794FF18B9238801332380D6
:10788400F0E7019B2A6899689142F1D16B60034B40
:107894001B892B81DDE700BFAC2D0020E03A0020DE
:1078A400FC3A00202DE9F8431C461E4B1B78064683
:1078B4000F461546002B30D0002A30D07CB3DFF8B9
:1078C4006C804FF01409A388012B01D90A201AE017
:1078D40009FB03F318F80330BBB1A3880133A38079
:1078E400F1E723681EB19988328891420DD11FB106
:1078F40019883A88914208D19A68C5E900230A4B4D
:107904001B892B810020BDE8F8832146A088FFF75E
:1079140047FF0028E5D12060DFE70220F3E70520D8
:10792400F1E700BFD83A0020E03A0020FC3A0020FA
:1079340008B5074B191D5888FFF732FF18B1BDE889
:107944000840FFF7B9BEBDE80840FFF755BE00BFC9
:10795400E03A00202DE9F04FA04FDFF8A49289B05F
:107964000646B8463B6823B949469D4800F087FD62
:107974003860D8F8005029784B1E052B00F212818C
:10798400DFE813F0060076007600060106015D01CB
:1079940026B1944B00225A60012424E02B79032B56
:1079A4001DD8DFE803F01502424D8F490B78022BF6
:1079B400084631D00B7D022B4FF001032ED1142247
:1079C4005343C2180020C8545068FFF749FE03E02F
:1079D40001232B71FFF730FE002800F0D380814B88
:1079E40000225A600E241422002103A808F0AEFAE3
:1079F40041F61D539C4208BF0024D8F8003004947B
:107A04001A78023A042A00F2D381DFE812F0B401B2
:107A1400C001E301EB01F2010023D0E7714A1370C6
:107A24000023536041F61D54DDE77049704800237C
:107A340002222B718A800122096801F0DDF8CBE76C
:107A44006A4C00262E712068674DFFF709FE694BCA
:107A5400D4F800C05A8814235343EA18EE545168EA
:107A64002160A188C2F804C011810222A280B3E778
:107A7400B5F814A0AA7DDFF870B1AEB1022AEB8884
:107A840006D9142101FB0AB1DA1C088902440A81CF
:107A9400142202FB0ABAC3F57F43BAF80A20FD3365
:107AA4001344AAF80A3077E7142303FB0AB31889AE
:107AB4005C6804EB8004062A05D8DFE802F0264C53
:107AC40034421C5866000F24AA7DEB88022A06D98A
:107AD400142101FB0AB1DA1C088902440A81142228
:107AE40002FB0ABAC3F57F43BAF80A20FD331344F4
:107AF400AAF80A3077E74048404900234360AB695D
:107B04000360FFF779FE00285AD00223AB750023E7
:107B140000930423EA182146354800F0E9FF0028C1
:107B240030D00E24D0E72B69002B0CBF0123032394
:107B3400AB750023009305F10C02042304F1080142
:107B4400EAE70123AB750022EB8800929B002A69C7
:107B540004F10C01E0E7032914BF06230523AB75E8
:107B640000230093042305F10802E118D4E7062357
:107B7400AB75224B1988204B5868FFF781FD0446EA
:107B84000028A1D109B0BDE8F08F41F61D549BE750
:107B9400002E7FF401AF2B79012B33D004D3022BB9
:107BA4003FF440AF0F241EE702232B710DF10A01AD
:107BB400EB68039303A8CDE90466FFF71DFE08B93B
:107BC4000A2410E70498BDF80A108388EB80038820
:107BD4002B81FFF755FD044627E000BFF83A00204B
:107BE400E02D0020D83A0020FC3A0020B43B0020CD
:107BF400AC2D0020E03A0020BC3A0020C03B00201D
:107C0400F03A0020DFF808A203AA53463146A81D23
:107C1400FFF748FE044660B9BAF804100498FFF769
:107C24002FFD04460A2C3FF4FDAE002C7FF4DBAE9E
:107C3400A8E708223146504608F088F9F2E7002EFA
:107C44007FF4AAAE6D4B1A7BB2B11E731A78013A57
:107C5400062AA7D801A151F822F000BF077D02002F
:107C64002D7D02004B7D0200517D0200A97B0200A4
:107C7400577D02006D7D02001A78072AE6D801A11B
:107C840051F822F0A97C0200517C0200517C0200D0
:107C9400CF7C0200E37C0200037D0200037D02002E
:107CA400CB7C02001A89564901321A8100225A807B
:107CB4001A730A78B2FA82F252099A720A7DB2FAF7
:107CC40082F25209DA72012207E04E4958688A8822
:107CD4004088033202448A8002221A70B6E7484C74
:107CE4005A884849142505FB0242086854685060C4
:107CF4008888108102228A800C600622EDE7072220
:107D0400EBE79A7A32B9DA7A8AB900221A705A8081
:107D14005A6087E63A4900229A72CA68002AF2D168
:107D2400097C0029EFD05A80FFF702FE53E70022B6
:107D3400DA72334A116A0029E7D192F82420002A22
:107D4400E3D00122EFE7FFF7B7FC44E7FFF754FC69
:107D540041E706221A702A4A5B88142101FB032397
:107D64005868FFF77DFC36E707221A7000225A6034
:107D7400FFF762FC2FE701228DF80C201A89ADF879
:107D840018209A88DB68ADF81A20059310E00222C7
:107D94008DF80C201A89ADF818209A88ADF81A20AD
:107DA400DA689B7D05929A1F534253418DF81C302B
:107DB40003A8FFF7E3FB002649461348C8F8006010
:107DC40000F088FB0121114800F037FC00287FF403
:107DD400C9ADD7E603228DF80C20DA88ADF8182057
:107DE4001A89CFE70422DB888DF80C20ADF818300F
:107DF400DEE705238DF80C30DAE700BFE03A002017
:107E0400FC3A0020B43B0020E02D0020B03B0020D1
:107E1400C43B00204068FFF79DBD000008B5012168
:107E2400044800F0F4FB18B9BDE80840FFF792BD20
:107E340008BD00BFB03B00202DE9F3419846354B07
:107E44001B7806460D46002B5BD000295BD00988C1
:107E54004FF6FF73994258D06B88002B55D06B684E
:107E64009B0754D14AB92F890DF102013846FFF717
:107E740095FB30B102B0BDE8F08113885788ADF8A6
:107E8400023001A8FFF734FC044658B9BDF80230AB
:107E9400214A142101FB032358890338C01B58814C
:107EA4000820E7E700238375BDF8023083826B68FE
:107EB400036180F800800121184800F0B3FB2B888F
:107EC4002381B8F1030F6B88A38004BF0423A37537
:107ED4004FF0000508BF3368E06008BFA361E78086
:107EE400658101A90E4800F0BAFA36B1E36833603F
:107EF4000C4B75601B89B5723381FFF78FFF00202F
:107F0400B8E70220B6E70520B4E70420B2E703206F
:107F1400B0E700BFD83A0020FC3A0020F43A002031
:107F2400E02D0020E03A002008B5084B1A68042A26
:107F340009D01968064A42F821000121184600F0C8
:107F440071FB002008BD0C20FCE700BFBC3B0020F7
:107F5400C83A00202DE9F04F89B01422002103A86B
:107F640007F0F4FF7B4A137803F0FF010091904679
:107F74003BB103A8FFF702FB0026304609B0BDE879
:107F8400F08F101D00F064FB05460028F4D14FF07B
:107F940010234FF080525B6911695269DFF8DCA14C
:107FA400581C08BF02FB01F3CAF810300022A3F5E5
:107FB40040536949CAF80C30504600F06BFD064640
:107FC4000028DAD11C238C226449654800F0E8F9C2
:107FD4003746B3464FF003093446CDF804A0019B5D
:107FE400D9680BEB010002465BF80110002835D07C
:107FF4005C4B994232D141685B4B994215D00133B5
:1080040099422BD1009BDFF86CA1002B59D100229F
:108014005649CAF80000FFF78DFBBAF80420022A7B
:1080240014BF0822042217433AE051494FF0140CBC
:108034000CFB04FC01EB0C024FF0000E01F80CE009
:1080440050600CF110020CF1080C0A446144FFF773
:1080540071FB47F002070134A4B221E000F5805C13
:108064001168013167D104329445F9D1414A11684C
:1080740029B9022101231060918000930EE014229B
:1080840062433B4B4FF0020E991803F802E03A4A60
:10809400486054800134A1F808E0A4B247F0010715
:1080A4000BF5805BBBF5405F99D1B9F1010F88BF37
:1080B4003D46EDB2022D02D0062D12D0DDB90B26BD
:1080C4005BE72B4B1422624399184FF0020C03F820
:1080D40002C00134DAF800204A60A1F808C0A4B252
:1080E40095E7012388F8003003A80023C8F804307A
:1080F400FFF744FA41E702A8FFF7FAFAC8B10123EF
:10810400013D03700A2D09D8DFE805F006080608CA
:10811400070807080F110F000023037102A9104874
:1081240000F09DF9FFF77AFE27E70323F5E7022322
:10813400F3E7082621E70E491422624301EB020CFF
:1081440009F1FF39CCF8040003201FFA89F9885497
:1081540081E700BFD83A002048050300243B0020F3
:10816400E02D0020DEC0ADDEFE011EF1B83B002094
:10817400FC3A0020B43B0020E03A0020AC2D002063
:1081840073B50D460446C8B1C1B10DF10601FFF740
:1081940033FBA8B10B4BBDF806006668142202FB42
:1081A400003001210C3000F03DFA63682E600C337E
:1081B4006B600123A372002002B070BD0520FBE7B1
:1081C4000A20F9E7FC3A002013B50446A8B10DF1E2
:1081D4000601FFF711FB90B10B4ABDF806301421DC
:1081E40001FB0323DA6862B1A27A52B1DA68002093
:1081F400013ADA60A07202B010BD0520FBE70A2044
:10820400F9E70620F7E700BFFC3A00200B4B1B7888
:1082140037B504460D4663B168B10DF10601284631
:10822400FFF7BCF918B9BDF806302380658003B0A8
:1082340030BD0220FBE70520F9E700BFD83A002053
:10824400104B1B7810B5B3B1B8B10288022A16D806
:108254000D494388142404FB02129C1C51898C424E
:108264000DDAC3F57F43FD330B44538100230380B0
:108274004380184610BD0220FCE70520FAE70420DD
:10828400F8E700BFD83A0020FC3A0020022300227D
:10829400FFF7D2BD12B10223FFF7CEBD0520704710
:1082A40018B103230022FFF7C7BD05207047000063
:1082B400104B1B7813B50446ABB14FF6FF739842CD
:1082C40013D001A8FFF714FA88B105230370012322
:1082D4000371C48001A9084800F0C1F8FFF79EFDAE
:1082E400002002B010BD0220FBE70420F9E70820BB
:1082F400F7E700BFD83A0020E02D00200E4B1B7892
:1083040007B5A3B101A8FFF7F3F990B106230370F1
:1083140001A90A4800F0A3F8094B1A780AB101220E
:108324001A73FFF77BFD002003B05DF804FB022005
:10833400FAE70820F8E700BFD83A0020E02D002033
:10834400E03A002007B5ADF8060002A820F8041DA5
:1083540001460DF10600FFF7A5FA03B05DF804FB32
:1083640013B502AC134624F8020D0A460020214638
:10837400FFF798FA02B010BD13B502AC134624F807
:10838400020D0A4620460021FFF78CFA02B010BD08
:1083940020B119B103680B600020704705207047B5
:1083A40010B561B1B2FBF3F403FB1424A4B244B9D5
:1083B400C0E9001484608281C381204610BD0E2070
:1083C400FCE70920FAE782B050E8022FC188B2EB3B
:1083D400324F4FF0000317BF92B241EA014142EA23
:1083E400014104E04268B2EB324F08BF012340E888
:1083F4000212002AE8D18DF807309DF80730002BCF
:108404000CBF1120002002B0704737B550E8013F7F
:108414009DB2C48925448489A54228BF2D1B0489A3
:10842400A54202BFBFF32F8F002207E0C5EA030570
:1084340040E80154002CE9D14FF001028DF80320EB
:108444000193019B9DF803200B6002F0FF0322B10E
:108454000B880068184403B030BD1846FBE70A884F
:108464004B889A4209D150E8012FC2EA024240E8FF
:108474000123002BF7D1012070470020704737B546
:1084840050E8023F1FFAA3F5C488A54202BFBFF318
:108494002F8F00220DE0C48925448489A54228BF7A
:1084A4002D1BC3EA054540E80254002CE8D14FF0E7
:1084B40001028DF803200193019B9DF803200B60BA
:1084C40002F0FF0322B14B880068184403B030BDAA
:1084D4001846FBE70A884B889A4209D150E8022FD4
:1084E400C2EA224240E80223002BF7D10120704760
:1084F4000020704701F01F024B090121914000EB5D
:10850400830000F063B84B0910B501F01F0401218A
:10851400A14000EB830000F04EF8E04000F00100C1
:1085240010BD01F01F0301229A404B0900EB8300A8
:10853400D14300F061B84B0901F01F0150F823004A
:10854400C84000F0010070472DE9F0474E1E76093F
:1085540080460F460136002558F8254008EB850A69
:10856400E44394FAA4F4B4FA84F44FEA4519202CB1
:1085740006D10135AE42EFD83C462046BDE8F0872F
:108584004C44A742F5D921464046FFF7BCFF0028DA
:10859400F3D0DAF80040E44394FAA4F4B4FA84F48F
:1085A400E5E750E8002F0B4640E8003C9CF0000F44
:1085B400F7D11046704750E8002F42EA010340E823
:1085C400003C9CF0000FF6D11046704750E8003F85
:1085D40043EA010240E8002C9CF0000FF6D110465B
:1085E400704750E8002F02EA010340E8003C9CF089
:1085F400000FF6D11046704750E8003F03EA01022D
:1086040040E8002C9CF0000FF6D11046704750E86B
:10861400002F02EB010340E8003C9CF0000FF6D170
:108624001046704750E8003F03EB010240E8002C7D
:108634009CF0000FF6D11046704750E8003FA3EBC2
:10864400010240E8002C9CF0000FF6D11046704760
:108654000121FFF7B0BF0121FFF7B8BF0021FFF7E9
:10866400C0BF10B590B1D0E9012301689B1ADBB2F9
:108674000A60013BDBB2FF2B026802D100201071BB
:1086840010BD11684C1C14600B70F2E70E20F7E764
:1086940037B5054602A8002400F8014DFEF734FF63
:1086A4002A686B68116899420ED9481E106011F847
:1086B400014CEB68A98A01FB0434AB6811791B1ADD
:1086C400DBB2994238BF13719DF80700FEF740FFF3
:1086D400204603B030BD37B5054602A8002300F894
:1086E400013D0C46FEF710FF2A681368591C1160FF
:1086F400E968641AA98AB4FBF1F41C709DF80700B8
:10870400FEF726FF03B030BD826810B504462AB1D7
:1087140043690168006998470023A36010BD0EB443
:1087240003B5039929B102AA04AB42F8043D00F051
:108734006BF802B05DF804EB03B07047826830B4A4
:108744000468551C8560A154D0E901329A4202D3D1
:1087540030BCFFF7D9BF30BC704700002DE9F84F9B
:108764009946DDE90A431746824688460A460126A9
:10877400BA420FD24E4538BF4E4613F0010B01D119
:1087840064B900240125B9F1010F1AD909F1FF399F
:108794007D43F8E7B2FBF7F20136E9E79B070ED514
:1087A400B9F1000F0CBF30252025A642EAD2013CC6
:1087B40029465046FFF7C2FF002CF6D1E1E72025F9
:1087C400F3E7B8FBF5F39F42E2D9DFF83890B8FB42
:1087D400F5F3504619F8031005FB1388FFF7AEFFB5
:1087E400B5FBF7F5002DF2D1BBF1000F02D00CB1AF
:1087F400A64201D3BDE8F88F20215046013CFFF783
:108804009DFFF4E75B0303002DE9F74F054690460F
:108814000E46002900F03A8116F8011B002958D0B1
:10882400252940F0D180002702E047F001071646D1
:10883400324612F8013B2D2BF7D0302B04D02B2BD2
:1088440005D147F00407F2E747F00207EFE70024F9
:108854002A2B06F101021BD1D8F80030191D1B6820
:10886400C8F800101C44164633782E2B1CD1013650
:108874004FF0000A314611F8012BA2F1300009280B
:1088840014D80A2303FB0A23A3F1300A0E46F1E7A6
:1088940012F8013CA3F130010929E5D80A2101FBB2
:1088A4000434303C1646D3E74FF0000A324612F83F
:1088B400011B01F0FB0068281646F8D0692916D080
:1088C40054D8582970D00ED825297DD03378002B60
:1088D400A2D12B7B002B00F0D980284603B0BDE841
:1088E400F04FFFF711BF632968D06429EED1D8F89F
:1088F4000020D2F80090111D89EAE972C8F800102E
:10890400A2EBE9724FF0010B092A61DCD34538BFB1
:10891400D3462CB1B9F1000F01DB790700D5013C36
:10892400BA0702D5BAF1000F04D0FB0702D4002C19
:1089340054D10024B9F1000F58DAC9F100092D21EE
:108944002846FFF7FBFE07F00302022A05D1BAF11D
:10895400000F02D1002C4DD10024CDE9004753462D
:108964000A2249462846FFF7F9FEAFE7732954D097
:1089740016D87029AAD1D8F800301A1DC8F80020DA
:10898400302128461C68FFF7D9FE78212846FFF7D6
:10899400D5FE00220823CDE9003221461022E1E76A
:1089A40075292FD0782991D1D8F800100A1DC8F85C
:1089B4000020CDE90047534610222CE0D8F80030BF
:1089C4001A1D1978C8F800202846FFF7B7FE7DE77E
:1089D4000A230BF1010B92FBF3F295E7A345A9D20D
:1089E40020212846013CFFF7A9FEA0E77807AAD575
:1089F4002B21A5E7A345B0D230212846013CFFF73F
:108A04009DFEA7E7D8F80010CDE900470A1DC8F875
:108A1400002053460A220968A4E7D8F800301A1D3A
:108A2400C8F80020F907D3F8009012D54F46A7EBF9
:108A3400090B17F8011B41B9A345BFF447AF202127
:108A44002846013CFFF77AFEF6E72846FFF776FE54
:108A5400EDE7B9F1000F17D0484607F0AAFA074628
:108A6400BC4200D954B909F1FF3919F8011F002992
:108A74003FF42CAF2846FFF761FEF6E72021284695
:108A8400013CFFF75BFEEBE74F46E9E703B0BDE8C7
:108A9400F08F000007B50B4678B9104B104A1888C0
:108AA4000E2300930F4B00040F4940F00100FDF723
:108AB400AFFF0E2003B05DF804FB3BB9074B0B4A34
:108AC40018880E2300930004064BEDE703601B682F
:108AD400114603B05DF804EB184700BF982D002041
:108AE400180403006B0303001D0403009404030033
:108AF4002DE9F34178B9354B354A1888354B0E24A6
:108B040000040094344940F00100FDF781FF204641
:108B140002B0BDE8F0813AB92C4B304A18882D4B8D
:108B24000E2400040094EDE7D0F800C0BCF1000F5F
:108B340007D1264B2A4A1888264B0824000400949F
:108B4400E0E73BB9214B274A1888224B092400044B
:108B54000094D7E74768D7F80480B3FBF8F708FB1D
:108B640017373FB1194B204A18881A4B09240004BF
:108B74000094C7E78F0707D0144B1C4A1888154B7D
:108B8400102400040094BDE712F0030F07D00F4B2C
:108B9400174A18880F4B102400040094B2E7C768E2
:108BA400B9420BD34C1E05691C44AC4206D8DCF810
:108BB4000C40A44602B0BDE8F0416047034B0D4AA7
:108BC4001888044B1024000400949BE7982D00207F
:108BD400180403007D0303001D0403009A0403002A
:108BE4008E0403004D040300A0040300CA04030020
:108BF400E204030005050300F7B570B9254B264AC6
:108C04001888264B0E2400040094254940F00100E6
:108C1400FDF7FEFE204603B0F0BDD0F800C0BCF165
:108C2400000F07D11B4B1F4A18881C4B0824000453
:108C34000094EAE73AB9174B1B4A1888174B0924E2
:108C440000040094E1E74768D7F800E00EF1FF372D
:108C54000F4207D00F4B154A1888104B10240004FC
:108C64000094D2E7C768B9420CD34C1E05690EFBC9
:108C74000244AC4206D8DCF81040A44603B0BDE878
:108C8400F0406047034B0A4A1888044B1024000440
:108C94000094BAE7982D0020180403009003030001
:108CA4001D0403008E0403004D040300A30303000A
:108CB400C90303002DE9F04108B10368C3B90E4E9E
:108CC4000E4B14229B1B0024B3FBF2F3374602FB2A
:108CD40003F5A54201D1002008E03B5930190BB936
:108CE4001434F6E7DB6998470028F9D0BDE8F08131
:108CF400DB69BDE8F0411847AC2D0020C02D0020F1
:108D040029DF704728DF704770B503689D6886B017
:108D140004460E466DB114220021684607F016F988
:108D2400A3680593237901962BB1012B0DD06846D6
:108D3400A84706B070BD01238DF800302369029363
:108D4400E368039363690493F1E702238DF8003029
:108D5400E3681B030293F5E7084670470020704759
:108D6400024B187A003018BF01207047583C00208D
:108D7400034B187A0122B0FA80F05A744009704704
:108D8400583C002008B510461A4607F0B6F80020F3
:108D940008BD000008B514220021044807F0D6F8E5
:108DA4000348FFF710FB002008BD00BF583C00201B
:108DB400F42D002010B5094C094B43602046FFF701
:108DC40047FC40B906F03EFE1C2320748C22054962
:108DD4000548FFF7E5FA002010BD00BF583C00200D
:108DE4003C050300CC3B0020F42D002070B5244D3D
:108DF400244E2B7A2C463BB923492448FFF73FFBEA
:108E0400306008B9686070BD0223237233681A7930
:108E140072B1012A24D018460321FFF775FF0023FD
:108E24002372636018491948BDE87040FFF752BBCC
:108E3400D3E90520121AB2F5805F28BF4FF480529F
:108E4400D3E903159208012A014438BF01222844BA
:108E5400FFF756FF50B11128DDD101232372D2E769
:108E6400D3E903021044FFF74DFFF3E7237C002B03
:108E7400C9D10146BDE87040022000F009B800BF26
:108E8400583C0020703C00206C3C0020F42D002055
:108E940038B5831E012B45D8234C237A002B41D0AF
:108EA400022B09D1032830D0204B1B680022E2603A
:108EB4001A793AB1012A22D0637C7BBBBDE83840E1
:108EC400FFF794BFD3E905128D1AB5F5805F94BFFF
:108ED400521902F580529A619142EDD102284FF065
:108EE400000308BF19462372104B18BF0D211868E0
:108EF400FFF70AFF0E490F48FFF7ECFADCE71A699F
:108F040001321A615B699A42E7E7E3680133082B8F
:108F140001D8E360D0E70023E360DFE7BDE8384031
:108F240006F080BD38BD00BF583C0020703C0020D6
:108F34006C3C0020F42D002000F0FD03012B08D12F
:108F4400044B00225A74421E504250411874FFF7D9
:108F54004DBF7047583C002010B5064C201DFFF74C
:108F640077FB28B9637C1BB9BDE81040FFF73EBF0F
:108F740010BD00BF583C00202DE9F34180460D464A
:108F84000F4801A916461F46FFF73FFA0446A8B149
:108F94001C22002106F0DAFF2D0B0123237101A905
:108FA400C4F80080A760E56066610548FFF757FADA
:108FB400FFF7D2FF002002B0BDE8F0810420FAE7F9
:108FC400F42D00202DE9F74381468846104801A975
:108FD40017461E46FFF719FA0446B0B11C220021B9
:108FE40006F0B4FF00250A9BA36001A92571C4F80B
:108FF4000090C4E9037866610548FFF730FAFFF78B
:10900400ABFF284603B0BDE8F0830420FAE700BFB5
:10901400F42D0020FFF725BBF8B546790146721EF2
:109024000546002393422D6803D30024A64202D8A8
:10903400F8BD0133F6E70F682846FFF74CFB01340F
:109044003946F3E72DE9F843868ACD1C0746FFF736
:109054001FFB043E35440446B5FBF6F5F0B14FF46E
:109064008073EDB28380C680013D076081464FF076
:109074000008A84512D23846FFF70AFB064648B155
:1090840063790133637108F10108C9F800000760CE
:109094008146EEE72046FFF7BFFF34462046BDE891
:1090A400F88301210430FFF7BDBA10B5012104464D
:1090B4000430FFF7C2FA10F0FF0F04D12046BDE8D8
:1090C4001040FFF7A9BF10BD2DE9F843C788054636
:1090D400181D8846B0FBF7F4164607FB14003CB98C
:1090E400A7EB0009B14528BFB14626B9BDE8F8830E
:1090F4002D68013CF3E70430A6EB09064A4608EB69
:109104000401284406F0F9FEB7424C442D68B946E0
:109114004FF0000028BFB146E7E72DE9F843C788C0
:109124008846191D0546B1FBF7F4164607FB1411D2
:109134003CB9A7EB0109B14528BFB14626B9BDE842
:10914400F8832D68013CF3E704312944A6EB0906B2
:109154004A4608EB040006F0D0FEB7424C442D68A2
:10916400B9464FF0000128BFB146E7E741DF704739
:10917400064B10B500241C70054B1C60BFF35F8FB9
:109184000449054800F030F8204610BD7C3C00201E
:10919400803C002078050300743C002007B502A839
:1091A400002300F8013DFEF7AFF9F1EE103A23F089
:1091B4009F03E1EE103ABFF35F8F0A4B4022C3F8DE
:1091C40084219DF80700FEF7C3F906F03BFC20B1AB
:1091D400FFF7CCFF03B05DF804FB20BF40BF20BF06
:1091E400F8E700BF00E100E00B684A68436093427F
:1091F40008BF0023016008BF43607047436843B160
:109204000268916852680B449342436004BF002390
:10921400436070470D4930B5A1F59472022591421F
:1092240001D800200EE08B1ADB1093FBF5F302EB60
:10923400C30452F83330834205D802D204F1080241
:10924400EDE7606830BD2146E9E700BFC8060300CA
:1092540008B5FFF7DFFF024B002808BF184608BD1A
:109264008D0503000648074A03780749D35C0122A9
:1092740013B1043001F0E2BA0C3001F05DB800BF64
:10928400082E0020CC3C0020AC3C00200648074AB5
:1092940003780749D35C012213B1043001F07EBA8C
:1092A4000C3000F0F3BF00BF082E0020CC3C00209F
:1092B400AD3C002037B50578012D04D035D3022DFF
:1092C40028D003B030BD43681F4C1978204600F005
:1092D400EAF878B11D4B01908DF800501B68684680
:1092E4009847A168E368A2885B1A9A420ED3FFF7F5
:1092F400B9FFE6E7A268E3689A42F2D002AB134AE8
:1093040003F8080D126818469047EAE7104B01224B
:109314001A70D6E7C36801938DF80050FFF7A2FFD7
:109324000A4B1B6868469847CBE70A490A4800F08D
:10933400CCF810B9FFF7AAFFC3E702A8032300F88B
:10934400083D024B1B68EEE7883C0020843C00206B
:10935400983C0020AD3C00209C3C0020F0B51F460A
:10936400234B89B006461A600C4600293DD08A88F2
:109374002048096800F088F8002834D1A289A1683F
:109384001D4800F081F800282DD11C4D0FCD6C46EE
:109394000FC495E80F0084E80F0073690693337CCB
:1093A400174A18488DF81C70003318BF01238DF834
:1093B4001430737C002B14BF0E2300238DF815305A
:1093C400F3680293B368039333680193694673683F
:1093D400009300F049FB30B90B4B1870336801332C
:1093E40001D0FFF73FFF09B0F0BD0720FBE700BF46
:1093F400843C0020883C00209C3C0020840A03001C
:10940400B9920200082E0020983C002070B5084C48
:1094140001460848267800F058F8054636B100237E
:109424002370FFF71FFF08B1FDF788FD284670BDC4
:10943400983C0020883C002010B501460E4800F0FE
:1094440032F80446A8B90D480D4A0378D35C63B1D9
:10945400043001F0E7F960B90A49074800F035F82B
:1094640038B9BDE81040FFF711BF0C3000F058FFC9
:10947400F1E7204610BD00BF9C3C0020082E0020D0
:10948400CC3C0020AD3C002049B152B1531E1A40DF
:1094940007D1826001608380C260104670470E204D
:1094A40070470920704710B58468C2688388121B0E
:1094B400934208D3C26813400268D154C36801338D
:1094C400C360002010BD0420FCE78268C3689A4290
:1094D4000AD08268838813400268D35C0B70836867
:1094E4000133836000207047052070470C4B1B78C4
:1094F400062B10D10B4B1B681A070CD10A4B1868AA
:1095040000F0F003302B08D000F0E000A0F140039D
:10951400584258417047002070470120704700BFEF
:10952400E00F00F0E40F00F0E80F00F0094B1B78A7
:10953400062B0CD1084B1B681A0708D1074B186877
:1095440000F0F000A0F13003584258417047002069
:10955400704700BFE00F00F0E40F00F0E80F00F0E8
:1095640008B5FFF7C3FF28B17D4B7E4A1B68C3F3E0
:1095740004231360FFF7DAFF10B17B4B7B4A1A60B8
:10958400FFF7B4FF28B17A4B7A4A1B68C3F342331E
:109594001360FFF7CBFF20B1774AD36823F08073C1
:1095A400D360FFF7A3FF40B14FF080430022C3F81C
:1095B4000C21C3F81021C3F83825FFF7B7FF10B109
:1095C4006E4B03221A60FFF7B1FF40B16C4B0522CA
:1095D4001A6001229A6700229A603F225A60694BFE
:1095E4001B78062B50D1684B1B6819074CD1674B6D
:1095F4001B6803F0F003502B46D14FF08052644BAC
:10960400D2F80414C3F82015D2F80814C3F82415AA
:10961400D2F80C14C3F82815D2F81014C3F82C157A
:10962400D2F81414C3F83015D2F81814C3F834154A
:10963400D2F81C14C3F84015D2F82014C3F844150A
:10964400D2F82414C3F84815D2F82814C3F84C15DA
:10965400D2F82C14C3F85015D2F83014C3F85415AA
:10966400D2F83414C3F86015D2F83814C3F864156A
:10967400D2F83C14C3F86815D2F84014C3F86C153A
:10968400D2F84424C3F87025FFF730FF28B1414BCA
:10969400414A1B6803F04F031360FFF727FF48B1EB
:1096A4004FF08043D3F80024D20744BF6FF0010287
:1096B400C3F80024394B1B68062B08D1384B1B68B0
:1096C400062B01BF374A136843F480631360364A9C
:1096D400D2F8883043F47003C2F88830BFF34F8F58
:1096E400BFF36F8F4FF01023D3F80022002A03DB5F
:1096F400D3F80432002B2FDA2C4B0122C3F80425B3
:10970400D3F80024002AFBD04FF010221521C2F810
:109714000012D3F80024002AFBD04FF010231522A6
:10972400C3F80422214B1A46D3F800140029FBD0B5
:109734000021C3F80415D2F80034002BFBD0BFF38A
:109744004F8F19491A4BCA6802F4E0621343CB6085
:10975400BFF34F8F00BFFDE7164B174A1A6008BDD1
:10976400240300104035014074C007400DF0ADBA29
:10977400440200103C050040F0ED00E0A00500406C
:1097840010560040E00F00F0E40F00F0E80F00F086
:1097940000C0004058020010E40E004030010010E8
:1097A400340100103C17004000ED00E000E00140EF
:1097B4000400FA051C2E00200090D003054A4FF047
:1097C400A043105CD3F8043523FA00F0C04300F042
:1097D40001007047A80A0300044B1A5C012393405C
:1097E4004FF0A042C2F80C35704700BFA80A03002E
:1097F400044B1A5C012393404FF0A042C2F8083591
:10980400704700BFA80A030008B50020FFF7F0FF67
:109814000120FFF7EDFF0220FFF7EAFF0320BDE878
:109824000840FFF7E5BF08B50020FFF7D5FF01208A
:10983400FFF7D2FF0220FFF7CFFF0320BDE8084067
:10984400FFF7CABF074A4FF0A041105CD1F80435B6
:109854000122824022EA03001340C1F80805C1F83E
:109864000C357047A80A0300054A4FF0A043105C6A
:10987400D3F8103523FA00F0C04300F0010070471C
:10988400A40A03000D2809D00E2809D00F2809D0F6
:1098940010280CBF03204FF0FF30704700207047A2
:1098A4000120704702207047C20708B501460CD555
:1098B4004FF0A0430322C3F84427C3F84827C3F852
:1098C4004C27C3F85027FFF79FFF8B070AD54FF0AB
:1098D400A0430C22C3F83427C3F83827C3F83C2725
:1098E400C3F8402708BD000038B5084C04F108034C
:1098F4000546002818BF1C4623682BB11A6822604D
:109904005B6828469847F7E738BD00BFB83C00209D
:1099140020B9054B01225A70FFF7E6BF012802D196
:10992400014A9070F8E77047B03C002020B9034B1F
:1099340001225A70FFF7D8BF704700BFB03C002027
:1099440038B50B4C237883B90A486360A36023615C
:10995400E36000F0D1F8054606F074F808B900F0A9
:10996400D9F801232370284638BD8525FBE700BFBD
:10997400B03C00201599020037B502A80023094C19
:1099840000F8013DFDF7C0FDE368013BE360E568D5
:1099940015B900F0D3F8A5709DF80700FDF7D8FDC0
:1099A40003B030BDB03C0020012813B509D003D367
:1099B40003281BD002B010BD0F4B0122C3F8802036
:1099C400F8E702A800230D4C00F8013DFDF79CFDCB
:1099D40023780BB9FFF7B4FFE3689DF80700013360
:1099E400E3600123A370FDF7B3FDE3E700F092F811
:1099F400FFF7C2FFDEE700BF00E100E0B03C00205B
:109A04001FB503788DF8003043680193037A8DF80D
:109A14000830C3680393054A054B684653F8213060
:109A240052F82110984705B05DF804FBC43C0020AF
:109A3400C83C00201FB503788DF8003043680193BB
:109A440083688DF80830C3680393054A054B68465C
:109A540053F8213052F82110984705B05DF804FB03
:109A6400C43C0020C83C0020F0B5194B067891F89E
:109A74001DE043F82620174B94460A6943F8262034
:109A8400154B03F806E00C4607460FCC89B06D462B
:109A94000FC594E80F0085E80F000496BEF1000F8F
:109AA4000AD0BCF1000F0D4A694608BF0022381DD8
:109AB40000F048FD09B0F0BDBCF1000F084A69464A
:109AC40008BF002207F10C0000F0BCFAF2E700BF67
:109AD400C83C0020C43C0020CC3C0020059A020075
:109AE400399A020000F18040002382B003600368C9
:109AF4000193019B02B07047054A13792BB90121E8
:109B0400106011715371184670478520704700BF6B
:109B1400D03C0020084B1A68D20706D4E02283F810
:109B240000230122C3F880211A604FF080430122F0
:109B3400C3F81825704700BF00E100E0044B012280
:109B44001A604FF08042D2F81834DB03FBD470471C
:109B54000C000040124B1B6810B573B14FF48070B9
:109B6400FFF7C0FF4FF080430122C3F808230D4BD9
:109B7400587910B95A711B6898470B4B1B6873B11D
:109B84004FF48270FFF7AEFF4FF080430222C3F818
:109B94000823044B01201B68BDE81040184710BD82
:109BA40000010040D03C002004010040054B4FF070
:109BB400FF32072843F8202084BF1B1883F848206D
:109BC400704700BFD83C002013B5184C94F85830A7
:109BD40053BBFF21E2180133202B82F83010F9D156
:109BE4000021C8B2FFF7E2FF01310C29F9D10422A8
:109BF40000210F4806F0AAF90E4BE02283F8062351
:109C04004022C3F880211A600B4B002018601B68A7
:109C14000193019B094B4FF00042C3F80423012335
:109C240084F8583002B010BD0820FBE7D83C00206F
:109C34002C3D002000E100E07C6100400060004019
:109C4400034B93F85800003018BF0120704700BF41
:109C5400D83C0020F0B5394D2C18944694F9304086
:109C6400002C68DA8E78C6F34006002E15BF002358
:109C7400082308270C27BB4201D10420F0BD55F866
:109C8400232001324FEA830441D12F1845F823C021
:109C940087F8303016B9EA1882F848008A785607EF
:109CA40016D4D70735D5820002F1A042D2F8006756
:109CB40026F00206C2F80067214FC60800F0070C20
:109CC400012202FA0CF217F806C042EA0C02BA5555
:109CD4008A780E7812F0020224D004F1804303F54E
:109CE400C0430002D3F8102522F4473222F4407214
:109CF400C3F810253604D3F8102500F4F85006F400
:109D0400403630431043C3F810050020B6E7013352
:109D1400B1E74E7800F5E0724FF0A047B60047F87F
:109D24002260C9E7083B2B4493F8500040EA8616AA
:109D340083F85060E9E70820A0E700BFD83C002082
:109D44002C3D002013B5294C231893F93020072A01
:109D540025DD224492F848309B09032B1AD14FF099
:109D6400A043D3F81035C34013F0010F0CBF0221F8
:109D74000321800000F1A040D0F8002722F44032F3
:109D8400C0F80027D0F8003743EA0143C0F8003791
:109D940002B010BD012B14BF03210221E9E7D3B2A5
:109DA400072BF5D8930003F1804303F5C043D3F8A0
:109DB400100540F00100C3F8100502F140039B00B8
:109DC4009BB203F1804303F5C04300200190186067
:109DD400019B0029DCD054F82230002BD8D0012379
:109DE40003FA02F2024BC3F80423D1E7D83C002063
:109DF400006000404FF0A043D3F8103523FA00F080
:109E040000F0010070470000014B1B68184700BFB9
:109E1400343D00200D4B984237B50D4610D102A8B1
:109E2400002300F8013DFDF76FFB094B1C7914B9C1
:109E340001221D601A719DF80700FDF789FB14B912
:109E4400002003B030BD1120FBE700BF002000401C
:109E5400343D0020034B984201BF034B00221A609B
:109E64001A71704700200040343D00200023435005
:109E740082B043580193019B02B070470A4610B563
:109E84004FF48E71FFF7F2FF136A9168C95C136A8D
:109E940001331362C0F81C1510BD024608B54FF417
:109EA40092710068FFF7E2FF4FF484711068FFF7C6
:109EB400DDFF136801221A6008BD8B690A4610B5DC
:109EC4004FF4847123B9FFF7D1FFD0F8183510BDD2
:109ED400FFF7CCFF536AD168D0F81805C854536A09
:109EE40001335362F3E700001FB501238DF80030FE
:109EF400044BCDE90110D3E900126846904705B040
:109F04005DF804FB3C3D002030B54C4AD2F80433E4
:109F140013F4007F85B015464FD0D2F82431002BBE
:109F24004BD04FF492711046FFF7A0FF4FF401732A
:109F3400C2F80833424B93F8291009B90121516042
:109F44003E4902228DF80020D1F88024C1F88024F3
:109F540003929A690292DA6801920022C3E9062206
:109F64006846D3E9001290473448D0F81C315BB1FD
:109F740033490A6A4B699A420A464BD291F828300F
:109F8400002B47D1FFF77AFF2C4AD2F8443193B122
:109F94004FF4A2711046FFF769FF294B93F829107B
:109FA40009B1012111609A692AB100229A61586AA3
:109FB400D968FFF799FF05B030BDD5F804335B07C6
:109FC400D2D5D5F80831002BCED01D4C1B482146E4
:109FD400FFF773FF636AA2699A422346C4D1E26918
:109FE400E1684AB12369E3600023606AA261E36126
:109FF4006362FFF779FFB7E794F829200AB90122D1
:10A004006A600E4A4FF40170C2F8080300229A6194
:10A01400586AEEE74FF48E710848FFF727FF51693D
:10A024000029B1D00023029191688DF8003001918C
:10A0340053616846D2E900139847A5E70020004021
:10A044003C3D00202DE9F8435A4B047991462C22DB
:10A0540002FB0432064692F82A200D469846002A4E
:10A0640040F0A38054490068FFF7D4FE0746002857
:10A0740040F09D8029683368481C0BD04FF0A04005
:10A0840001228A40C0F8082501F5E0724FF0030C64
:10A0940040F822C06868421C1FBF00F5E0724FF010
:10A0A400A04C4FF0000E4CF822E0AA6995F814C0B9
:10A0B400C3F824256A7DBCF1010F4CEA0202C3F8FF
:10A0C4006C25C3F81405C3F80C151DD1AA68511CDE
:10A0D4001FBF02F5E0714FF0A0404FF0000C40F8B4
:10A0E40021C0E968481C0BD04FF0A04C01208840E7
:10A0F400CCF8080501F5E0704FF0030E4CF820E0B1
:10A10400C3F80815C3F810252C23634308EB030296
:10A11400C2F804902A6948F80320B9F1000F31D03D
:10A124004FF48E7130682D7FFFF7A0FE30684FF436
:10A13400A271FFF79BFE3268204BC2F80433120B66
:10A1440053B2002BA8BF03F160404FEA53134FEA08
:10A154004511BABF1A4802F00F0500F561404FEAF5
:10A164008303C9B203F16043B4BF415580F80013BF
:10A1740003F5614302F01F02012101FA02F2C3F860
:10A1840080211A6033680422C3F800252C2303FBC2
:10A1940004830022C3E9062283F829205A6101229C
:10A1A40083F82A203846BDE8F8830827FAE7112700
:10A1B400F8E700BF3C3D00200D9F02008000020034
:10A1C40014ED00E0F8B5047900682D4D0023C0F8C3
:10A1D40000352C2303FB04535B6873B1294BC0F88F
:10A1E4000833020B53B201215B0902F01F0201FA8A
:10A1F40002F22033244941F82320D0F80C65D0F82A
:10A204001415D0F80835D0F810254FF0FF37BE42AA
:10A21400C0F8147518BF06F5E076C0F80C75C0F8E0
:10A224000875C0F810751EBF4FF0A0474FF0020C20
:10A2340047F826C04E1C1FBF4FF0A04601F5E07141
:10A24400022746F82170511C1FBF4FF0A04102F5B0
:10A25400E072022641F822605A1C1FBF03F5E07326
:10A264004FF0A042022142F82310FFF7F3FD2C2304
:10A2740003FB0454002384F82A306360F8BD00BF54
:10A284003C3D00208402020000E100E02DE9F84397
:10A29400224F06794FF02C0909FB06748046656944
:10A2A400002D37D16261A16025624FF48E71006880
:10A2B40084F82850FFF7DAFDD8F800000123836002
:10A2C4002146FFF7DBFD6368A1462BBBD8F800509D
:10A2D400226A63699A4212D3D8F80030D3F81C2159
:10A2E400002AFBD00122DA6000202C2303FB06762F
:10A2F40000237361BDE8F88394F8283043B9D5F896
:10A304001C31002BF8D049462846FFF7B7FDDFE79C
:10A314000F20EAE71120EDE72846EBE73C3D00205B
:10A324000379044A2C2101FB03235869003018BF28
:10A33400012070473C3D00202DE9F843384E057953
:10A344002C2303FB056307465C6824B103684FF4C0
:10A354000170C3F808032C2303FB0563986950B10B
:10A36400D86900283ED024B13B684FF40172C3F889
:10A374000423112034E09A61D9605862D8612C23F7
:10A3840003FB056393F829301BB910B93846FFF76E
:10A3940084FD4FF02C0909FB05683868D8F80430AF
:10A3A400002B34D14FF4A271FFF760FDC146386829
:10A3B400D0F82431D0F80821D0F84441B2B90CB90E
:10A3C400002BF4D02C2202FB05650022AA611BBBE2
:10A3D40024BB95F829103B680122B1B11A60002012
:10A3E400BDE8F8831961DA610120C8E7002BE9D1DF
:10A3F400002CE7D14946FFF760FDD8F82430D8F89F
:10A4040018209A42D3D82346DCE75A60E7E74FF492
:10A414000173C0F80433E2E70320E1E70F20DFE72C
:10A424003C3D00200023435082B043580193019BDC
:10A4340002B070471FB501238DF80030054B8DF82D
:10A44400080001916846D3E90012904705B05DF811
:10A4540004FB00BF683D00207FB5384AD2F8246170
:10A46400002E49D010464FF49271FFF7DBFF022310
:10A474008DF80030D2F88034C2F880340393D2F8D7
:10A484003C358DF808302E4BDA6801920022C3E97E
:10A4940006226846D3E900129047284AD2F844318C
:10A4A40073B14FF4A2711046FFF7BCFF244B9969B6
:10A4B40031B100219961D2F83C05D968FFF7BAFFA0
:10A4C4001E4AD2F82031ABB14FF490711046FFF719
:10A4D400A9FF1B4B596969B1D2F84C158DF80810C6
:10A4E400002299688DF8002001915A616846D3E9E9
:10A4F4000012904704B070BDD2F81031002BCCD0BC
:10A504004FF488711046FFF78DFF0D4BD2F83C05D0
:10A5140099698842C1D1DC69D96864B1D2F8005222
:10A5240025F02005C2F800521A699C61DA60DE61E8
:10A53400FFF780FFB1E79C61FAE700BF002000400D
:10A54400683D00202DE9F8435E4B067991462422AC
:10A5540002FB0632044692F820200D469846002A53
:10A5640040F0AB8058490068FFF754FC07460028C8
:10A5740040F0A58029682368481C0BD04FF0A04008
:10A5840001228A40C0F8082501F5E0724FF0030C5F
:10A5940040F822C06868421C1FBF00F5E0724FF00B
:10A5A400A04C4FF0000E4CF822E0AA6995F814C0B4
:10A5B400C3F824256A7DBCF1010F4CEA0202C3F8FA
:10A5C4006C25C3F80C15C3F814051DD1AA68511CD9
:10A5D4001FBF02F5E0714FF0A0404FF0000C40F8AF
:10A5E40021C0E968481C0BD04FF0A04C01208840E2
:10A5F400CCF8080501F5E0704FF0030E4CF820E0AC
:10A60400C3F80815C3F810252423734308EB030289
:10A61400C2F804902A6948F80320B9F1000F3BD02E
:10A624004FF4887120682D7FFFF7FCFE4FF4907182
:10A634002068FFF7F7FE4FF492712068FFF7F2FEEF
:10A6440020684FF4A271FFF7EDFE22681F4BC2F899
:10A654000433120B53B2002BA8BF03F160404FEA3E
:10A6640053134FEA4511BABF194802F00F0500F51C
:10A6740061404FEA8303C9B203F16043B4BF41555B
:10A6840080F8001303F5614302F01F02012101FA6F
:10A6940002F2C3F880211A6023680822C3F8002557
:10A6A400242303FB06830022C3E906225A61012204
:10A6B40083F820203846BDE8F8830827FAE71127F5
:10A6C400F8E700BF683D00205DA40200100302000B
:10A6D40014ED00E0F8B5047900682D4D0023C0F8AE
:10A6E4000035242303FB04535B6873B1294BC0F882
:10A6F4000833020B53B201215B0902F01F0201FA75
:10A7040002F22033244941F82320D0F80C65D0F814
:10A714001415D0F80835D0F810254FF0FF37BE4295
:10A72400C0F80C7518BF06F5E076C0F81475C0F8CB
:10A734000875C0F810751EBF4FF0A0474FF0020C0B
:10A7440047F826C04E1C1FBF4FF0A04601F5E0712C
:10A75400022746F82170511C1FBF4FF0A04102F59B
:10A76400E072022641F822605A1C1FBF03F5E07311
:10A774004FF0A042022142F82310FFF76BFB242381
:10A7840003FB0454002384F820306360F8BD00BF49
:10A79400683D00201003020000E100E001F0604386
:10A7A400B3F1005F2DE9F041074632D11C4B067925
:10A7B400242505FB063598466C6964BB6A61A9606B
:10A7C40000684FF49071FFF72DFE4FF4AC713868B8
:10A7D400FFF728FE3B686A69A968C3F84415C3F803
:10A7E400482501229A606A68BAB9D3F82011D3F8CF
:10A7F400582149B9002AF8D00F20242303FB0686E8
:10A8040000237361BDE8F081002A14BF0F200020EB
:10A81400F3E71020F6E71120F4E72046F2E700BF43
:10A82400683D00200379044A242101FB032358696D
:10A83400003018BF01207047683D0020F8B501F0D2
:10A844006043B3F1005F04460F465ED10379304D97
:10A85400242101FB0351486820B121684FF4047698
:10A86400C1F80863242101FB03539E6956B1D969D9
:10A87400002939D020B123684FF40472C3F80423AB
:10A88400112030E09A61DF60DE614FF48871206846
:10A89400FFF7C8FD4FF4A2712068FFF7C3FD2368DA
:10A8A400C3F83475C3F8382516BB01221A6022791F
:10A8B400242101FB0251496809BBD3F81041D3F8A4
:10A8C4004411D3F8240114B909B90028F5D024237C
:10A8D40003FB02550023984214BF032018469942F3
:10A8E400AB6118BF0F20F8BD1F61DA610126CCE708
:10A8F400D3F8002242F02002C3F80022D7E74FF435
:10A904000472C3F804230020EDE71020EBE700BF36
:10A91400683D00200220FEF795BF00002DE9F047B6
:10A9240081460D46FEF7AEFF0328044604D8012DE8
:10A9340004D024D3022D2FD0BDE8F087194D470051
:10A944003A18A918AE5C4A7852B1DFF86880164804
:10A9540042464FF40041FCF783FD08B988F80090A3
:10A964003B192B449A78114B1A55002EE4D0104B06
:10A974001B68002BE0D03046BDE8F04718470A4872
:10A98400FCF7B2FD074B04EB440213449E78074BDB
:10A994001B5DB342D0D1E8E7024B00EB40041C44FA
:10A9A4006678E2E7F03D0020B03D0020093E00203B
:10A9B400043E00208C3D002002210078FFF7AEBF4A
:10A9C40008B5094B1B7853B10020FEF711FF012095
:10A9D400FEF70EFF0320BDE80840FEF709BFBDE8FF
:10A9E4000840FEF711BF00BF8D3D0020F8B5794C3B
:10A9F400237805461BB100232370FFF7E1FF172DD1
:10AA040000F28480DFE805F00C13133F5061727C80
:10AA140084898489919696969696C0C5CDD5E0E0B2
:10AA2400FFF7CEFF6C4B00241C702046F8BD0020BD
:10AA3400FEF7C4FEF8B10020FEF7DAFE022D0CBFCB
:10AA44004FF4E1614FF47A61634B1D704FF40040A1
:10AA54004FF4FA740025E0FB01454FF47A720023A9
:10AA64002046294605F04EF9002201465B48BDE820
:10AA7400F840FCF7F5BCFEF7AFFE022D0CBFC82171
:10AA84004FF4C871E0E70020FEF798FE40B10020C3
:10AA9400FEF7AEFE4FF448714F4B03221A70D5E710
:10AAA400FEF79AFEC821F7E70020FEF787FE38B1CB
:10AAB4000020FEF79DFE4FF47A61474B0422EDE738
:10AAC400FEF78AFE4FF4C871F7E70020FEF776FE22
:10AAD40048B10020FEF78CFE3F4B05221A7041F668
:10AAE4009A110022C2E7FEF777FEF5E70020FEF791
:10AAF400A9FE394B06221A70002240F6CD41B5E773
:10AB04000020FEF769FE344B07221A7000248CE7FC
:10AB140001202070FEF796FEEEE701202070FEF77C
:10AB240091FE00224FF48041A0E7FEF77CFE2A4B01
:10AB34000C22EAE72A482B4EFCF7D6FCD5F1110586
:10AB440004461CD0D8B9012D13D0C8235D434FF45B
:10AB540000474FF4FA7000214FF47A720023C7FBC8
:10AB6400050105F0CFF8224601461D48FCF778FCA4
:10AB740004460220FEF730FE0123337055E702201D
:10AB8400FEF736FE0023F8E7FFF71AFF124B1222F6
:10AB9400BBE7FFF715FF0020FEF71EFE0E4B132246
:10ABA400B3E7FFF70DFF0120FEF716FE0A4B142250
:10ABB400ABE7FFF705FF0020FEF70EFE0120FEF7CE
:10ABC4000BFE054B1522A0E7FEF72DFE024B1D7070
:10ABD4009CE700BF003E0020083E0020D03D00203E
:10ABE400903D00208D3D0020044B1B68DB0703D5FE
:10ABF400034B1878FFF7FABE704700BFFC3D0020F6
:10AC0400083E0020032801D8FEF72EBE002070471E
:10AC140038B51C4B18601C4B10F002040546196033
:10AC24001AD01A4B1A480E221A700F22DA70102208
:10AC34009A7111225A72042140F26662FCF714F9E7
:10AC4400044648B9FCF764F9044628B90146114A98
:10AC54001148FCF7F3FB0446EB0711D50120FEF77E
:10AC640023FE6CB921460D4A0D48FCF7E7FB044668
:10AC740030B90C4A0C480121BDE83840FCF7DEBB72
:10AC8400204638BDFC3D0020043E0020F03D00205D
:10AC9400D00A0300BDA90200F40A0300EDAB0200D0
:10ACA400F80A030019A90200F00A0300032812D8C5
:10ACB400012A0BD1012908D100F10E02D2B200EB16
:10ACC40040000C4B1A540020704700220129F6D092
:10ACD40009D3022901D007207047064B00EB40003E
:10ACE40018444270EFE7034B00EB400018448270B5
:10ACF400E9E700BFF03D002008B501220221002051
:10AD0400FFF7D4FF08B1072810D107220221012040
:10AD1400FFF7CCFF08B1072808D100210A22084612
:10AD2400FFF7C4FF10B1072808BF002008BD0000CA
:10AD34000388102B10B502D0112B1ED010BD1A4C55
:10AD44002168B1B901220846FFF7B0FF08B107280E
:10AD540024D1072202210120FFF7A8FF08B1072808
:10AD64001CD1042202210020FFF7A0FF08B107280C
:10AD740014D1236801332360E0E70B4A1368013BD5
:10AD84001360002BDAD1FFF7B7FF0028D6D0074BAA
:10AD94001B68002BD2D0BDE810401847034B1B683A
:10ADA400002BE6D09847E4E7143E0020103E002034
:10ADB4000D4B10B518600C4629B10120FFF722FF96
:10ADC40040B102232370094B1B6853B9BDE81040FE
:10ADD400FFF792BFFFF716FF08B10B23F2E72070CD
:10ADE400F1E7002010BD00BF103E0020143E0020FB
:10ADF40075DF704776DF70477ADF70477CDF704716
:10AE04008ADF70478BDF70478CDF70478FDF7047B6
:10AE14000148FEF7FBBA00BF183E002008B5FFF753
:10AE2400F1FF06490648FFF7EBFF30F0080303D0B3
:10AE3400BDE80840FCF782B808BD00BFEC33002031
:10AE4400220C0300FCF77AB808B50E4B014658886B
:10AE54004FF6FF72904207D0D88990420FD0588B9A
:10AE640090420ED1022200E000220C2000FB0230AE
:10AE740002F032FC28B1BDE80840FCF75FB80122BB
:10AE8400F3E708BD283F002073B50446808801F02D
:10AE940039FA80B2012802D02388262B29D12388AD
:10AEA400212B00F0248100F28780102B03D0112B7A
:10AEB40013D002B070BD924B92491888000440F040
:10AEC4000300FBF78DFD0220FEF792FC0320FEF742
:10AED40083FCA088FFF7B8FFEBE7894B8A49188801
:10AEE400000440F00300FBF77BFD0320FEF780FC29
:10AEF400DFE7022822D01D2BDBD1844805F059F866
:10AF0400A18C002800F0B480804A206A00F0A2FDE1
:10AF1400002800F0A4807E4A7E49012304F10A003F
:10AF2400FFF772FF02460028C3D0754B7A491B888D
:10AF34001B0443F00300FBF757FDBAE71D2BDCD0DD
:10AF44002ED8112B55D01B2B00F0C480102BB0D160
:10AF54006B4D72492888000440F00300FBF740FD64
:10AF64006F4B1A884FF6FF739A4203D06D4A1288CA
:10AF74009A422DD12888A2886B49000440F003002E
:10AF8400FBF732FDA188694801F0DEFB11281DD1D1
:10AF9400A188674801F0D8FBD0B1FBF7CFFF17E0D9
:10AFA400212B00F0A48007D81F2B82D104F10801C3
:10AFB400A088FFF71DFF55E03B2B02D0562B7FF4F2
:10AFC40078AF1321A088FFF715FF4BE00028E4D1E8
:10AFD400A088FFF739FF0120FEF7FEFB01F0B0F96E
:10AFE40002284FF0000081D0FEF7F6FBFFF716FFB2
:10AFF4005FE74B4DA2882B889A420BD1404B227AB3
:10B0040018884C49000440F00300FBF7EDFC4FF6B0
:10B01400FF732B80434EA28833889A420BD1384B5E
:10B02400227A18884449000440F00300FBF7DCFC52
:10B034004FF6FF73338032884FF6FF739A4202D083
:10B044002A889A4204D1FFF7E9FE0020FEF7C4FBE8
:10B0540001F076F900287FF42CAF012046E7374948
:10B06400FFF7CEFE00283FF424AFFBF767FF20E78D
:10B07400334B53F8040B0090186801906A46206A19
:10B0840000F00CFDB8B1264B1A884FF6FF739A42B4
:10B0940011D11F4A1F49012304F10A00FFF7B4FE2E
:10B0A400024600283FF405AF154B1B491B881B04BF
:10B0B40043F002003FE701AAA18C206A00F0EEFCF5
:10B0C40028B1184B1A884FF6FF739A42E1D01B49F6
:10B0D4000020C5E7237A022B7FF4EBAE084B194915
:10B0E4001888000440F00300FBF77AFCE1E602A9AB
:10B0F400002321F8043DA088FFF788FEB2E700BFD3
:10B104006C2D00201C0B0300310B0300300C0300DA
:10B114001A0C0300220C0300D60B0300490B030096
:10B124002C2E00202E2E00205B0B0300302E00203E
:10B13400FC3000208A0B0300B00B0300EC3300202A
:10B14400FC0A0300FB0B030010B501460446044847
:10B1540004F066F921460348BDE8104004F098B9AC
:10B16400183F00204C3F00202DE9F04104780546AB
:10B174001CB3BDE8F0812B69185DFEF75DF9064646
:10B1840060B11128F7D03888000440F0010032463D
:10B194004146FBF729FC3046FBF7D0FE0134AA8A6E
:10B1A4009442E8D32B69134413F8013C0D2BE0D1EE
:10B1B4000A20FEF741F91128F9E7024FDFF8088069
:10B1C400EDE700BF6C2D00205B0C030008B570B1E7
:10B1D400032815D10B4B0C491888000440F00300D8
:10B1E400FBF7FEFB0220BDE80840FEF7F5BA032199
:10B1F400064800F031FD18B1BDE80840FBF79EBEDB
:10B2040008BD00BF6C2D0020860C03002C3E0020DE
:10B2140010B50020FDF74EFD044668B9FFF7FEFDAA
:10B224002046FEF7D9FA0321044800F015FD18B1B1
:10B23400BDE81040FBF782BE10BD00BF2C3E0020CD
:10B2440030B5037885B004460D2B10D8DFE803F041
:10B25400070F110F220F2A390F350F3932391A4BC4
:10B264001A491888000440F00300FBF7B9FB05B045
:10B2740030BD154B40881D8801F044F82D04227A16
:10B28400009245F003050246638811492846FBF7FE
:10B29400BFFBECE704A9002301F8043D408803F058
:10B2A40005F8E4E7FDF72AF830F00803DFD0FBF7F0
:10B2B40045FEDCE7FFF7ACFFD9E700690028D6D0EC
:10B2C400F5E78068FAE700BF6C2D0020980C0300B6
:10B2D400C10C0300FBF732BE80B59B4D0FCDB0B05F
:10B2E40005AC0FC495E80300984B994A01934FF4B9
:10B2F400807384E80300CDE903230293954A07236E
:10B3040001A905A8FEF72AF808B1FBF717FE4FF4C8
:10B3140000410020FBF79CF908B1FBF70FFEFBF797
:10B32400C7F8FCF75BF808B1FBF708FE002103201F
:10B33400FFF76EFC08B1FBF701FE05A90020FFF73B
:10B3440037FD08B1FBF7FAFD9DF81450FDF710FF27
:10B3540008B1FBF7F3FD04F0F1FA08B1FBF7EEFDD9
:10B36400002305A90120059304F0B6FB08B1FBF7FF
:10B37400E5FD05A804F05CFC08B1FBF7DFFD112333
:10B3840075488DF8043004F014FE734982B201A8A4
:10B39400FFF734FD08B1FBF7D1FD0021082205A811
:10B3A40004F0D4FD6D494FF0C87305A8CDE9051329
:10B3B400FFF722FD08B1FBF7C1FD0021684802F048
:10B3C40065F808B1FBF7BAFD1C22002105A804F0BA
:10B3D400BDFD00234FF42032CDE905324FF4702235
:10B3E400079203228DF820204FF6FF72ADF8222039
:10B3F4000A9301225B4B8DF8242005A80B9300F0DF
:10B404008DFE08B1FBF79AFD574801F085F908B1A4
:10B41400FBF794FD02F0F6FE08B1FBF78FFD052261
:10B42400002105A804F092FD9DF8143043F00103B7
:10B43400032203F0F10362F306136FF3C7138DF8CD
:10B44400143007238DF8153010238DF816309DF82D
:10B45400173013438DF817309DF8183005A813439F
:10B464008DF8183002F018FF08B1FBF767FD3F486C
:10B4740002F0FAFE08B1FBF761FD3D4B3D4F059329
:10B4840000240C2605A906FB047002F013F908B188
:10B49400FBF754FD0134032CF4D1042200210DEBFD
:10B4A400020004F053FD344B3448019301A904F025
:10B4B400C9F808B1FBF742FDAC22002105A804F04D
:10B4C40045FD062202238DF8172003228DF814303F
:10B4D400ADF8242001232A4A8DF816300A928DF8FB
:10B4E40090304FF496720023CDE9272305A9254B0C
:10B4F40025482E9300F03EFB08B1FBF71FFD234CBB
:10B504002148012100F033FB20882149000440F048
:10B514000300FBF765FA022D12D120881D490004AF
:10B5240040F00300FBF75CFA02F0CEFE08B1FBF733
:10B5340005FDFBF7F3F80028FBD1FDF72FFEF8E734
:10B54400FFF766FEF5E700BF040B03005740002039
:10B554005741002015AE0200310C0300060018000C
:10B56400F43E002049AE02004DB1020045B2020093
:10B57400D9B20200283F00206DB10200C833002078
:10B58400202E0020D1B102002C3E00206C2D002082
:10B59400370C03004E0C03006DDF704779DF7047F2
:10B5A4007DDF704764DF70472DE9F74F0C9CBDF8D1
:10B5B40034B02788002580468A4691462E46B8F83E
:10B5C4000020B2420BDC35B12288013AD21B92B280
:10B5D400FF2A39D8DA55002003B0BDE8F08FD8F837
:10B5E400042052F82600019000220DF1030101A865
:10B5F400FFF7D8FF0028EFD19DF803204A4521D159
:10B604002288002D14BF0020022002EB090101440E
:10B61400594519DC3DB9013292B2228003F802A0E7
:10B6240022880132228022880DF103011A4401A8E4
:10B63400FFF7B8FF0028CFD121889DF803200A44E2
:10B64400228001250136BAE70C20C5E72DE9F34134
:10B65400089CBDF824501746CDE900450222064651
:10B66400FFF7A2FF48B9102239463046CDE9084514
:10B6740002B0BDE8F041FFF797BF02B0BDE8F0812A
:10B684002DE9F04F00231688138090F82D3085B0F3
:10B6940007460D46144653B3082E01D80C2004E186
:10B6A40002A8FFF779FF002840F0FF8013880822E2
:10B6B400CA54238801339BB21B222380CA54208896
:10B6C400013080B2208006220DF10901284404F0E3
:10B6D40014FC23889DF8082006339BB212F0FE0266
:10B6E40018BF01222380EA54238801332380BB78C6
:10B6F400FBB123880433B342D0D802A8FFF74EFF2E
:10B70400002840F0D28023880322EA54238801339E
:10B714009BB219222380EA542388BDF80820013300
:10B724009BB2E9182380EA54120A4A702388023330
:10B734002380FA789AB12388D91CB142AED8022169
:10B74400E954238801339BB201212380E9542388DF
:10B754000B449BB22380EA5423880B4423807A68E9
:10B76400AAB12388D91CB14298D8022192F90020A9
:10B77400E954238801339BB20A212380E9542388A6
:10B7840001339BB22380EA542388013323803B890D
:10B79400002B7ED13B8A53B1CDE900462B460722CC
:10B7A400032107F11000FFF751FF00287DD13B8BE7
:10B7B40053B1CDE900462B461522142107F1180098
:10B7C400FFF744FF002870D13A6A002A70D1D7F8F5
:10B7D4002480B8F1000F30D0B8F804302188981CC8
:10B7E4008A1C0244B2423FF659AFFE283FF656AFD8
:10B7F40003336B54238801339BB2FF222380EA5422
:10B80400238801339BB22380B8F80020EA54E91856
:10B81400120A4A702088023080B22080B8F80420CE
:10B824005AB1D8F8081000294CD0284404F065FB1C
:10B834002388B8F804201344238097F82C30002B75
:10B844007BD1387888B33B88012B3BD021888A1C74
:10B85400B2423FF623AF012805D17B7802330B4473
:10B864009E42FFF41BAF023E761A04A9B6B221F839
:10B87400086DA818FFF794FEB8B93B78022B40F086
:10B884009F80BDF80830B34240F2B680ADF808603E
:10B894009FE0CDE900462B460622022107F108006D
:10B8A400FFF7D4FE00283FF475AF05B0BDE8F08F74
:10B8B400B4F800C00CF10603B3423FF6EFAE1188B2
:10B8C400052901D80720F0E76FF4486E01EB0E0359
:10B8D4009BB24FF27D3E7345F4D95388052BF1D9C1
:10B8E4006FF44860181880B27045EBD94FF6FF70BA
:10B8F400814203D0834201D09942E3D8052305F85D
:10B904000C30238801339BB212212380E95423880D
:10B9140001339BB223801188E954E818090A417065
:10B92400238802339BB223805288EA54E918120A0E
:10B934004A7023880233238049E7BB6A002BC1D0B5
:10B944004FF000094FF00C0A4FF0160B97F82C300B
:10B954005FFA89F293427FF674AFB96A0AFB02F286
:10B9640001EB0208B8F80430981CFE283FF696AEA6
:10B97400208803332B54238801339BB2238005F89A
:10B9840003B0238801339BB223808A5AEA54E9180E
:10B99400120A4A702088023080B22080B8F804204D
:10B9A4005AB1D8F8081000298CD0284404F0A5FA1C
:10B9B4002388B8F804201344238009F10109C5E75A
:10B9C400012B7FF463AF7B789E42FFF45FAFADF849
:10B9D40008300821BDF80830FE2B3FF65FAE228800
:10B9E4000133AB542288013292B22280A9542288B6
:10B9F40013442380002058E70921EBE770B5C0B158
:10BA04004AB116880024B44203D305196D789D42C7
:10BA140008D0A14201D800200BE0055D01352C447B
:10BA2400A4B2F0E7A142F6D9A31C1380005D01384B
:10BA340080B270BD37B502AC002324F8023D134632
:10BA440022460546FFF7DAFF10B1BDF80600284488
:10BA540003B030BDF7B500230746ADF806301446F1
:10BA640012B9002003B0F0BD09230DF10602FFF75F
:10BA7400C5FFBDF806500646002DF2D00028F0D0D0
:10BA8400204604F096FAB0420246EAD179192046DB
:10BA940004F0FDF9B0FA80F04009E3E7F0B587B0AF
:10BAA400002306460D461046ADF8063002AA1023C0
:10BAB4000DF105018DF80530FFF774FD16B900206E
:10BAC40007B0F0BD0028FAD19DF80530042B06D04C
